:020000040000FA
:100000000C9421060C9449060C9449060C9449065C
:100010000C9449060C9449060C9449060C94801CD7
:100020000C9449060C9449060C9449060C94490614
:100030000C9449060C9449060C9449060C94490604
:100040000C94341D0C9449060C94021D0C94DC1C79
:100050000C9449060C9449060C9449060C944906E4
:100060000C947E1D0C94490600407A10F35A00A0AF
:10007000724E18090010A5D4E80000E87648170071
:1000800000E40B54020000CA9A3B000000E1F505B1
:10009000000080969800000040420F000000A086FB
:1000A00001000000102700000000E803000000002D
:1000B0006400000000000A000000000001000000D1
:1000C00000002C76D888DC674F0823DFC1DFAE59EB
:1000D000E1B1B796E5E3E453C63AE651997696E87E
:1000E000E6C28426EB898C9B62ED407C6FFCEFBC02
:1000F0009C9F40F2BAA56FA5F490055A2AF75C932D
:100100006B6CF9676DC11BFCE0E40D47FEF520E662
:10011000B500D0ED902E0300943577050080841E45
:10012000080000204E0A000000C80C333333330FA0
:10013000986E12831141EF8D2114893BE65516CF3D
:10014000FEE6DB18D1844B381BF77C1D901DA4BB49
:10015000E424203284725E228100C9F124ECA1E5FE
:100160003D2700000101040000010005090300F81B
:10017000070007030702F80A0007080701F8110043
:1001800007090600F8190008090901F82200070903
:100190000700F82A0003030402F82C00060C0400F0
:1001A000F63500050C0400F63D0006050803F6418F
:1001B0000005060601F9450003030400FF4700049B
:1001C000010501FC48000201030000490007090580
:1001D00000F8510007090600F8590004090401F865
:1001E0005E0007090600F8660007090600F86E00C1
:1001F00006090601F8750007090600F87D000709E1
:100200000600F8850007090500F88D0007090600BB
:10021000F8950007090600F89D0003050300FC9F00
:100220000004060400FCA20006050601FAA600056B
:10023000040501FAA90005050601FAAD0006090644
:1002400001F8B40007090600F8BC0007090600F829
:10025000C40007090600F8CC0007090600F8D4001E
:1002600007090600F8DC0007090500F8E4000709A3
:100270000500F8EC0007090600F8F400070906007D
:10028000F8FC0005090300F8020105090400F8085C
:100290000107090600F8100105090500F816010913
:1002A000090700F8210108090700F82A01070906D3
:1002B00000F8320107090600F83A01070A0600F8BB
:1002C000430107090600F84B0107090600F853012E
:1002D00006090601F85A0107090600F86201060935
:1002E0000601F869010A090900F875010709060005
:1002F000F87D0106090601F8840107090500F88C5C
:1003000001060C0400F6950103090502F89901069F
:100310000C0400F6A20104020603F5A3010601077E
:10032000FF02A40104020503F5A50107080600F970
:10033000AC0107080600F9B30107080600F9BA0185
:1003400007080600F9C10106080500F9C7010608FB
:100350000500F9CD0107080600F9D40107080600D9
:10036000F9DB0104080300F9DF0105080400F9E4E2
:100370000107080600F9EB0104080500F9EF010880
:10038000080700F9F70108080700F9FF0107080648
:1003900000F9060207080600F90D0207090600F930
:1003A000150207080600F91C0207080600F92302D7
:1003B00006080601F9290207080600F930020608B6
:1003C0000601F936020A080900F94002070806008A
:1003D000F9470206080601F94D0206080500F9531F
:1003E00002060C0500F65C02050C0300F66402052B
:1003F0000C0500F66C0205030603F400318C66312F
:1004000080C06C9A403679FB66DFB66C0C7CD9876D
:10041000C19E7C703E6E7C7CFF1B3B3A7E1E6CF95D
:10042000E3ED9E6CF86A0018C30C318618630C303B
:1004300018C63318C663198019FFDE78318DF6307F
:100440006F00F0C00C1860C3061830C01E6CF9E6CF
:10045000CD9E7CF8737666CCC03E6C3861C71C704C
:10046000F81E6C3061819E7CF86DB7FEDBE30C30CA
:100470003E60C3E0C19E7CF81E6CC1E6CD9E7CF858
:100480003C1870C3061830C01E6CF1E38D9E6CF8EA
:100490003E6CFB67C39E6CF8600C30006C19CE1884
:1004A000307801E07186EE003DB186798C00C01E87
:1004B0006CF1E6CF9870F81E6CF9E7CD9E6CD83ED3
:1004C0006CF1E78D9E6CF81E6CC1860C187CF83EB2
:1004D0006CF9E6CD9E7CF83C60C1878C1860F03CDE
:1004E00060C1878C1860C01E6CC186CD9E7CF836BA
:1004F0006CD9E7CD9E6CD8318C663198C018CE632C
:10050000198CE0366CD9E78D9E6CD8318C66319CA5
:10051000F03B1F8FC7E6E3319998CC003B3E3E3E4F
:100520007E7C7CDCDC1E6CF9E6CD9E7CF83E6CF1BA
:10053000E7CC1860C01E6CF1E6CD9E7CF0C03E6C2E
:10054000F1E78D9E6CD81E6CC187C19E7CF87CC380
:100550000C318618C0366CD9E6CD9E7CF86DB7DEBE
:10056000DB6F38E036CDE378F66D9BC7B3ECFE0069
:10057000366CD9E38D9E6CD86DB7DEF98618E03CF9
:100580001870C3061870F018C30C318618630C304D
:10059000DB6DB6C018618630C30C6186307FFC63AA
:1005A0003C79B3E7CF366C3E79B3C78F36783E7966
:1005B000B3060F3E7C3C79B366CF3E7C3CC61E61E1
:1005C0008C3C3CC61E618C303E79B367CF3E7C3696
:1005D00079B3E7CF366C336666CC198C63319C36C1
:1005E00079B3C78F366C337666EF33377F7E7E768E
:1005F000CCCC3636767E7C7CDCDC3C79B366CF3E78
:100600007C3E79B3E60C30603E79B366CF3E7860CD
:100610003E79B3C78F366C3E7983E1CF367C7CC39D
:100620001C6186303679F366CF3E7C6DEDB6F3CE35
:1006300038378F67D9B66F1ECFB3F83679B1C78F09
:10064000366C6DE7B6F186303C318C318C3C0C61F8
:100650008630C60C618638198C63318C66318018FF
:10066000C63318666319801FF000000000003E5B6F
:100670004F5B3E3E6B4F6B3E1C3E7C3E1C183C7EEF
:100680003C181C577D571C1C5E7F5E1C00183C18D4
:1006900000FFE7C3E7FF0018241800FFE7DBE7FFD0
:1006A00030483A060E2629792926407F050507405D
:1006B0007F05253F5A3CE73C5A7F3E1C1C08081C1E
:1006C0001C3E7F14227F22145F5F005F5F06097F5C
:1006D000017F006689956A606060606094A2FFA2F5
:1006E0009408047E040810207E201008082A1C08A4
:1006F000081C2A08081E101010100C1E0C1E0C30AE
:10070000383E3830060E3E0E0600000000000000A5
:100710005F00000007000700147F147F14242A7F65
:100720002A12231308646236495620500008070332
:1007300000001C2241000041221C002A1C7F1C2AB0
:1007400008083E0808008070300008080808080003
:100750000060600020100804023E5149453E0042FE
:100760007F400072494949462141494D33181412CE
:100770007F1027454545393C4A49493141211109F6
:10078000073649494936464949291E0000140000E8
:100790000040340000000814224114141414140002
:1007A0004122140802015909063E415D594E7C124E
:1007B00011127C7F494949363E414141227F4141E6
:1007C000413E7F494949417F090909013E41415163
:1007D000737F0808087F00417F41002040413F01AE
:1007E0007F081422417F404040407F021C027F7FEF
:1007F0000408107F3E4141413E7F090909063E4100
:1008000051215E7F09192946264949493203017F52
:1008100001033F4040403F1F2040201F3F403840E1
:100820003F631408146303047804036159494D437A
:10083000007F4141410204081020004141417F04F2
:1008400002010204404040404000030708002054D9
:100850005478407F28444438384444442838444439
:10086000287F385454541800087E090218A4A49C08
:10087000787F0804047800447D40002040403D001B
:100880007F1028440000417F40007C047804787C7D
:10089000080404783844444438FC182424181824E4
:1008A0002418FC7C08040408485454542404043FCD
:1008B00044243C4040207C1C2040201C3C403040D4
:1008C0003C44281028444C9090907C4464544C4400
:1008D00000083641000000770000004136080002A1
:1008E000010204023C2623263C1EA1A161123A40CB
:1008F00040207A3854545559215555794122545441
:100900007842215554784020545579400C1E52723B
:100910001239555555593954545459395554545818
:100920000000457C410002457D420001457C407D40
:100930001211127DF0282528F07C545545002054D2
:10094000547C547C0A097F4932494949323A44442B
:10095000443A324A4848303A4141217A3A424020AA
:1009600078009DA0A07D3D4242423D3D4040403D3B
:100970003C24FF2424487E4943662B2FFC2F2BFF69
:100980000929F620C0887E090320545479410000CB
:10099000447D413048484A32384040227A007A0A41
:1009A0000A727D0D19317D2629292F28262929290A
:1009B0002630484D4020380808080808080808383C
:1009C0002F10C8ACBA2F102834FA00007B000008A2
:1009D000142A142222142A14085500550055AA5529
:1009E000AA55AAFF55FF55FF000000FF0010101088
:1009F000FF00141414FF001010FF00FF1010F0107F
:100A0000F0141414FC001414F700FF0000FF00FFA2
:100A10001414F404FC141417101F10101F101F14CA
:100A200014141F00101010F0000000001F10101010
:100A3000101F10101010F010000000FF1010101008
:100A40001010101010FF10000000FF140000FF0035
:100A5000FF00001F10170000FC04F41414171017F7
:100A60001414F404F40000FF00F714141414141404
:100A700014F700F7141414171410101F101F141477
:100A800014F4141010F010F000001F101F000000EC
:100A90001F14000000FC140000F010F01010FF10F4
:100AA000FF141414FF141010101F00000000F010A9
:100AB000FFFFFFFFFFF0F0F0F0F0FFFFFF0000008E
:100AC0000000FFFF0F0F0F0F0F3844443844FC4A5B
:100AD0004A4A347E02020606027E027E02635549BD
:100AE00041633844443C04407E201E2006027E02BE
:100AF0000299A5E7A5991C2A492A1C4C7201724C3F
:100B0000304A4D4D303048784830BC625A463D3E00
:100B1000494949007E0101017E2A2A2A2A2A4444A1
:100B20005F444440514A444040444A51400000FF21
:100B30000103E080FF000008086B6B0836123624C2
:100B400036060F090F0600001818000000101000EC
:100B50003040FF0101001F01011E00191D17120086
:100B60003C3C3C3C0000000000000000002400274A
:100B7000002A000000000023002600290004E010E5
:100B8000021C07123732292D29252B3900010310A9
:100B9000E110031D07062E2C292D2E2E373F0000B5
:100BA000021013800A298064022A040000007F2BAF
:100BB000040000009F0F0180961180FFB103012CFB
:100BC0002DB203012C2DB306012C2D012C2DB401C7
:100BD00007C003A20284C101C5C2020A00C3028A7F
:100BE0002AC4028AEEC5010E20003601C83A01056A
:100BF000FB03620120007E001000000008000201DB
:100C000000000304070000000000000000020102D1
:100C1000040810204080010204081020010204088A
:100C2000102000000000250028002B00040404040C
:100C30000404040402020202020203030303030386
:100C4000991E11241FBECFEFD8E0DEBFCDBF11E04B
:100C5000A0E0B1E0E8EBF4E602C005900D92A23B03
:100C6000B107D9F723E0A2EBB1E001C01D92A8368D
:100C7000B207E1F716E0C1E2D6E004C02197FE0119
:100C80000E944F32C032D107C9F70E946C1F0C94EA
:100C90005A320C940000AF92BF92CF92DF92EF9243
:100CA000FF920F931F93CF93DF936C017B018B0116
:100CB000040F151FEB015E01AE18BF08C017D10766
:100CC00059F06991D601ED91FC910190F081E02DF0
:100CD000C6010995892B79F7C501DF91CF911F9145
:100CE0000F91FF90EF90DF90CF90BF90AF9008955D
:100CF000FC01538D448D252F30E0842F90E0821B22
:100D0000930B541710F0CF96089501970895FC01A6
:100D1000918D828D981761F0A28DAE0FBF2FB11DFE
:100D20005D968C91928D9F5F9F73928F90E0089556
:100D30008FEF9FEF0895FC01918D828D981731F010
:100D4000828DE80FF11D858D90E008958FEF9FEF64
:100D50000895FC01918D228D892F90E0805C9F4F3A
:100D6000821B91098F739927089583E892E00E946E
:100D7000A90621E0892B09F420E0822F089580E064
:100D800090E0892B29F00E94B50681110C94000097
:100D90000895FC01A48DA80FB92FB11DA35ABF4F10
:100DA0002C91848D90E001968F739927848FA6896A
:100DB000B7892C93A089B1898C91837080648C93BE
:100DC000938D848D981306C00288F389E02D80816D
:100DD0008F7D80830895EF92FF920F931F93CF939F
:100DE000DF93EC0181E0888F9B8D8C8D98131AC066
:100DF000E889F989808185FF15C09FB7F894EE894D
:100E0000FF896083E889F9898081837080648083A9
:100E10009FBF81E090E0DF91CF911F910F91FF90F4
:100E2000EF900895F62E0B8D10E00F5F1F4F0F739C
:100E30001127E02E8C8D8E110CC00FB607FCFACF57
:100E4000E889F989808185FFF5CFCE010E94C90626
:100E5000F1CFEB8DEC0FFD2FF11DE35AFF4FF08228
:100E60009FB7F8940B8FEA89FB8980818062CFCF8E
:100E7000CF93DF93EC01888D8823B9F0AA89BB89D1
:100E8000E889F9898C9185FD03C0808186FD0DC0BC
:100E90000FB607FCF7CF8C9185FFF2CF808185FFDD
:100EA000EDCFCE010E94C906E9CFDF91CF91089521
:100EB000833081F028F4813099F08230A9F00895D0
:100EC0008730A9F08830C9F08430B1F48091800077
:100ED0008F7D03C0809180008F778093800008957C
:100EE00084B58F7784BD089584B58F7DFBCF8091C5
:100EF000B0008F778093B00008958091B0008F7D0F
:100F0000F9CFCF93DF93282F30E0F901E750F44F6A
:100F10008491F901E25FF34FD491F901E45DF34F5D
:100F2000C491CC23A1F081110E945807EC2FF0E06E
:100F3000EE0FFF1FED58F44FA591B491EC91ED2306
:100F400081E090E009F480E0DF91CF91089580E0A6
:100F500090E0FACF1F93CF93DF93282F30E0F90171
:100F6000E750F44F8491F901E25FF34FD491F90116
:100F7000E45DF34FC491CC23A9F0162F81110E9498
:100F80005807EC2FF0E0EE0FFF1FEE5DF34FA59139
:100F9000B4918FB7F894EC91111108C0D095DE236D
:100FA000DC938FBFDF91CF911F910895DE2BF8CF97
:100FB0009091010189130BC0EDE0FCE0E4919FEFFB
:100FC00090930101E13049F028F0E23061F060E0F7
:100FD0000C94AA0710926E00FACF90916F009D7F3B
:100FE00090936F00F4CF909170009D7F909370006C
:100FF00091E09093B0009091B100987F94609093AD
:10100000B1001092B300E3CFCF93DF9390E0FC01E7
:10101000E25FF34F2491845D934FFC018491882318
:10102000C9F090E0880F991FFC01E759F44FA59192
:10103000B491FC01EE5DF34FC591D49161110DC0E7
:101040009FB7F8948C91209582238C9388812823D4
:1010500028839FBFDF91CF910895623051F49FB7ED
:10106000F8943C91822F809583238C93E8812E2BDA
:10107000EFCF8FB7F894EC912E2B2C938FBFEACF44
:101080004F925F926F927F928F929F92AF92BF9298
:10109000CF92DF92EF92FF920F931F93CF93DF9344
:1010A00000D000D01F92CDB7DEB78C012A013B01E2
:1010B000809101018430C9F08F3F09F47FC00F9007
:1010C0000F900F900F900F90DF91CF911F910F9184
:1010D000FF90EF90DF90CF90BF90AF909F908F9058
:1010E0007F906F905F904F900895EDE0FCE08491C9
:1010F0008D8387FDE4CF61E084E00E9404088D8148
:10110000882321F09D81923009F05CC14801B12C07
:10111000A12C60E072E18AE790E0A50198010E94AD
:10112000F33129833A834B835C8369017A0181E03F
:10113000C81AD108E108F1089FEFC916D104E104EB
:10114000F10409F00CF413C160E472E48FE090E064
:10115000A50198010E94F33169017A0181E0C81A62
:10116000D108E108F1089D81923009F098C08FEF15
:10117000C816D104E104F10409F00CF4DDC160E902
:1011800070ED83E090E0A50198010E94F3316901C0
:101190007A0191E0C91AD108E108F1088FEFC81669
:1011A000D104E104F10411F00CF0A3C183E09091AB
:1011B000B100987F892B8093B100E1C084E08093D7
:1011C0000101EDE0FCE094919D839F3F09F477CF0E
:1011D000913029F158F0923009F43FC08D8187FD9C
:1011E0006ECF61E084E00E9404088CCF14BC15BC73
:1011F00084B5826084BD85B5816085BDE0E3FCE097
:10120000E491F0E0EE0FFF1FEE5DF34F85919491B6
:10121000E2E1FCE0E491E09376021D826CCF109253
:10122000800010928100809181008860809381000D
:1012300080918100816080938100E0E3FCE0E49193
:10124000F0E0EE0FFF1FEE5DF34F85919491E2E128
:10125000FCE0E491E09375024ECF1092B000109242
:10126000B1008091B00082608093B0008091B100A5
:1012700081608093B100E0E3FCE0E491F0E0EE0FE8
:10128000FF1FEE5DF34F85919491909374028093CC
:101290007302E2E1FCE0E491E09372022CCF9FEF55
:1012A000C916D104E104F10409F00CF489C068E422
:1012B00078EE81E090E0A50198010E94F331690188
:1012C0007A0181E0C81AD108E108F1089D819923CB
:1012D00009F428C19FEFC916D104E104F10409F013
:1012E0000CF41EC162E17AE780E090E0A501940170
:1012F0000E94F33169017A0181E0C81AD108E1083E
:10130000F1089D81992309F4EBC08FEFC816D10431
:10131000E104F10411F008F0BFC086E048CF64E2B8
:1013200074EF80E090E0A50194010E94F33169011F
:101330007A0181E0C81AD108E108F10885E09FEF41
:10134000C916D104E104F10409F008F430CF62E1D8
:101350007AE780E090E0A50194010E94F3316901F1
:101360007A0191E0C91AD108E108F108CECF81E0F5
:101370009D8191111CCF95B5987F892B85BD2FEF4D
:101380003FEFA901411451046104710409F043C005
:101390009D81913009F45EC0923009F46DC09111C5
:1013A0008ECEC7BC20937F0230938002409381028F
:1013B0005093820280916E00826080936E007FCE97
:1013C00082E0D6CFB12CA12C60E072E18AE790E0F8
:1013D000A50198010E94F33169017A0181E0C81AE0
:1013E000D108E108F108C114D10491E0E906F10443
:1013F00004F591E08D81813011F680918100887F24
:10140000892B809381002FEF3FEFA90141145104F4
:1014100061047104F9F0D801AA0FBB1FA301920166
:101420000E94303228EE33E040E050E00E94D1319B
:10143000AFCF68E478EE81E090E0A50198010E94CA
:10144000F33169017A0181E0C81AD108E108F10895
:1014500093E0D0CFD0928900C092880020937B0285
:1014600030937C0240937D0250937E0280916F0006
:10147000826080936F0023CEC092B30020937702E6
:10148000309378024093790250937A0280917000F1
:1014900082608093700013CEC980DA80EB80FC807C
:1014A0009AE0F594E794D794C7949A95D1F791E090
:1014B000C91AD108E108F10887E079CEC980DA803D
:1014C000EB80FC808AE0F594E794D794C7948A95E2
:1014D000D1F791E0C91AD108E108F10885E04BCFB6
:1014E0008FEFC816D104E104F10409F038F784E065
:1014F00042CF68E478EE81E090E0A50198010E9477
:10150000F33169017A0191E0C91AD108E108F108C3
:101510008FEFC816D104E104F10411F00CF0FFCEF6
:1015200084E045CE8FEFC816D104E104F10411F038
:101530000CF0D8CE83E01FCF82E039CE8E3008F099
:101540008E508770806480937C0080917A008064E4
:1015500080937A0080917A0086FDFCCF809178009C
:101560009091790008953FB7F89480912902909165
:101570002A02A0912B02B0912C0226B5A89B05C08F
:101580002F3F19F00196A11DB11D3FBFBA2FA92F02
:10159000982F8827BC01CD01620F711D811D911DFF
:1015A00042E0660F771F881F991F4A95D1F708956B
:1015B0008F929F92AF92BF92CF92DF92EF92FF9263
:1015C0006B017C010E94B30A4B015C01C114D10480
:1015D000E104F104B9F00E94B30A681979098A0993
:1015E0009B09683E73408105910580F321E0C21A92
:1015F000D108E108F10888EE880E83E0981EA11C4E
:10160000B11CE4CFFF90EF90DF90CF90BF90AF90F0
:101610009F908F9008952FB7F89460912502709154
:10162000260280912702909128022FBF08952091D1
:10163000DA01260F3327331F21323105ECF42091D4
:10164000FE01FC0190E080E0243069F082E0089522
:10165000A091DA012191AC0146545E4FA40FB52F41
:10166000B11D2C930196861798F38091DA01680FCB
:101670006093DA0180E0089581E0089508958FEF86
:101680009FEF08958FEF9FEF08958091B30190E051
:101690009195819591090895CF93DF93CB01EA014C
:1016A000642F0E94170BCE01DF91CF910895CF9345
:1016B000DF931F92CDB7DEB7698361E0CE0101965B
:1016C0000E94170B81E090E00F90DF91CF91089579
:1016D000CF92DF92EF92FF92CF936B017C01AC012E
:1016E0009B016EEF7FEF81E090E00E94AD319B01A6
:1016F000AC0160E074E284EF90E00E94D131C0E080
:10170000EC2FF0E0EE0FFF1FE25EFE4F8081918133
:10171000CF5F82179307A0F3A7019601220F331F13
:10172000441F551FEC2FF0E0EE0FFF1FE25EFE4F4F
:10173000A081B1810E9430329B01AC0160E074E273
:1017400084EF90E00E94D13130938700209386008F
:1017500080918100887FC770C82BC093810081E091
:10176000CF91FF90EF90DF90CF900895FC01A5A15D
:10177000B6A18C9192A589238C93A5A1B6A18C9139
:1017800091A5892B8C930895DC019396ED91FC91A2
:101790009497908198968C91892380830895DC0199
:1017A0009396ED91FC919497908197968C91892BCB
:1017B00080830895DC019196ED91FC919297908140
:1017C00096968C91892380830895DC019196ED9102
:1017D000FC919297908195968C91892B80830895A6
:1017E000CF92DF92EF92FF921F93CF93DF93EC01A2
:1017F0006A017B018DA9811123C08F2D9927AA270A
:10180000BB278EBD0DB407FEFDCFC701AA27BB279E
:101810008EBD0DB407FEFDCFBB27AF2D9E2D8D2DA8
:101820008EBD0DB407FEFDCFCEBC0DB407FEFDCFBF
:10183000DF91CF911F91FF90EF90DF90CF900895AF
:101840008130B1F410E2CE01F7FE0FC00E94E50B2B
:10185000CE010E94CF0BCE010E94C40BCC0CDD1C2C
:10186000EE1CFF1C115079F7E3CF0E94DA0BF0CF8A
:10187000EF8DF8A18F2D9927AA27BB278083CE0152
:101880000E94B60BEF8DF8A1C701AA27BB27808362
:10189000CE010E94B60BEF8DF8A1BB27AF2D9E2D78
:1018A0008D2D8083CE010E94B60BEF8DF8A1C082F2
:1018B000CE01DF91CF911F91FF90EF90DF90CF90FD
:1018C0000C94B60BFF920F931F93CF93DF93EC0111
:1018D0008B018DA981110EC01EBD0DB407FEFDCF79
:1018E0000EBD0DB407FEFDCFDF91CF911F910F917B
:1018F000FF9008958130B1F490E1F92ECE0117FFE9
:101900000EC00E94E50BCE010E94CF0BCE010E94BB
:10191000C40B000F111FFA94F110F0CFE5CF0E9415
:10192000DA0BF1CFEF8DF8A11083CE010E94B60B38
:10193000EF8DF8A10083CE01DF91CF911F910F9120
:10194000FF900C94B60B0F931F93CF93DF93EC0192
:10195000162F8DA9811109C06EBD0DB407FEFDCFF4
:10196000DF91CF911F910F910895813099F408E094
:10197000CE0117FF0CC00E94E50BCE010E94CF0BD9
:10198000110FCE010E94C40B015091F7E9CF0E94C4
:10199000DA0BF3CFEF8DF8A16083CE01DF91CF9109
:1019A0001F910F910C94B60BCF93DF93EC01ED8D4B
:1019B000FE8D80819CA989238083CE010E94A30C87
:1019C000ED8DFE8D80819BA9892B8083DF91CF9146
:1019D00008958F929F92AF92BF92CF92DF92EF9233
:1019E000FF920F931F93CF93DF93EC0189AD9AADD4
:1019F000680F791F8BAD9CAD480F591F21503109DD
:101A0000260F371F4901B12CA12CCB01B0E0A0E07B
:101A1000DC0199278827882A992AAA2ABB2A6801E3
:101A200081E0C81AD108C40ED51EF12CE12C70E05B
:101A300060E0BA0155274427C42AD52AE62AF72AA6
:101A40006AE2CE010E94D40CB501A401CE010E942D
:101A5000F00B6BE2CE010E94D40CB701A601CE01BF
:101A60000E94F00B6CE2CE01DF91CF911F910F919C
:101A7000FF90EF90DF90CF90BF90AF909F908F90AE
:101A80000C94D40CFC0185A9811104C091A182A100
:101A90009CBD8DBD08951F93CF93DF93EC01162F4E
:101AA000E881F9810284F385E02D0995112371F015
:101AB0006DADCE010E94D40CE881F9810688F789CA
:101AC000E02DCE01DF91CF911F9109946EADF1CF42
:101AD000AF92BF92CF92DF92EF92FF920F931F933C
:101AE000CF93DF93EC0177FD38C08885998568171F
:101AF00079079CF557FD31C08A859B8548175907A2
:101B000064F569017A015B01E881F9810284F3855A
:101B1000E02DCE010995E881F98102A4F3A5E02D1D
:101B200001E010E021E030E0A701B501CE01099508
:101B3000B601CE010E94620CE881F9810688F7891E
:101B4000E02DCE01DF91CF911F910F91FF90EF908B
:101B5000DF90CF90BF90AF900994DF91CF911F910C
:101B60000F91FF90EF90DF90CF90BF90AF900895CE
:101B70008F929F92AF92BF92CF92DF92EF92FF929D
:101B80000F931F93CF93DF93EC0149015701E88135
:101B9000F98102A4F3A5E02D09959401D8010E94D2
:101BA00012326B017C01C114D104E104F10409F487
:101BB0007DC08DA9811115C081E0C81AD108E10846
:101BC000F1088FEFC816D806E806F80609F46EC0CB
:101BD000BEBC0DB407FEFDCFAEBC0DB407FEFDCFFD
:101BE000EBCF813099F581E0C81AD108E108F108FE
:101BF0008FEFC816D806E806F80609F457C00B2D73
:101C000018E0CE0107FF1CC00E94E50BCE010E9428
:101C1000CF0BCE010E94C40B000F115091F70A2D7B
:101C200018E0CE0107FF0FC00E94E50BCE010E9415
:101C3000CF0BCE010E94C40B000F115091F7D3CFF0
:101C40000E94DA0BE3CF0E94DA0BF0CFBA1016C075
:101C5000CC0CDD1CEE1CFF1CEF8DF8A1B08281E0E6
:101C6000C81AD108E108F1088FEFC816D806E806AF
:101C7000F806E1F0CE010E94B60BF1CF81E0C81A60
:101C8000D108E108F1088FEFC816D806E806F80673
:101C900069F0EF8DF8A1B082CE010E94B60BEF8DF6
:101CA000F8A1A082CE010E94B60BE8CFDF91CF91C0
:101CB0001F910F91FF90EF90DF90CF90BF90AF906A
:101CC0009F908F9008958F929F92AF92BF92CF92E4
:101CD000DF92EF92FF920F931F93CF93DF935C01FC
:101CE0004B016A01E90177FD52C0DC0118968D9124
:101CF0009C91681779070CF04AC0209709F447C0F7
:101D000037FF07C0C9010196C80ED91ED195C195EC
:101D1000D109F50182859385C816D906C4F5A601B7
:101D20004C0F5D1F9A012150310937FD30C0D7FE9D
:101D300003C0EA01D12CC12C281739071CF0EC0193
:101D4000CC19DD09D501ED91FC910284F385E02DDC
:101D5000C501099578018E0121E030E0A601B401AA
:101D6000C5010E94B80DD501ED91FC910688F78957
:101D7000E02DC501DF91CF911F910F91FF90EF9062
:101D8000DF90CF90BF90AF909F908F900994DF919C
:101D9000CF911F910F91FF90EF90DF90CF90BF9068
:101DA000AF909F908F9008958F929F92AF92BF9225
:101DB000CF92DF92EF92FF920F931F93CF93DF9317
:101DC0005C016B014A01E90157FD52C0DC011A9622
:101DD0008D919C91481759070CF04AC0209709F43F
:101DE00047C037FF07C0C9010196C80ED91ED1955B
:101DF000C195D109F50180859185C816D906C4F52C
:101E0000A6014C0F5D1F9A012150310937FD30C0EA
:101E1000D7FE03C0EA01D12CC12C281739071CF0CA
:101E2000EC01CC19DD09D501ED91FC910284F3851B
:101E3000E02DC5010995780101E010E09E01A401A3
:101E4000B601C5010E94B80DD501ED91FC9106883F
:101E5000F789E02DC501DF91CF911F910F91FF9080
:101E6000EF90DF90CF90BF90AF909F908F900994AC
:101E7000DF91CF911F910F91FF90EF90DF90CF9066
:101E8000BF90AF909F908F9008958F929F92AF9246
:101E9000BF92CF92DF92EF92FF920F931F93CF9357
:101EA000DF934C016B015A01E901209709F46CC0E2
:101EB0000115110509F468C037FF07C0C901019673
:101EC000C80ED91ED195C195D109F401A085B1855F
:101ED000CA16DB060CF058C017FF07C0C8010196F0
:101EE000A80EB91E119501951109F40182859385FB
:101EF000A816B9060CF048C0F601EC0FFD1FAF01A3
:101F00004150510957FD40C0B501600F711F9B0141
:101F10002150310937FD38C0D7FE03C0EF01D12C65
:101F2000C12CB7FE03C08B01B12CA12C4A175B0753
:101F30001CF0ED01CC19DD09281739071CF08C01C4
:101F40000A191B09D401ED91FC910284F385E02D5F
:101F5000C40109959E01A501B601C4010E94B80DF6
:101F6000D401ED91FC910688F789E02DC401DF9141
:101F7000CF911F910F91FF90EF90DF90CF90BF9086
:101F8000AF909F908F900994DF91CF911F910F9107
:101F9000FF90EF90DF90CF90BF90AF909F908F9089
:101FA0000895EF92FF920F931F93CF93DF9377FDE6
:101FB00032C0DC011896ED91FC916E177F075CF53D
:101FC0002115310541F137FF07C0F90131964E0F58
:101FD0005F1F319521953109DC011A96ED91FC9135
:101FE0004E175F07C4F4EA01C20FD31FDE01119739
:101FF000B7FD11C057FF03C09E0150E040E0AE178F
:10200000BF071CF09F01241B350B7801890121E0DB
:1020100030E00E94B80DDF91CF911F910F91FF909A
:10202000EF900895EF92FF920F931F93CF93DF935A
:1020300057FD31C0DC011A96ED91FC914E175F07F8
:1020400054F52115310539F137FF07C0F9013196F3
:102050006E0F7F1F319521953109DC011896ED91A6
:10206000FC916E177F07BCF4EB01C20FD31FDE019A
:102070001197B7FD10C077FF03C09E0170E060E0CC
:10208000AE17BF071CF09F01261B370B780101E03C
:1020900010E00E94B80DDF91CF911F910F91FF903A
:1020A000EF9008958F929F92AF92BF92CF92DF925E
:1020B000EF92FF920F931F93CF93DF934701211568
:1020C000310509F44BC00115110509F447C037FF6C
:1020D00007C0F90131966E0F7F1F319521953109A7
:1020E000DC011896AD90BC906A157B05BCF517FF16
:1020F00007C0F80131964E0F5F1F11950195110928
:10210000DC011A96ED91FC914E175F073CF56B01CF
:10211000C20ED31EE6012197D7FD20C07A01E00E42
:10212000F11ED7011197B7FD19C077FF03C09601C3
:1021300070E060E057FF03C0870150E040E0CA153F
:10214000DB051CF09501261B370BAE17BF071CF0F3
:102150008F01041B150B74010E94B80DDF91CF9104
:102160001F910F91FF90EF90DF90CF90BF90AF90B5
:102170009F908F900895EF92FF920F931F93CF93AC
:10218000DF93EC0177FD22C0888599856817790770
:10219000ECF457FD1BC08A859B8548175907B4F49A
:1021A0007901E881F98102A4F3A5E02D01E010E0B6
:1021B00021E030E0CE010995B701CE01DF91CF914A
:1021C0001F910F91FF90EF900C94620CDF91CF91D3
:1021D0001F910F91FF90EF9008952F923F924F9291
:1021E0005F926F927F928F929F92AF92BF92CF92A7
:1021F000DF92EF92FF920F931F93CF93DF937C01B7
:102200006B01EA0181E090E05C01A41AB50A662442
:102210007724641A750A660C771C10E000E08824A5
:102220008394912C822F8470582E822F8270482E96
:10223000822F8870382E2170222E0C171D070CF06B
:1022400079C0B7FC06C0219782E0680E711CA60C0D
:10225000B71C0F5F1F4F82E0880E911CA80CB91CA1
:102260005520C1F02FEF3FEFAE014C0D5D1DB701C2
:10227000600F711F81E293E00E94BB102FEF3FEFD0
:10228000A601400F511FBE016E0D7F1D81E293E03C
:102290000E94BB104420C1F02FEF3FEFA6014C1B62
:1022A0005D0BB701600F711F81E293E00E94BB10CC
:1022B0002FEF3FEFA601401B510BBE016E0D7F1D9E
:1022C00081E293E00E94BB103320C1F02FEF3FEF7B
:1022D000A601400F511FB7016C1B7D0B81E293E0FB
:1022E0000E94BB102FEF3FEFAE014C0D5D1DB701FB
:1022F000601B710B81E293E00E94BB10222009F465
:102300009CCF2FEF3FEFA601401B510BB7016C1B79
:102310007D0B81E293E00E94BB102FEF3FEFA601FF
:102320004C1B5D0BB701601B710B81E293E00E94B7
:10233000BB1083CFDF91CF911F910F91FF90EF9052
:10234000DF90CF90BF90AF909F908F907F906F90D5
:102350005F904F903F902F900895CF93DF93EC01C3
:102360000E94420D8FA987FD06C0EB8DFC8D8081F8
:102370009AA989238083DF91CF9108950895AF9220
:10238000BF92CF92DF92EF92FF920F931F93CF9362
:10239000DF93BC016F5F7F4FFC011491115008F473
:1023A0007AC0FB01D4917B01F2E0EF0EF11CFB013E
:1023B00031960491C02FCF7781E293E00E94420DC5
:1023C0008091580387FD09C0E0913C03F0913D03E3
:1023D00080819091530389238083E0913E03F091A3
:1023E0003F03808190915503892380836D2F81E283
:1023F00093E00E94A30CE0913E03F0913F038081A3
:1024000090915403892B8083F701B12CA12CD0E04B
:10241000AC16BD06F4F4809156036F01823081F44E
:1024200080915103882361F0619171916F0181E284
:1024300093E00E94620CEFEFAE1ABE0AF601E8CFFD
:102440008FEFC81AD80A649181E293E00E94A30C2E
:10245000F2CF8091580387FD09C0E0913C03F091D1
:102460003D03808190915203892B8083B7016C0FCB
:102470007D1F07FF93CFEB012196FB01649170E074
:102480006F3F710511F464EF71E090E080E00E940D
:10249000D80ABE0183CFDF91CF911F910F91FF909A
:1024A000EF90DF90CF90BF90AF9008950F931F9360
:1024B000CF93DF93EC018B010E94420D8FA987FD22
:1024C00006C0EB8DFC8D80819AA989238083ED8DD8
:1024D000FE8D80819CA98923808366E3CE010E94C2
:1024E000A30CED8DFE8D80819BA9892B80838DA906
:1024F000F801823091F06081CE010E94A30C8FA977
:1025000087FD06C0EB8DFC8D808199A9892B808386
:10251000DF91CF911F910F91089588A9882359F3D6
:1025200060817181CE010E94620CE9CFCF93DF936D
:102530001F92CDB7DEB7FC0119826370668BDC0198
:10254000AD5BBF4F2C9130E011968C9190E06230E2
:1025500031F06330C9F0613081F040EC498332AF33
:1025600021AF94AF83AFBE016F5F7F4FCF010E9459
:1025700056120F90DF91CF91089540EA498334AF0E
:1025800023AF92AF81AFEFCF40E6F8CFCF93DF9389
:102590001F92CDB7DEB7FC0119826370668BDC0138
:1025A000AA5BBF4F8C91982F9B7FAF014C5B5F4F15
:1025B000913031F493E0623008F091E0DA019C93BD
:1025C0009F012D5B3F4F623009F44CC0633009F42A
:1025D00059C0613069F1823021F098EC843009F003
:1025E00046C090EC99838130D1F480E890E09387E5
:1025F000828791878087D9018C9190E092AF81AFDB
:10260000DA018C9190E094AF83AFBE016F5F7F4F92
:10261000CF010E9456120F90DF91CF910895843020
:1026200051F580EA90E09387828780E590E0E1CFE2
:10263000823019F098EA843061F590EA998381300C
:1026400091F580E890E09187808793878287D90110
:102650008C9190E094AF83AFDA018C9190E092AFCF
:1026600081AFD3CF823039F08430D9F298E09983AA
:10267000813009F4BACF80EA90E09387828780E8BE
:1026800090E0B7CF823019F098E6843011F490E6EC
:10269000D5CF99838130A9F280EA90E09187808735
:1026A00080E890E0D2CF8430B9F780EA90E091875B
:1026B000808780E590E0C9CFFC0187A987FD06C02F
:1026C000A38DB48D9C9181A9892B8C9308958F92B1
:1026D0009F92AF92BF92CF92DF92EF92FF920F93B1
:1026E0001F93CF93DF934C017B01EA0181E293E0DA
:1026F0000E94AD115E018AE0A81AB108640185E06C
:10270000C80ED11C0FEF1FEF9501A701B60181E2A2
:1027100093E00E941210A701495E5F4F9501B60138
:1027200081E293E00E941210570185E0A80EB11CCF
:102730002EE030E0A501B40181E293E00E94D10FC8
:10274000C80DD91DBE01615071092EE030E0A50110
:1027500081E293E00E94D10F21E045E050E0B50115
:10276000C6010E94ED10269722E045E050E0B50139
:10277000CE010E94ED1082E1E80EF11C24E045E05C
:1027800050E0B701CE010E94ED1028E045E050E096
:10279000B701C6010E94ED1081E293E0DF91CF9175
:1027A0001F910F91FF90EF90DF90CF90BF90AF906F
:1027B0009F908F900C945C130895FC016370668B5E
:1027C0008481958126813781613039F0633029F029
:1027D0009187808733872287089531872087938761
:1027E000828708952F923F924F925F926F927F92CD
:1027F0008F929F92AF92BF92CF92DF92EF92FF9211
:102800000F931F93CF93DF93CDB7DEB76A970FB6C1
:10281000F894DEBF0FBECDBF9A8F898F7A8369830C
:102820004A01D22E18870F833701BC2CDC01599640
:102830002D913C915A972115310509F015C1189633
:102840008D919C911997681779070CF0D7C11A964A
:102850008D919C91481759070CF0D0C14C2C512CEC
:10286000B6E0CB9E600D711D11247C876B87161618
:1028700017060CF0C3C1EA2DF0E0FA87E98793E070
:10288000EE0FFF1F9A95E1F7F88BEF87CF01840FCA
:10289000951F181619060CF0B1C1A98DBA8D58965E
:1028A0008C91811104C0BFEABD1508F4D394A98DA1
:1028B000BA8DED91FC9111970284F385E02DCD0145
:1028C0000995B5E0DB9EC0011124E981FA81FC8302
:1028D000EB83312C212C9C012759394F388F2F8BBA
:1028E0004A2D50E05E8B4D8BEF89F88DE20DF31D84
:1028F00044919E828D82D12CC12C69817A81620D96
:10290000731D7A8B698B842F90E09C8B8B8BE98D68
:10291000FA8DA081B18140FF82C0F1E0BF126FC08B
:10292000AF126DC01C96ED91FC912F813885A401EA
:102930004C0D5D1D69897A89898D9A8D0995EB8980
:10294000FC89F595E7954E2F5FEFC51AD50A6D8185
:102950007E818D899E89680F791F7E836D8398E0C3
:10296000C916D10481F6AFEF2A1A3A0AEB81FC812D
:10297000E40DF51DFC83EB83F5E02F16310409F01F
:10298000B3CF2F81388526153705B9F0A98DBA8DBB
:10299000ED91FC91B1E0BB1257C0AB1255C06981FB
:1029A0007A816B5F7F4F0088F189E02D830128E0F9
:1029B00030E0A401898D9A8D0995A98DBA8DED918C
:1029C000FC9111970688F789E02DCD016A960FB624
:1029D000F894DEBF0FBECDBFDF91CF911F910F9155
:1029E000FF90EF90DF90CF90BF90AF909F908F902F
:1029F0007F906F905F904F903F902F9009941E961C
:102A0000ED91FC91EF80F88409851A8592014D8142
:102A10005E816B817C81898D9A8D099590CF2F8104
:102A200038852615370509F48ACF31E0B31207C07F
:102A3000A31205C01C96ED91FC91930178CF1E96D0
:102A4000ED91FC917301E0CF6B857C85641975096C
:102A50000684F785E02D73010F8518899201A40182
:102A6000898D9A8D0995A9CFF90134969491329761
:102A700045915491D91AB7E0DB9E400D511D1124A8
:102A8000F901259134913C8B2B8BFA0125903490E0
:102A9000FA013296749031963491398B3296649063
:102AA0003196449041E04C1518F04A1508F07FC06B
:102AB000662D062C000C770B7C836B83842D042CF5
:102AC000000C990B9E838D83A98DBA8DED91FC919D
:102AD00011970284F385E02DCD010995512CD12C5D
:102AE000C12CEA2DF0E0FA87E9872B2D30E03C87F6
:102AF0002B87A401440D511D47FC5A95588F4F8BCD
:102B000069817A81660D711D67FC7A957E876D8774
:102B10007989C71608F051CF2C2D30E04D815E81A8
:102B2000420F531FA985BA854A9FC0014B9F900D44
:102B30005A9F900D1124FC01E80DF91DF88BEF87C9
:102B4000852D612C4F89588D420F531F5E8B4D8B05
:102B5000671408F050C044244394480E877041F431
:102B6000C1010196EB89FC89E20DF31DD4901C0193
:102B7000D7FE19C0A98DBA8DED91FC91662D70E03C
:102B8000B1E0BB1219C0AB1217C02D853E85620F94
:102B9000731F0484F585E02D2F8138854D895E896A
:102BA000898D9A8D0995DD0C6394842DD1CF1E8279
:102BB0001D821C821B8288CF4B815C81640F751F34
:102BC000AB85BC856A9FC0016B9F900D7A9F900D6D
:102BD000112469817A81680F791F0684F785E02DB9
:102BE000EF80F88409851A859D014F855889898D64
:102BF0009A8D0995D8CF570CC3948ACF6A960FB691
:102C0000F894DEBF0FBECDBFDF91CF911F910F9122
:102C1000FF90EF90DF90CF90BF90AF909F908F90FC
:102C20007F906F905F904F903F902F9008958F927C
:102C30009F92AF92CF92EF92FF920F931F93CF93F9
:102C4000DF93EC01262F898D9A8D009709F051C0F2
:102C50006A30D1F41D861C868D8948E0849F9001DE
:102C600011248E859F85820F931F9F878E8781E019
:102C700090E0DF91CF911F910F91FF90EF90CF9057
:102C8000AF909F908F9008956D3089F3CC88AD8878
:102C90008F898823C1F08C859D8536E0C39E800D89
:102CA000911D1124488559854817590764F44E85AC
:102CB0005F851D861C8638E0A39EC0011124840F09
:102CC000951F9F878E87EA88FB88088919894E851A
:102CD0005F856C857D85CE010E94F2132C898C85E1
:102CE0009D8546E0249F800D911D11249D878C8732
:102CF000BECF6A3069F41D861C86FC013896E491CB
:102D00002D898E859F85E29F800D911D1124ADCF69
:102D10006D3009F4ACCFFC0134963491631708F49C
:102D2000A6CF3296E491E61708F4A1CFFC013296C3
:102D300085909490462F431B342F47E0349F800C9E
:102D4000911C1124F401329634913196E49133238D
:102D5000A9F1EE2399F1CC88F4013596E491AD8880
:102D60004F89442301F10E2E000CFF0BE30FF11DE0
:102D7000CE9EA001CF9E500D11246C857D85460FFF
:102D8000571F68857985641775076CF44E855F85D4
:102D90001D861C86FC013896E491AE9E400D511DA7
:102DA00011245F874E87EA88FB88088919894E8538
:102DB0005F856C857D85CE010E94F213F401349607
:102DC000E4912C898C859D85E29F800D911D1124B5
:102DD0008DCF6F927F928F929F92AF92BF92CF9240
:102DE000DF92EF92FF920F931F93CF93DF93EC014B
:102DF0006B015A0139014801E881F9810284F385A8
:102E0000E02D0995E881F9810288F389E02D870199
:102E10009301A501B601CE010995A501480D591DE3
:102E200041505109E881F9810288F389E02D93012D
:102E3000B601CE010995E881F9810088F189E02D7C
:102E40009401A501B601CE010995C60CD71CB601A7
:102E500061507109E881F9810088F189E02D9401C0
:102E6000A501CE010995E881F9810688F789E02D51
:102E7000CE01DF91CF911F910F91FF90EF90DF90E6
:102E8000CF90BF90AF909F908F907F906F9009945C
:102E90006F927F928F929F92AF92BF92CF92DF926A
:102EA000EF92FF920F931F93CF93DF935C01EB019F
:102EB0006A01490138018701DC01ED91FC9162173B
:102EC000730719F5641675062CF0962D872D3A01B7
:102ED000C92ED82E9601261937092F5F3F4F048C33
:102EE000F58DE02DA301BE01C5010995DF91CF91BC
:102EF0001F910F91FF90EF90DF90CF90BF90AF9018
:102F00009F908F907F906F9008954615570591F48C
:102F10002617370724F0892D4B01C22FD82F9E0189
:102F2000281939092F5F3F4F068CF78DE02DA60138
:102F3000B401DACF0284F385E02D0995D501ED9136
:102F4000FC910488F589E02D83019401A601BE015E
:102F5000C5010995D501ED91FC910688F789E02D11
:102F6000C501DF91CF911F910F91FF90EF90DF90FE
:102F7000CF90BF90AF909F908F907F906F9009946B
:102F8000EF92FF920F931F93DC011A960D911C9103
:102F90001B9718962D913C911997ED91FC9100A0EB
:102FA000F1A1E02D7B0150E040E070E060E0099588
:102FB0001F910F91FF90EF9008954F925F926F9243
:102FC0007F928F929F92AF92BF92CF92DF92EF92B9
:102FD000FF920F931F93CF93DF936C012B015A0144
:102FE00039014801DC01ED91FC910284F385E02D6B
:102FF0000995E201640C751CD601ED91FC91C61592
:10300000D7055CF40088F189E02D87019401A501C2
:10301000BE01C60109952196EFCF0688F789E02DFC
:10302000C601DF91CF911F910F91FF90EF90DF903C
:10303000CF90BF90AF909F908F907F906F905F9058
:103040004F9009948F929F92AF92BF92CF92DF924E
:10305000EF92FF920F931F93CF93DF93EC015B01ED
:103060004A016901E881F9810284F385E02D09951F
:1030700095012C0D3D1D21503109E881F98104880D
:10308000F589E02D78018401A401B501CE010995EF
:10309000E881F9810688F789E02DCE01DF91CF9193
:1030A0001F910F91FF90EF90DF90CF90BF90AF9066
:1030B0009F908F9009948F929F92AF92BF92CF92E0
:1030C000DF92EF92FF920F931F93CF93DF93EC0168
:1030D0005B014A0169017801E881F9810284F38585
:1030E000E02D0995C80CD91C860101501109E88111
:1030F000F9810488F589E02D9501A401B501CE017F
:103100000995E881F9810688F789E02DCE01DF91E4
:10311000CF911F910F91FF90EF90DF90CF90BF90D4
:10312000AF909F908F900994EF92FF920F931F930F
:10313000DC01ED91FC9100A0F1A1E02D09951F911A
:103140000F91FF90EF9008950F931F93DC01ED9185
:10315000FC91068CF78DE02D09951F910F91089534
:103160000F931F93DC01ED91FC91048CF58DE02D04
:1031700009951F910F910895DC01ED91FC91008458
:10318000F185E02D09942F923F924F925F926F92BA
:103190007F928F929F92AF92BF92CF92DF92EF92E7
:1031A000FF920F931F93CF93DF9300D000D000D0F6
:1031B000CDB7DEB73C016A013E832D83FC82EB82F2
:1031C0005801A41AB50AB7FE03C0B194A194B1087E
:1031D0008D809E80861A970A97FE03C091948194F1
:1031E00091088A149B045CF0902F812F0D811E8121
:1031F0009D838E839C2D8D2D6B01692F782F0C154F
:103200001D055CF09D818E817E836D83692F782FF3
:10321000902F812F8601C92ED82E1601201A310A2F
:103220002B012D813E81421A530A57FE03C051944F
:1032300041945108710137FE03C03FEFE31AF30ACE
:10324000F594E7948D819E81861797075CF5A1E040
:10325000B0E0BA83A983C016D1064CF1D301ED9139
:10326000FC910484F585E02D2B813C81A8016D81C2
:103270007E818A149B041CF04D815E81B801C301DC
:103280000995E418F508F7FE0AC02D813E81898171
:103290009A81280F391F3E832D83E20CF31C0F5FA8
:1032A0001F4FD9CF2FEF3FEF3A832983D4CF2696F4
:1032B0000FB6F894DEBF0FBECDBFDF91CF911F9147
:1032C0000F91FF90EF90DF90CF90BF90AF909F90C5
:1032D0008F907F906F905F904F903F902F900895C8
:1032E000089590E080E0089542E350E060E070E0EF
:1032F0008DE298E00E94400861E470E080E090E098
:103300000E94D80A84E00C94D807AF92BF92CF9263
:10331000DF92EF92FF920F931F93CF93DF93C8E05A
:10332000D1E002E011E088EEA82E83E0B82E69918A
:103330007991C5010E94BD316B01770FEE08FF083E
:10334000B701A601F801819191918F010E94400877
:10335000C701B6010E94863026E636E646EA5FE3FC
:103360000E943B310E944E30072E000C880B990BB7
:103370000E94D80A84E00E94D807F1E0CE30DF072F
:10338000B1F6DF91CF911F910F91FF90EF90DF90F9
:10339000CF90BF90AF900895FC0101900020E9F715
:1033A0003197AF01481B590BBC0181E293E00C94AB
:1033B0004B068F929F92AF92BF920F931F93CF9322
:1033C000DF93CDB7DEB7A1970FB6F894DEBF0FBE7F
:1033D000CDBF19A2423008F44AE08E010F5D1F4FA5
:1033E000842E912CB12CA12CA50194010E94D131E5
:1033F000E62FB901CA01EA30F4F4E05DD801EE939A
:103400008D01232B242B252B79F790E080E010975A
:1034100019F0CD010E94CC19A1960FB6F894DEBF29
:103420000FBECDBFDF91CF911F910F91BF90AF9095
:103430009F908F900895E95CE1CFCF93DF930E9436
:10344000CC19EC018CE691E00E94CC198C0F9D1FE9
:10345000DF91CF9108958F929F92AF92BF92CF92BA
:10346000DF92EF92FF920F931F93CF93DF936B0145
:103470007C01042FAC019B010E94A8318823C1F07C
:103480008FE691E00E94CC19EC018CE691E00E945D
:10349000CC198C0F9D1FDF91CF911F910F91FF9041
:1034A000EF90DF90CF90BF90AF909F908F90089556
:1034B00046015701E894B7F82FEF3FEF4FE75FE77A
:1034C000C501B4010E94A83181110DC02FEF3FEF5B
:1034D0004FE75FE7C501B4010E94D72F18161CF40F
:1034E00083E791E0CFCF2FEF3FEF4FE75FE4C701D6
:1034F000B6010E94363118161CF487E791E0C2CF5E
:103500002FEF3FEF4FE75FECC701B6010E94D72FC7
:1035100087FDF3CF20E030E0A901C701B6010E948A
:10352000D72FD0E0C0E087FF0AC06DE281E293E0D0
:103530000E941716EC01F7FAF094F7F8F094102FA8
:10354000B12C60E070E080E09FE3B01640F420E032
:1035500030E040E251E40E94DC2FB394F6CFA701A3
:1035600096010E946B2F6B017C010E9455304B012C
:103570005C014AE00E94D919C80FD91F002309F441
:1035800084CFC501B4010E9484309B01AC01C70106
:10359000B6010E946A2F6B017C016EE281E293E02A
:1035A0000E941716C80FD91F115008F46ECF20E0E3
:1035B00030E040E251E4C701B6010E943B314B01CB
:1035C0005C010E9455306B01F12CE12C4AE0C701EF
:1035D000B6010E94D919C80FD91FC701B6010E94B0
:1035E00084309B01AC01C501B4010E946A2F6B01BC
:1035F0007C01DACF0E9455321F93CF93DF9385ED84
:103600008093BC008091B6019091B701A091B80160
:10361000B091B9010796A11DB11D23E0B695A795FC
:10362000979587952A95D1F72091BC0024FD03C07A
:103630001092FE0152C04091B6015091B7016091C5
:10364000B8017091B901452B462B472B69F30097C0
:10365000A105B10541F02AE22A95F1F700C00197D2
:10366000A109B109E1CF8091B501C1E0C093B401D6
:10367000882399F1D091B8001091BA008091BC00D4
:103680008A7B8093BC0060E082E10E94AA0760E030
:1036900083E10E94AA071092FE01C09300021092DB
:1036A000FF0161E082E10E94AA0761E083E10E94DC
:1036B000AA078091B9008E7F8093B9008091B900EC
:1036C0008D7F8093B90088E48093B80085E480936F
:1036D000BC001093BA00D093B800DF91CF911F9136
:1036E0000895CF92DF92EF92FF920F931F93CF93A3
:1036F000DF93EC016A017B01C114D104E104F10400
:1037000039F4C12C48E4D42E48EEE42EFF24F3947F
:10371000FE01FF96C082D182E282F38281E28DAF08
:1037200080E28EAF369610818FA987FD07C061E0D9
:103730000E94040861E08FA90E94AA0761E088AD99
:103740000E94040861E088AD0E94AA078DA981113A
:1037500082C040E052E16AE770E0C416D506E60692
:10376000F70640F476956795579547958F5F8630B5
:10377000A1F787E0212F2C702065982F9695922B2A
:1037800099A3809581708AA3812F90E0B0E0A0E09A
:103790008BA39CA3ADA3BEA31FB7F8948091B201E5
:1037A000811127C0E6E3FCE08491E8E1FCE094911C
:1037B000E82FF0E0EE0FFF1FE759F44FA591B49109
:1037C000EC91E92321F461E08AE00E94AA0761E01C
:1037D0008AE00E9404088CB580618CBD8CB5806441
:1037E0008CBD61E08DE00E94040861E08BE00E94E6
:1037F00004088091B2018F5F8093B2011FBF8EA930
:1038000087FD75C061E00E94040861E08EA90E94F6
:10381000AA0764E670E080E090E00E94D80A60E0C9
:103820008EA90E94AA0764E670E080E090E00E9402
:10383000D80A61E08EA90E94AA0768EC70E080E0D7
:1038400090E0DF91CF911F910F91FF90EF90DF906B
:10385000CF900C94D80A0CE21CE0F12C8130B9F422
:1038600061E08AA50E94040860E08AA50E94AA0778
:1038700061E08CA50E94040860E08CA50E94AA0764
:103880008BA587FDBCCF60E00E940408B8CFF8018B
:103890008491E82FF0E0EE0FFF1FEE5DF34F85916E
:1038A00094912F8D38A12817390741F461E08F2DAD
:1038B0000E94040860E08F2D0E94AA07F3940F5F16
:1038C0001F4FF4E1FF12E3CF61E08EA50E940408D0
:1038D00061E08EA50E94AA078FA587FD90CF61E0C9
:1038E0000E94040861E08FA50E94AA0788CFDF919B
:1038F000CF911F910F91FF90EF90DF90CF9008959F
:103900001F920F920FB60F9211242F933F934F9354
:103910005F936F937F938F939F93AF93BF93EF9337
:10392000FF938091770290917802A0917902B091F3
:103930007A02892B8A2B8B2BD1F190917202E09124
:103940007302F091740280818927808380917702CD
:1039500090917802A0917902B0917A021816190616
:103960001A061B069CF48091770290917802A09130
:103970007902B0917A020197A109B1098093770287
:1039800090937802A0937902B0937A02FF91EF911D
:10399000BF91AF919F918F917F916F915F914F9167
:1039A0003F912F910F900FBE0F901F90189580910F
:1039B00001010E94D807EACF1F920F920FB60F9213
:1039C00011242F933F934F935F936F937F938F9324
:1039D0009F93AF93BF93EF93FF9383E892E00E948E
:1039E000C906FF91EF91BF91AF919F918F917F9108
:1039F0006F915F914F913F912F910F900FBE0F905C
:103A00001F9018951F920F920FB60F9211242F93AB
:103A10008F939F93EF93FF93E0919302F091940221
:103A20008081E0919902F0919A0282FD1BC0908101
:103A300080919C028F5F8F7320919D02821741F0CD
:103A4000E0919C02F0E0ED57FD4F958F80939C0232
:103A5000FF91EF919F918F912F910F900FBE0F903B
:103A60001F9018958081F4CF1F920F920FB60F927E
:103A700011242F933F938F939F93AF93BF93809184
:103A8000250290912602A0912702B0912802309140
:103A9000240223E0230F2D3758F50196A11DB11DF7
:103AA000209324028093250290932602A09327025C
:103AB000B09328028091290290912A02A0912B02B2
:103AC000B0912C020196A11DB11D80932902909303
:103AD0002A02A0932B02B0932C02BF91AF919F9129
:103AE0008F913F912F910F900FBE0F901F901895BF
:103AF00026E8230F0296A11DB11DD2CF1F920F926F
:103B00000FB60F9211242F933F934F935F936F93B0
:103B10007F938F939F93AF93BF93EF93FF93809186
:103B2000B900887F803609F44AC0F0F5883209F47C
:103B3000A5C018F5803109F499C0B8F4882309F4B8
:103B4000F5C0883009F492C0FF91EF91BF91AF9119
:103B50009F918F917F916F915F914F913F912F91A5
:103B60000F900FBE0F901F901895883109F486C0F2
:103B7000803251F78093FD0114C0803409F49BC05A
:103B800040F48033B9F38833F9F68093FD0185EC76
:103B9000AEC0803509F483C0883509F494C08834F8
:103BA00099F60E94FC1AD0CF883909F48AC038F5FA
:103BB000883729F050F4883611F0803729F683E0F1
:103BC0008093FE011092FC0155C0883809F479C039
:103BD000803919F0803809F0B7CF8091FC0180322C
:103BE00008F06FC0E091FC0181E08E0F8093FC0132
:103BF0008091BB00F0E0E452FE4F80833BC0803BED
:103C000039F0D0F4803A09F477C0883A09F09CCFB3
:103C100084E08093FE011092DB011092DA01F0E063
:103C2000E0E009958091DA0181110FC081E0809375
:103C3000DA011092BA0109C0803C09F4A8CF883C8F
:103C400009F4A5CF883B09F07FCFE091DB0181E04B
:103C50008E0F8093DB01F0E0E654FE4F808180936D
:103C6000BB009091DB018091DA0129C08091230291
:103C70008093BB0085EC8093BC0066CF90912202BC
:103C800080912102981758F5E091220281E08E0F71
:103C900080932202F0E0EF5FFD4F8081E9CFE09159
:103CA000220281E08E0F809322028091BB00F0E01F
:103CB000EF5FFD4F8083909122028091210298173F
:103CC000C8F285E8D8CFE091220281E08E0F809380
:103CD00022028091BB00F0E0EF5FFD4F8083809176
:103CE000000281115ECF81E08093FF0184EA80931E
:103CF000BC001092FE0128CF85EC8093BC0010928E
:103D0000FE018091FC01803230F4E091FC01F0E092
:103D1000E452FE4F10826091FC0170E08CED91E066
:103D2000F0E0E0E009951092FC010ECF1092FD0149
:103D300038CFE3E8F2E01382128288EE93E0A0E04D
:103D4000B0E084839583A683B7838EE291E091836C
:103D5000808385EC90E09587848784EC90E097875A
:103D6000868780EC90E0918B808B81EC90E0938B48
:103D7000828B82EC90E0958B848B86EC90E0978B25
:103D8000868B118E128E138E148EA1E2B3E01396E1
:103D90001C921E92129720E830E015963C932E93C9
:103DA000149780EA90E017969C938E931697199635
:103DB0003C932E9318971B969C938E931A97569626
:103DC0001C9256971D961C921E921C971F961C9231
:103DD0001E921E9781E055968C93559754968C931E
:103DE00054972FEF3FEF53963C932E935297519653
:103DF0003C932E93509757968C93579758961C92B6
:103E000058975A961C921E925997D5961C92D59700
:103E100088E0D6968C93D6978AE0D7968C93D797DE
:103E200089E0D8968C93D897DA961C921E92D997EF
:103E3000DC961C921E92DB97DD961C92DD97DE9637
:103E40001C92DE971092600310926103109262033D
:103E50001092630380E293E090969C938E935F9719
:103E6000E5E3FCE0E491F0E0EE0FFF1FEE5DF34FC1
:103E7000859194915E969C938E935D97E7E1FCE02B
:103E80008491D3968C93D397E6E3FCE0E491F0E041
:103E9000EE0FFF1FEE5DF34F259134915C963C933E
:103EA0002E935B97E8E1FCE0E491D196EC93D197F7
:103EB000E095D296EC93D297E82FE095D496EC93C8
:103EC000D49710926403109265031092660380E405
:103ED00091E08D939C930895CF93DF93CDB7DEB798
:103EE000A6970FB6F894DEBF0FBECDBF789484B509
:103EF000826084BD84B5816084BD85B5826085BDE6
:103F000085B5816085BD80916E00816080936E0073
:103F10001092810080918100826080938100809165
:103F20008100816080938100809180008160809316
:103F300080008091B10084608093B1008091B000D6
:103F400081608093B00080917A00846080937A00D1
:103F500080917A00826080937A0080917A008160FB
:103F600080937A0080917A00806880937A00109222
:103F7000C100E0919302F091940212E01083E0916D
:103F80008F02F09190021082E0919102F0919202E2
:103F90008FEC808310929B02E0919702F09198023F
:103FA00086E08083E0919502F091960280818061A5
:103FB0008083E0919502F0919602808188608083F1
:103FC000E0919502F0919602808180688083E09173
:103FD0009502F091960280818F7D808362E081E07E
:103FE0000E94040862E082E00E94040861E084E02C
:103FF0000E9404080E94851940E050E0BA0181E265
:1040000093E00E94711B85EB9BE00E94BF1188EA40
:104010009BE00E94BF118DE79BE00E94BF1180ECE6
:104020008983BE016F5F7F4F81E293E00E94561249
:104030001093670360E081E293E00E94C61270E093
:1040400060E081E293E00E94C01761E080E00E949E
:10405000040860E080E00E94AA0761E083E00E941B
:104060000408809180008C7F809380008091810083
:10407000877E80618093810064EF71E080E090E052
:104080000E94680B8091B0008C7F81608093B000AB
:104090008091B10088608093B10010E08EE390E0E1
:1040A000812C64E2962E64EFA62EB12C1F5FE12FC7
:1040B000F0E0EE0FFF1FE25FFE4FE080F180E816B8
:1040C000F906A0F39701A8EEB3E00E941A329B0113
:1040D000AC01C501B4010E94D131C7012F3F3105A8
:1040E00009F020F72093B3008091B100887F17700A
:1040F000182B1093B100DD24D394AA24AA94BA2CCF
:1041000080913A0390913B03892B49F480912F03CE
:104110009091300306969093300380932F0380EFA5
:104120009BE090933B0380933A03D0923803B09284
:104130003203A0923103109234031092330361E0F2
:1041400081E293E00E94C61285E090E090932E03F6
:1041500080932D038DE790E09093300380932F039D
:10416000D0923503D09236038BE791E00E94CC19B0
:1041700080913A0390913B03892B49F080912F0362
:104180009091300306979093300380932F03109201
:104190003B0310923A0305E010E0412C512C320110
:1041A00083E10E949E0ABC01990F880B990B0E9423
:1041B000863020E030E44CE955E40E943B3120E0B9
:1041C00030EC4FE754E40E94DC2F20E030E040E286
:1041D00051E40E94DC2F9B01AC01C301B2010E949B
:1041E0006B2F2B013C0101501109D1F620E030E08A
:1041F00040EA50E40E94DC2F2B013C0120E030E03B
:1042000046E952E40E94363187FD71C261E080E0E8
:104210000E94AA0780E090E0A8E7B7E48F8F98A3F8
:10422000A9A3BAA32DE73FEF47EC52E4C301B201C3
:104230000E94363118160CF063C280E090E0A0E0D6
:10424000B3E48BA39CA3ADA3BEA320E030E040E287
:1042500051E4C301B2010E94D72F87FF56C286E8FE
:1042600090E090932E0380932D03A7E7B0E0B093E6
:104270003003A0932F0382E991E00E94CC19B09201
:104280003203A09231036F8D78A189A19AA10E9477
:1042900055307093340360933303D0923503D0923A
:1042A00036036BA17CA18DA19EA10E944E3070931C
:1042B0002E0360932D0387E790E090933003809363
:1042C0002F0350E040E0C301B2010E942B1A81E9A4
:1042D00090E090932E0380932D03A7E7B0E0B09376
:1042E0003003A0932F038BE891E00E941D1A81E018
:1042F0000E948107909342028093410220913F02E5
:10430000309140022130310509F016C2892B71F439
:104310000E940B0B60933B0270933C0280933D0222
:1043200090933E02D0923A021092390280913A0262
:10433000882341F180913902811124C00E940B0B26
:1043400000913B0210913C0220913D0230913E02CF
:10435000601B710B820B930B693E734081059105C5
:104360008CF08091700290917102049759F40E9430
:104370008519D0920001809137028D2580933702F4
:10438000D092390280914102909142029093400272
:1043900080933F0282E00E948107909336028093CF
:1043A000350220913302309134022130310509F079
:1043B00092C2892B71F40E940B0B60932F027093B1
:1043C00030028093310290933202D0922E021092EA
:1043D0002D02009170021091710280912E028823AB
:1043E00039F180912D02811123C00E940B0B409066
:1043F0002F025090300260903102709032026419A6
:10440000750986099709693E73408105910584F015
:104410000430110511F00C94D42C0E948519D0920F
:104420000001809138028D2580933802D0922D02B0
:10443000809135029091360290933402809333023A
:104440000430110509F47DC634EFE32EFF24F39404
:10445000412C512C32018EE00E949E0ABC01990F22
:10446000880B990B0E9486302AE038E240EA5BE331
:104470000E943B31209156023091570240915802E0
:10448000509159020E946A2F20915202309153029A
:1044900040915402509155020E94DC2F9B01AC01C7
:1044A000C301B2010E946B2F2B013C0181E0E81A8D
:1044B000F10889F620E030E04AEF53E4C301B2018D
:1044C0000E94DC2F1B012C0120E030E0A9010E949A
:1044D000D72F87FF03C0212C312C210180913A0373
:1044E00090913B03892B49F080912F0390913003E9
:1044F00006979093300380932F0310923B03109202
:104500003A030115110509F0BAC286EB93EFA5E253
:10451000B0E48093560290935702A0935802B09350
:10452000590288E791EDA7E9BDE380935202909389
:104530005302A0935402B093550260E085E00E94BC
:10454000AA0760E086E00E94AA0760E087E00E9478
:10455000AA0760904E0270904F0280905002909097
:1045600051022DE73FEF47EC52E4C401B3010E9432
:104570003631EE24E394F12C181684F027EE3BEF4D
:104580004FE151E4C401B3010E94363122E0E22E32
:10459000F12C18161CF083E0E82EF12C20E030E01E
:1045A00040E051E4C401B3010E94363100E018EF4D
:1045B00087FF02C010E000E061E081E293E00E942A
:1045C000C612D0923803B0923203A09231031093F6
:1045D00034030093330382E08093350380933603E2
:1045E00042E650E068E270E085E090E00E946713E8
:1045F00020924E0230924F0240925002509251024D
:1046000088E290E090932E0380932D030DE2602EBC
:10461000712C7092300360922F038E010F5F1F4F39
:1046200024E042E0C201B1010E94DE2C60914E0202
:1046300070914F028091500290915102A7010E9407
:104640002B1A8AE090E090932E0380932D037092B2
:10465000300360922F0384E991E00E941D1A80913B
:104660003A0390913B03892B49F080912F0390915D
:10467000300306979093300380932F0310923B03EF
:1046800010923A038091700290917102009709F0A4
:1046900052C28FE090E090934D0280934C02809143
:1046A000600290916102A0916202B09163028093D6
:1046B0005C0290935D02A0935E02B0935F02F09063
:1046C0004B020091490210914A0293E19F1508F4B0
:1046D0006FC280914C020E949E0A800F911F90939E
:1046E0004A0280934902F394F0924B02E8CF60E0D3
:1046F00080E00E94AA071F8E18A219A21AA292CDCA
:1047000080E090E0A6E0B3E49CCD20E030E048EC0F
:1047100052E4C301B2010E94D72F87FFB0CD80E8D9
:1047200090E090932E0380932D03E7E7F0E0F09361
:104730003003E0932F039FCD232B09F0F7CD019792
:1047400009F0F4CD10923A020E940B0B00913B024B
:1047500010913C0220913D0230913E02601B710B92
:10476000820B930B683E7340810591050CF00ACED5
:10477000D09200010E94741940906C0250906D021A
:1047800060906E0270906F0220E030E040E251E4F1
:10479000C301B2010E94D72F882351F020E030E0FE
:1047A00048EC52E4C301B2010E94D72F811115C019
:1047B00082E0809335038093360389E690E09093FE
:1047C0002E0380932D038DE290E09093300380932D
:1047D0002F038FE891E00E941D1A409064025090D0
:1047E0006502609066027090670220E030E040E26F
:1047F00051E4C301B2010E94D72F882351F020E079
:1048000030E048EC52E4C301B2010E94D72F81117D
:1048100015C082E0809335038093360389E690E0EB
:1048200090932E0380932D038BE490E090933003BC
:1048300080932F038EE891E00E941D1A8091380228
:10484000882371F18091370220E030E040E85FE397
:10485000882399F0609164027091650280916602EC
:10486000909167020E946B2F6093640270936502BF
:10487000809366029093670259CD60916C027091AB
:104880006D0280916E0290916F020E946B2F609377
:104890006C0270936D0280936E0290936F0246CD0E
:1048A00080917002909171020196909371028093B1
:1048B000700270E060E081E293E00E94C017809196
:1048C00070029091710205970CF430CD1092710234
:1048D000109270022BCD232B09F07BCD019709F0AC
:1048E00078CD10922E020E940B0B00912F02109196
:1048F00030022091310230913202601B710B820B29
:10490000930B0091700210917102683E7340810513
:1049100091050CF08DCDD09200010E947419409049
:104920006C0250906D0260906E0270906F0220E0F9
:1049300030E040E251E4C301B2010E94D72F882346
:1049400051F020E030E048EC52E4C301B2010E9493
:10495000D72F811115C082E08093350380933603F1
:1049600089E690E090932E0380932D038DE290E0F2
:104970009093300380932F038FE891E00E941D1ADB
:1049800040906402509065026090660270906702E9
:1049900020E030E040E251E4C301B2010E94D72F91
:1049A000882351F020E030E048EC52E4C301B2012A
:1049B0000E94D72F811115C082E080933503809328
:1049C000360389E690E090932E0380932D038BE4C9
:1049D00090E09093300380932F038EE891E00E9443
:1049E0001D1A80913802882371F18091370220E0EE
:1049F00030E040E85FE3882399F0609164027091B1
:104A0000650280916602909167020E946A2F60930E
:104A10006402709365028093660290936702D9CC1A
:104A200060916C0270916D0280916E0290916F02A4
:104A30000E946A2F60936C0270936D0280936E02E5
:104A400090936F02C6CC8091700290917102019791
:104A5000909371028093700270E060E081E293E0D5
:104A60000E94C017809170029091710297FFB1CCA3
:104A700084E090E09093710280937002AACC0130A0
:104A80001105D1F482EA95E4A6E2B0E480935602DF
:104A900090935702A0935802B093590288E791ED82
:104AA000A7E9BDE38093520290935302A09354026E
:104AB000B093550261E042CD02301105F1F484E576
:104AC00093EEA5E2B0E48093560290935702A09330
:104AD0005802B093590288E791EDA7E9BDE38093AE
:104AE000520290935302A0935402B093550260E097
:104AF00085E00E94AA0761E025CD0330110509F089
:104B000028CD87E197EBA5E2B0E48093560290931D
:104B10005702A0935802B093590288E791EDA7E994
:104B2000BDE38093520290935302A0935402B0933A
:104B3000550261E0DDCF81309105E9F480E190E03C
:104B400090934D0280934C022CEE31E548E55FE3F3
:104B500060916002709161028091620290916302A3
:104B60000E94DC2F60935C0270935D0280935E0272
:104B700090935F02A4CD8230910559F481E190E0D9
:104B800090934D0280934C0228EF33E543EA5EE3B5
:104B9000DFCF0397029708F092CD82E190E09093E7
:104BA0004D0280934C0221EE38E249EB5DE3D0CF19
:104BB000B801110F880B990B0E94863020E030E07D
:104BC00040EA51E40E94DC2F20E030E040EA50E46B
:104BD0000E943B3120E030E040E85AE30E943B3144
:104BE000609360027093610280936202909363020B
:104BF00010924B0210924A021092490240905C02BD
:104C000050905D0260905E0270905F022DE73FEF72
:104C100047EC52E4C301B2010E94363118160CF081
:104C200071C281E090E090935B0280935A0220E091
:104C300030E048EC51E4C301B2010E94363100E09B
:104C400018EF87FF02C010E000E061E081E293E02E
:104C50000E94C612D0923803B0923203A092310360
:104C6000109334030093330382E0809335038093E1
:104C7000360342E650E06AE070E085E090E00E9492
:104C8000671388E290E090932E0380932D031FE03A
:104C9000E12EF12CF0923003E0922F0360915C0240
:104CA00070915D0280915E0290915F028E010F5FB4
:104CB0001F4F24E042E00E94DE2C40915A025091A6
:104CC0005B0260915C0270915D0280915E02909146
:104CD0005F020E942B1A8AE090E090932E0380934B
:104CE0002D03F0923003E0922F0387E991E00E94B8
:104CF0001D1A80913A0390913B03892B49F08091D2
:104D00002F039091300306979093300380932F03E5
:104D100010923B0310923A0320914E0230914F02C1
:104D2000409150025091510260915C0270915D027D
:104D300080915E0290915F020E943B312B013C0109
:104D40004092450250924602609247027092480299
:104D50002DE73FEF47EC52E40E943631EE24E39416
:104D6000F12C181684F027EE3BEF4FE151E4C3011C
:104D7000B2010E943631B2E0EB2EF12C18161CF075
:104D8000F3E0EF2EF12C20E030E048EC52E4C301D8
:104D9000B2010E94363100E018EF87FF02C010E038
:104DA00000E061E081E293E00E94C612D0923803F5
:104DB000B0923203A0923103109334030093330373
:104DC00082E0809335038093360342E650E066E448
:104DD00070E085E090E00E94671388E290E0909395
:104DE0002E0380932D03EBE48E2E912C90923003B2
:104DF00080922F0360914502709146028091470294
:104E0000909148028E010F5F1F4F24E043E00E9403
:104E1000DE2C60914502709146028091470290918C
:104E20004802A7010E942B1A8AE090E090932E037B
:104E300080932D039092300380922F038AE991E0B2
:104E40000E941D1A61E081E293E00E94C61227EDE4
:104E500033EA40E350E460915C0270915D0280911E
:104E60005E0290915F020E943B310E944E30209181
:104E70004302309144022B3531050CF453C121E03B
:104E800030E0309344022093430200271127061B91
:104E9000170BE12C78EFF72E27E030E04CE550E0DF
:104EA0006DE670E081E293E00E94450F00914302BD
:104EB00010914402F12CE12C27E030E04AE050E070
:104EC0006DE670E081E293E00E94450F61E081E2CF
:104ED00093E00E94C6122DEC3CEC44E051E460915A
:104EE0004E0270914F0280915002909151020E94A7
:104EF0003B310E944E3020914302309144022B35C9
:104F000031050CF414C121E030E0309344022093C9
:104F1000430200271127061B170BE12C68EFF62E22
:104F200027E030E04CE550E060E870E081E293E09B
:104F30000E94450F0091430210914402F12CE12C94
:104F400027E030E04AE050E060E870E081E293E082
:104F50000E94450F61E081E293E00E94C61227EEB5
:104F60003BEF49EA5EE36091450270914602809111
:104F70004702909148020E943B310E944E3020919E
:104F80004302309144022B3531050CF4D5C021E0A9
:104F900030E0309344022093430200271127061B80
:104FA000170BE12C48EFF42E27E030E04CE550E001
:104FB00063E970E081E293E00E94450F00914302B3
:104FC00010914402F12CE12C27E030E04AE050E05F
:104FD00063E970E081E293E00E94450F61E081E2C5
:104FE00093E00E94C612B0923203A0923103109255
:104FF000340310923303EE24EA94FE2C05E510E00E
:1050000029E030E049E050E06CE670E081E293E0B6
:105010000E94E91629E030E049E050E06FE770E0D7
:1050200081E293E00E94E91629E030E049E050E097
:1050300062E970E081E293E00E94E91610923B037E
:1050400010923A038EE690E090932E0380932D0306
:1050500003E610E01093300300932F03B092320365
:10506000A09231031092340310923303D09235038F
:10507000D09236038DE991E00E941D1A81E890E0FC
:1050800090932E0380932D031093300300932F03EE
:10509000B0923203A0923103109234031092330382
:1050A000D0923503D09236038FE991E00E941D1A09
:1050B00084E990E090932E0380932D0310933003A6
:1050C00000932F03B0923203A09231031092340365
:1050D00010923303D0923503D092360381EA91E0E7
:1050E0000E941D1A80E090E0892B11F40C9480201E
:1050F0000E94B506882311F40C947B200E940000C6
:105100000C947B2027EE3BEF4FE151E4C301B20149
:105110000E94363118161CF482E090E084CD83E0C2
:1051200090E081CD23E530E0261B370BAACE23E5A6
:1051300030E0261B370BE9CE23E530E0261B370B8A
:1051400028CF60916C0270916D0280916E029091F7
:105150006F020E9455302B013C010CEF1BE0F8015F
:105160008491823009F0FBC2D301C2014F97A1099B
:10517000B10982369448AE41B105D0F5AEEFB1E049
:10518000A30192010E9430329B01AC0160E074E205
:1051900084EF90E00E94D131C901440C551C661C7B
:1051A000771CC12CC394EC2DF0E0EE0FFF1FE25EE4
:1051B000FE4FE080F180E816F906A0F3D701A301C5
:1051C00092010E9430329B01AC0160E074E284EFF6
:1051D00090E00E94D131C7012F3F310509F010F74F
:1051E00027BD95B5987F2C2D2770C22EC92AC5BC26
:1051F000609168027091690280916A0290916B02DD
:105200000E945530F62E61E083E00E940408F11000
:1052100006C360E083E00E94AA07409064025090B9
:105220006502609066027090670223E333E343E215
:1052300050E4C301B2010E943B3160936802709355
:10524000690280936A0290936B0220E030E048ECA0
:1052500052E460916C0270916D0280916E029091A7
:105260006F020E943631181644F410926C021092AC
:105270006D0210926E0210926F0220E030E0A901E0
:1052800060916C0270916D0280916E0290916F023C
:105290000E94D72F87FF0CC080E090E0A8ECB2E41A
:1052A00080936C0290936D02A0936E02B0936F0294
:1052B00020E030E048EC52E4C301B2010E943631F4
:1052C000181644F41092640210926502109266025D
:1052D0001092670220E030E0A901609164027091B1
:1052E000650280916602909167020E94D72F87FF26
:1052F0000CC080E090E0A8ECB2E48093640290934C
:105300006502A0936602B09367028091700290914B
:1053100071020497B1F426ED3FEF49EB5DE3609134
:1053200060027091610280916202909163020E941A
:10533000DC2F60935C0270935D0280935E02909319
:105340005F02E4E1FE2E10E000E082E10E949E0A8E
:10535000080F191FFA94F110F8CFB801110F880B3C
:10536000990B0E94863020E030E040EA51E40E9430
:10537000DC2F20E030E040EA50E40E943B3120E0A6
:1053800030EC4FE754E40E94DC2F6093600270938E
:105390006102809362029093630240905C0250909D
:1053A0005D0260905E0270905F022DE73FEF47EC78
:1053B00052E4C301B2010E94363118160CF087C2C4
:1053C00010925B0210925A0261E081E293E00E9427
:1053D000C612B0923203A09231031092340310929D
:1053E0003303D092380382E08093350380933603F1
:1053F00080913A0390913B03892B49F080912F03D0
:105400009091300306979093300380932F0310926E
:105410003B0310923A034CE250E06AE070E08AE00D
:1054200090E00E9467130FE010E010932E030093AA
:105430002D031093300300932F0383EA91E00E9421
:105440001D1A45E550E06AE070E086E490E00E94B5
:1054500067135BE4E52EF12CF0922E03E0922D030E
:105460001093300300932F0387E991E00E941D1AE7
:1054700069E6462E512C50922E0340922D03109334
:10548000300300932F0360915C0270915D02809164
:105490005E0290915F028E010B5E1F4F24E042E09E
:1054A0000E94DE2C40915A0250915B0260915C0296
:1054B00070915D0280915E0290915F020E942B1AB2
:1054C00045E550E068E270E086E490E00E946713F2
:1054D000F0922E03E0922D037DE2672E712C7092E4
:1054E000300360922F0387EA91E00E941D1A5092C8
:1054F0002E0340922D037092300360922F0360912F
:105500006C0270916D0280916E0290916F020A5050
:10551000110924E042E00E94DE2C60916C0270913F
:105520006D0280916E0290916F0250E040E00E9407
:105530002B1A45E550E066E470E086E490E00E94B6
:105540006713F0922E03E0922D03F0923003E09265
:105550002F038AEA91E00E941D1A50922E03409276
:105560002D03F0923003E0922F036091640270915A
:10557000650280916602909167020A50110924E049
:1055800042E00E94DE2C609164027091650280917D
:1055900066029091670250E040E00E942B1A8CE86E
:1055A00090E090932E0380932D03F0923003E092CD
:1055B0002F038DEA91E00E941D1AD0923503D092FC
:1055C00036038DE890E090932E0380932D0384E3BF
:1055D00090E09093300380932F038FEA91E00E9434
:1055E0001D1A80910001882309F497C082E08093FE
:1055F00035038093360305E010E010932E030093EB
:105600002D037092300360922F038EE891E00E9488
:105610001D1A10932E0300932D0382E390E09093C4
:10562000300380932F038EE891E00E941D1A10939F
:105630002E0300932D038CE390E09093300380932E
:105640002F038EE891E00E941D1A10932E03009301
:105650002D0386E490E09093300380932F038EE82F
:1056600091E00E941D1A10932E0300932D0380E5F4
:1056700090E09093300380932F038EE891E00E9496
:105680001D1A10932E0300932D038AE590E090934A
:10569000300380932F038EE891E00E941D1A4AE0A8
:1056A000642E712CE12C38EFF32E0BE010E02BE090
:1056B00030E04BE250E0B30181E293E00E94E91652
:1056C0002BE030E045E350E0B30181E293E00E943B
:1056D000E9162BE030E04FE350E0B30181E293E0C4
:1056E0000E94E9162BE030E049E450E0B30181E28A
:1056F00093E00E94E9162BE030E043E550E0B3016F
:1057000081E293E00E94E916FAE06F0E711C2CE32F
:105710006216710439F610920001409064025090B4
:105720006502609066027090670220E030E0A90197
:10573000C301B2010E94D72F8111DDC020EEE22EFD
:1057400027E0F22E03E510E022E330E043E550E0ED
:1057500064E170E081E293E00E944817C3CC9DEFC2
:10576000980F923080F4D301C2010197A109B109C9
:1057700080389448AE41B10508F03ACDC301B2017A
:105780000E94680B35CD883009F032CDD301C201BB
:105790004F97A109B10982369448AE41B10508F08E
:1057A00027CDAEEFB1E0A30192010E9430329B0100
:1057B000AC0160E074E284EF90E00E94D131C90155
:1057C000440C551C661C771CC12CC394EC2DF0E0D6
:1057D000EE0FFF1FE25FFE4FE080F180E816F90652
:1057E000A0F3D701A30192010E9430329B01AC01CA
:1057F00060E074E284EF90E00E94D131C7012F3F56
:10580000310509F010F72093B3009091B100987F13
:105810002C2D2770C22EC92AC092B100E9CC8FEF7F
:10582000F81202C061E0F6CCF8010491033049F1AE
:1058300028F4023091F0F7FEECCCF4CF0430D9F12B
:105840000830C9F78091B00080628093B000A091C9
:10585000B300B0E004EB10E007C084B5806284BD03
:10586000A7B5B0E008E410E02F2D30E00E941A3216
:105870002FEF30E040E050E00E94D131F80120836A
:10588000CCCC80918000806880938000A0918600BD
:10589000B091870008E810E02F2D30E00E941A3206
:1058A0002FEF30E040E050E00E94D131D801119656
:1058B0003C932E93B2CC80918000806280938000D4
:1058C000A0918600B09187000AE810E0E5CF27EEAE
:1058D0003BEF4FE151E4C301B2010E94363118168B
:1058E0003CF481E090E090935B0280935A026CCD8F
:1058F00082E090E0F8CF20E030E048EC52E4C301D1
:10590000B2010E94D72F81110BC090EEE92E97E0D3
:10591000F92E05E310E022E330E045E350E018CF34
:105920002AE939E949E95EE3C301B2010E943B314A
:1059300020E030E040EA51E40E946B2F0E944E309C
:105940002B0180EEE82E87E0F82E05E310E024E13D
:1059500030E043E550E064E170E081E293E00E94D2
:10596000481722E330E043E550E062E370E081E273
:1059700093E00E944817920145E350E064E170E033
:1059800081E293E00E94481703E510E0920145E3AD
:1059900050E0B20181E293E00E94481722E330E038
:1059A00043E550E0B201D6CE8091350290913602A7
:1059B00090933402809333020C942422EF920F933D
:1059C0001F93CF93DF93E80134E047FD34E1042EC9
:1059D000000C550B57FF03C0519541955109E32E1B
:1059E000022F242FAE010E94FC2CCE01DF91CF911B
:1059F0001F910F91EF900895A9E0B0E0E2E0FDE281
:105A00000C94392F6A01F22EB02E102FFBE3AF2E2B
:105A1000A01608F41BE31F5F012F27E0AE014F5FC4
:105A20005F4F0E945B2EBC018981982F9970913045
:105A300009F43FC09BE2E1FC04C09E2D9170E0FCA4
:105A40003AC05E2D5071E82FE87083FF46C084E0B5
:105A5000911101C083E0EF2DE81B8F1508F0E0E005
:105A6000D6018E2F20E2552351F1992329F0D6013A
:105A70009C93C60101966C0196012D5F3F4FE2FE9B
:105A800024C08EE4D6018C9391E411969C931197D7
:105A900012968C93D9018E2F90E281111BC0E20FD8
:105AA000F32FF11D10828EEF9FEF2996ECE00C94FE
:105AB000552F9DE2C6CF90E2C4CF2D938150811126
:105AC000FCCFCE0ED11CE0E0D0CF8EE6D6018C9379
:105AD00091E6DBCF9D938150E0CF482F447082FF49
