:100000000C9421060C9449060C9449060C9449065C
:100010000C9449060C9449060C9449060C94B11BA7
:100020000C9449060C9449060C9449060C94490614
:100030000C9449060C9449060C9449060C94490604
:100040000C94651C0C9449060C94331C0C940D1CE8
:100050000C9449060C9449060C9449060C944906E4
:100060000C94AF1C0C94490600407A10F35A00A07F
:10007000724E18090010A5D4E80000E87648170071
:1000800000E40B54020000CA9A3B000000E1F505B1
:10009000000080969800000040420F000000A086FB
:1000A00001000000102700000000E803000000002D
:1000B0006400000000000A000000000001000000D1
:1000C00000002C76D888DC674F0823DFC1DFAE59EB
:1000D000E1B1B796E5E3E453C63AE651997696E87E
:1000E000E6C28426EB898C9B62ED407C6FFCEFBC02
:1000F0009C9F40F2BAA56FA5F490055A2AF75C932D
:100100006B6CF9676DC11BFCE0E40D47FEF520E662
:10011000B500D0ED902E0300943577050080841E45
:10012000080000204E0A000000C80C333333330FA0
:10013000986E12831141EF8D2114893BE65516CF3D
:10014000FEE6DB18D1844B381BF77C1D901DA4BB49
:10015000E424203284725E228100C9F124ECA1E5FE
:100160003D2700000101040000010005090300F81B
:10017000070007030702F80A0007080701F8110043
:1001800007090600F8190008090901F82200070903
:100190000700F82A0003030402F82C00060C0400F0
:1001A000F63500050C0400F63D0006050803F6418F
:1001B0000005060601F9450003030400FF4700049B
:1001C000010501FC48000201030000490007090580
:1001D00000F8510007090600F8590004090401F865
:1001E0005E0007090600F8660007090600F86E00C1
:1001F00006090601F8750007090600F87D000709E1
:100200000600F8850007090500F88D0007090600BB
:10021000F8950007090600F89D0003050300FC9F00
:100220000004060400FCA20006050601FAA600056B
:10023000040501FAA90005050601FAAD0006090644
:1002400001F8B40007090600F8BC0007090600F829
:10025000C40007090600F8CC0007090600F8D4001E
:1002600007090600F8DC0007090500F8E4000709A3
:100270000500F8EC0007090600F8F400070906007D
:10028000F8FC0005090300F8020105090400F8085C
:100290000107090600F8100105090500F816010913
:1002A000090700F8210108090700F82A01070906D3
:1002B00000F8320107090600F83A01070A0600F8BB
:1002C000430107090600F84B0107090600F853012E
:1002D00006090601F85A0107090600F86201060935
:1002E0000601F869010A090900F875010709060005
:1002F000F87D0106090601F8840107090500F88C5C
:1003000001060C0400F6950103090502F89901069F
:100310000C0400F6A20104020603F5A3010601077E
:10032000FF02A40104020503F5A50107080600F970
:10033000AC0107080600F9B30107080600F9BA0185
:1003400007080600F9C10106080500F9C7010608FB
:100350000500F9CD0107080600F9D40107080600D9
:10036000F9DB0104080300F9DF0105080400F9E4E2
:100370000107080600F9EB0104080500F9EF010880
:10038000080700F9F70108080700F9FF0107080648
:1003900000F9060207080600F90D0207090600F930
:1003A000150207080600F91C0207080600F92302D7
:1003B00006080601F9290207080600F930020608B6
:1003C0000601F936020A080900F94002070806008A
:1003D000F9470206080601F94D0206080500F9531F
:1003E00002060C0500F65C02050C0300F66402052B
:1003F0000C0500F66C0205030603F400318C66312F
:1004000080C06C9A403679FB66DFB66C0C7CD9876D
:10041000C19E7C703E6E7C7CFF1B3B3A7E1E6CF95D
:10042000E3ED9E6CF86A0018C30C318618630C303B
:1004300018C63318C663198019FFDE78318DF6307F
:100440006F00F0C00C1860C3061830C01E6CF9E6CF
:10045000CD9E7CF8737666CCC03E6C3861C71C704C
:10046000F81E6C3061819E7CF86DB7FEDBE30C30CA
:100470003E60C3E0C19E7CF81E6CC1E6CD9E7CF858
:100480003C1870C3061830C01E6CF1E38D9E6CF8EA
:100490003E6CFB67C39E6CF8600C30006C19CE1884
:1004A000307801E07186EE003DB186798C00C01E87
:1004B0006CF1E6CF9870F81E6CF9E7CD9E6CD83ED3
:1004C0006CF1E78D9E6CF81E6CC1860C187CF83EB2
:1004D0006CF9E6CD9E7CF83C60C1878C1860F03CDE
:1004E00060C1878C1860C01E6CC186CD9E7CF836BA
:1004F0006CD9E7CD9E6CD8318C663198C018CE632C
:10050000198CE0366CD9E78D9E6CD8318C66319CA5
:10051000F03B1F8FC7E6E3319998CC003B3E3E3E4F
:100520007E7C7CDCDC1E6CF9E6CD9E7CF83E6CF1BA
:10053000E7CC1860C01E6CF1E6CD9E7CF0C03E6C2E
:10054000F1E78D9E6CD81E6CC187C19E7CF87CC380
:100550000C318618C0366CD9E6CD9E7CF86DB7DEBE
:10056000DB6F38E036CDE378F66D9BC7B3ECFE0069
:10057000366CD9E38D9E6CD86DB7DEF98618E03CF9
:100580001870C3061870F018C30C318618630C304D
:10059000DB6DB6C018618630C30C6186307FFC63AA
:1005A0003C79B3E7CF366C3E79B3C78F36783E7966
:1005B000B3060F3E7C3C79B366CF3E7C3CC61E61E1
:1005C0008C3C3CC61E618C303E79B367CF3E7C3696
:1005D00079B3E7CF366C336666CC198C63319C36C1
:1005E00079B3C78F366C337666EF33377F7E7E768E
:1005F000CCCC3636767E7C7CDCDC3C79B366CF3E78
:100600007C3E79B3E60C30603E79B366CF3E7860CD
:100610003E79B3C78F366C3E7983E1CF367C7CC39D
:100620001C6186303679F366CF3E7C6DEDB6F3CE35
:1006300038378F67D9B66F1ECFB3F83679B1C78F09
:10064000366C6DE7B6F186303C318C318C3C0C61F8
:100650008630C60C618638198C63318C66318018FF
:10066000C63318666319801FF000000000003E5B6F
:100670004F5B3E3E6B4F6B3E1C3E7C3E1C183C7EEF
:100680003C181C577D571C1C5E7F5E1C00183C18D4
:1006900000FFE7C3E7FF0018241800FFE7DBE7FFD0
:1006A00030483A060E2629792926407F050507405D
:1006B0007F05253F5A3CE73C5A7F3E1C1C08081C1E
:1006C0001C3E7F14227F22145F5F005F5F06097F5C
:1006D000017F006689956A606060606094A2FFA2F5
:1006E0009408047E040810207E201008082A1C08A4
:1006F000081C2A08081E101010100C1E0C1E0C30AE
:10070000383E3830060E3E0E0600000000000000A5
:100710005F00000007000700147F147F14242A7F65
:100720002A12231308646236495620500008070332
:1007300000001C2241000041221C002A1C7F1C2AB0
:1007400008083E0808008070300008080808080003
:100750000060600020100804023E5149453E0042FE
:100760007F400072494949462141494D33181412CE
:100770007F1027454545393C4A49493141211109F6
:10078000073649494936464949291E0000140000E8
:100790000040340000000814224114141414140002
:1007A0004122140802015909063E415D594E7C124E
:1007B00011127C7F494949363E414141227F4141E6
:1007C000413E7F494949417F090909013E41415163
:1007D000737F0808087F00417F41002040413F01AE
:1007E0007F081422417F404040407F021C027F7FEF
:1007F0000408107F3E4141413E7F090909063E4100
:1008000051215E7F09192946264949493203017F52
:1008100001033F4040403F1F2040201F3F403840E1
:100820003F631408146303047804036159494D437A
:10083000007F4141410204081020004141417F04F2
:1008400002010204404040404000030708002054D9
:100850005478407F28444438384444442838444439
:10086000287F385454541800087E090218A4A49C08
:10087000787F0804047800447D40002040403D001B
:100880007F1028440000417F40007C047804787C7D
:10089000080404783844444438FC182424181824E4
:1008A0002418FC7C08040408485454542404043FCD
:1008B00044243C4040207C1C2040201C3C403040D4
:1008C0003C44281028444C9090907C4464544C4400
:1008D00000083641000000770000004136080002A1
:1008E000010204023C2623263C1EA1A161123A40CB
:1008F00040207A3854545559215555794122545441
:100900007842215554784020545579400C1E52723B
:100910001239555555593954545459395554545818
:100920000000457C410002457D420001457C407D40
:100930001211127DF0282528F07C545545002054D2
:10094000547C547C0A097F4932494949323A44442B
:10095000443A324A4848303A4141217A3A424020AA
:1009600078009DA0A07D3D4242423D3D4040403D3B
:100970003C24FF2424487E4943662B2FFC2F2BFF69
:100980000929F620C0887E090320545479410000CB
:10099000447D413048484A32384040227A007A0A41
:1009A0000A727D0D19317D2629292F28262929290A
:1009B0002630484D4020380808080808080808383C
:1009C0002F10C8ACBA2F102834FA00007B000008A2
:1009D000142A142222142A14085500550055AA5529
:1009E000AA55AAFF55FF55FF000000FF0010101088
:1009F000FF00141414FF001010FF00FF1010F0107F
:100A0000F0141414FC001414F700FF0000FF00FFA2
:100A10001414F404FC141417101F10101F101F14CA
:100A200014141F00101010F0000000001F10101010
:100A3000101F10101010F010000000FF1010101008
:100A40001010101010FF10000000FF140000FF0035
:100A5000FF00001F10170000FC04F41414171017F7
:100A60001414F404F40000FF00F714141414141404
:100A700014F700F7141414171410101F101F141477
:100A800014F4141010F010F000001F101F000000EC
:100A90001F14000000FC140000F010F01010FF10F4
:100AA000FF141414FF141010101F00000000F010A9
:100AB000FFFFFFFFFFF0F0F0F0F0FFFFFF0000008E
:100AC0000000FFFF0F0F0F0F0F3844443844FC4A5B
:100AD0004A4A347E02020606027E027E02635549BD
:100AE00041633844443C04407E201E2006027E02BE
:100AF0000299A5E7A5991C2A492A1C4C7201724C3F
:100B0000304A4D4D303048784830BC625A463D3E00
:100B1000494949007E0101017E2A2A2A2A2A4444A1
:100B20005F444440514A444040444A51400000FF21
:100B30000103E080FF000008086B6B0836123624C2
:100B400036060F090F0600001818000000101000EC
:100B50003040FF0101001F01011E00191D17120086
:100B60003C3C3C3C0000000000000000002400274A
:100B7000002A0000000000230026002900000000D9
:100B8000080002010000030407000000000000004C
:100B9000000204E010021C07123732292D29252BF0
:100BA0003900010310E110031D07062E2C292D2EFC
:100BB0002E373F0000021013800A298064022A04A5
:100BC0000000007F2B040000009F0F018096118021
:100BD000FFB103012C2DB203012C2DB306012C2DE6
:100BE000012C2DB40107C003A20284C101C5C202B9
:100BF0000A00C3028A2AC4028AEEC5010E2000360A
:100C000001C83A0105FB03620120007E00100102C9
:100C1000040810204080010204081020010204088A
:100C2000102000000000250028002B00040404040C
:100C30000404040402020202020203030303030386
:100C4000CA1D11241FBECFEFD8E0DEBFCDBF11E01B
:100C5000A0E0B1E0E6E9FAE502C005900D92A03B04
:100C6000B107D9F723E0A0EBB1E001C01D92A33595
:100C7000B207E1F716E0C1E2D6E004C02197FE0119
:100C80000E943E2DC032D107C9F70E949D1E0C94D0
:100C9000492D0C940000AF92BF92CF92DF92EF9259
:100CA000FF920F931F93CF93DF936C017B018B0116
:100CB000040F151FEB015E01AE18BF08C017D10766
:100CC00059F06991D601ED91FC910190F081E02DF0
:100CD000C6010995892B79F7C501DF91CF911F9145
:100CE0000F91FF90EF90DF90CF90BF90AF9008955D
:100CF000FC01538D448D252F30E0842F90E0821B22
:100D0000930B541710F0CF96089501970895FC01A6
:100D1000918D828D981761F0A28DAE0FBF2FB11DFE
:100D20005D968C91928D9F5F9F73928F90E0089556
:100D30008FEF9FEF0895FC01918D828D981731F010
:100D4000828DE80FF11D858D90E008958FEF9FEF64
:100D50000895FC01918D228D892F90E0805C9F4F3A
:100D6000821B91098F73992708958EE692E00E9465
:100D7000A90621E0892B09F420E0822F089580E064
:100D800090E0892B29F00E94B50681110C94000097
:100D90000895FC01A48DA80FB92FB11DA35ABF4F10
:100DA0002C91848D90E001968F739927848FA6896A
:100DB000B7892C93A089B1898C91837080648C93BE
:100DC000938D848D981306C00288F389E02D80816D
:100DD0008F7D80830895EF92FF920F931F93CF939F
:100DE000DF93EC0181E0888F9B8D8C8D98131AC066
:100DF000E889F989808185FF15C09FB7F894EE894D
:100E0000FF896083E889F9898081837080648083A9
:100E10009FBF81E090E0DF91CF911F910F91FF90F4
:100E2000EF900895F62E0B8D10E00F5F1F4F0F739C
:100E30001127E02E8C8D8E110CC00FB607FCFACF57
:100E4000E889F989808185FFF5CFCE010E94C90626
:100E5000F1CFEB8DEC0FFD2FF11DE35AFF4FF08228
:100E60009FB7F8940B8FEA89FB8980818062CFCF8E
:100E7000CF93DF93EC01888D8823B9F0AA89BB89D1
:100E8000E889F9898C9185FD03C0808186FD0DC0BC
:100E90000FB607FCF7CF8C9185FFF2CF808185FFDD
:100EA000EDCFCE010E94C906E9CFDF91CF91089521
:100EB000833081F028F4813099F08230A9F00895D0
:100EC0008730A9F08830C9F08430B1F48091800077
:100ED0008F7D03C0809180008F778093800008957C
:100EE00084B58F7784BD089584B58F7DFBCF8091C5
:100EF000B0008F778093B00008958091B0008F7D0F
:100F0000F9CFCF93DF93282F30E0F901E358F44F66
:100F10008491F901E25FF34FD491F901E45DF34F5D
:100F2000C491CC23A1F081110E945807EC2FF0E06E
:100F3000EE0FFF1FED58F44FA591B491EC91ED2306
:100F400081E090E009F480E0DF91CF91089580E0A6
:100F500090E0FACF1F93CF93DF93282F30E0F90171
:100F6000E358F44F8491F901E25FF34FD491F90112
:100F7000E45DF34FC491CC23A9F0162F81110E9498
:100F80005807EC2FF0E0EE0FFF1FEE5DF34FA59139
:100F9000B4918FB7F894EC91111108C0D095DE236D
:100FA000DC938FBFDF91CF911F910895DE2BF8CF97
:100FB0009091020189130BC0E1E9FBE0E4919FEFFE
:100FC00090930201E13049F028F0E23061F060E0F6
:100FD0000C94AA0710926E00FACF90916F009D7F3B
:100FE00090936F00F4CF909170009D7F909370006C
:100FF00091E09093B0009091B100987F94609093AD
:10100000B1001092B300E3CFCF93DF9390E0FC01E7
:10101000E25FF34F2491845D934FFC018491882318
:10102000C9F090E0880F991FFC01E759F44FA59192
:10103000B491FC01EE5DF34FC591D49161110DC0E7
:101040009FB7F8948C91209582238C9388812823D4
:1010500028839FBFDF91CF910895623051F49FB7ED
:10106000F8943C91822F809583238C93E8812E2BDA
:10107000EFCF8FB7F894EC912E2B2C938FBFEACF44
:101080008E50806480937C0080917A00806480938D
:101090007A0080917A0086FDFCCF80917800909153
:1010A000790008953FB7F89480913B0290913C02FB
:1010B000A0913D02B0913E0226B5A89B05C02F3FEE
:1010C00019F00196A11DB11D3FBFBA2FA92F982F6E
:1010D0008827BC01CD01620F711D811D911D42E069
:1010E000660F771F881F991F4A95D1F708958F9231
:1010F0009F92AF92BF92CF92DF92EF92FF926B01DD
:101100007C010E9452084B015C01C114D104E1042E
:10111000F104B9F00E945208681979098A099B09FB
:10112000683E73408105910580F321E0C21AD10821
:10113000E108F10888EE880E83E0981EA11CB11C1E
:10114000E4CFFF90EF90DF90CF90BF90AF909F9053
:101150008F9008952FB7F8946091370270913802FC
:101160008091390290913A022FBF08952091EC01AD
:10117000260F3327331F21323105ECF42091100262
:10118000FC0190E080E0243069F082E00895A091B5
:10119000EC012191AC0144535E4FA40FB52FB11D5A
:1011A0002C930196861798F38091EC01680F609359
:1011B000EC0180E0089581E0089508958FEF9FEF9E
:1011C00008958FEF9FEF08958091C50190E091956C
:1011D000819591090895CF93DF93CB01EA01642FA4
:1011E0000E94B608CE01DF91CF910895CF93DF938F
:1011F0001F92CDB7DEB7698361E0CE0101960E94F0
:10120000B60881E090E00F90DF91CF910895CF92E2
:10121000DF92EF92FF92CF936B017C01AC019B01B7
:101220006EEF7FEF81E090E00E949C2C9B01AC016F
:1012300060E074E284EF90E00E94C02CC0E0EC2FEC
:10124000F0E0EE0FFF1FE15EFE4F80819181CF5FE6
:1012500082179307A0F3A7019601220F331F441FA3
:10126000551FEC2FF0E0EE0FFF1FE15EFE4FA08157
:10127000B1810E941F2D9B01AC0160E074E284EFFC
:1012800090E00E94C02C30938700209386008091CC
:101290008100887FC770C82BC093810081E0CF9107
:1012A000FF90EF90DF90CF900895FC01A5A1B6A12B
:1012B0008C9192A589238C93A5A1B6A18C9191A51F
:1012C000892B8C930895DC019396ED91FC91949772
:1012D000908198968C91892380830895DC01939660
:1012E000ED91FC919497908197968C91892B8083B6
:1012F0000895DC019196ED91FC91929790819696DC
:101300008C91892380830895DC019196ED91FC9165
:101310009297908195968C91892B80830895CF9296
:10132000DF92EF92FF921F93CF93DF93EC016A015C
:101330007B018DA9811123C08F2D9927AA27BB2757
:101340008EBD0DB407FEFDCFC701AA27BB278EBDFA
:101350000DB407FEFDCFBB27AF2D9E2D8D2D8EBD6D
:101360000DB407FEFDCFCEBC0DB407FEFDCFDF915F
:10137000CF911F91FF90EF90DF90CF900895813033
:10138000B1F410E2CE01F7FE0FC00E948409CE0135
:101390000E946E09CE010E946309CC0CDD1CEE1C7C
:1013A000FF1C115079F7E3CF0E947909F0CFEF8D40
:1013B000F8A18F2D9927AA27BB278083CE010E94F1
:1013C0005509EF8DF8A1C701AA27BB278083CE015D
:1013D0000E945509EF8DF8A1BB27AF2D9E2D8D2DB5
:1013E0008083CE010E945509EF8DF8A1C082CE0105
:1013F000DF91CF911F91FF90EF90DF90CF900C94F1
:101400005509FF920F931F93CF93DF93EC018B014C
:101410008DA981110EC01EBD0DB407FEFDCF0EBDFE
:101420000DB407FEFDCFDF91CF911F910F91FF907B
:1014300008958130B1F490E1F92ECE0117FF0EC06E
:101440000E948409CE010E946E09CE010E946309A8
:10145000000F111FFA94F110F0CFE5CF0E94790927
:10146000F1CFEF8DF8A11083CE010E945509EF8DC9
:10147000F8A10083CE01DF91CF911F910F91FF90D2
:101480000C9455090F931F93CF93DF93EC01162F04
:101490008DA9811109C06EBD0DB407FEFDCFDF918E
:1014A000CF911F910F910895813099F408E0CE01FA
:1014B00017FF0CC00E948409CE010E946E09110F13
:1014C000CE010E946309015091F7E9CF0E9479098A
:1014D000F3CFEF8DF8A16083CE01DF91CF911F9103
:1014E0000F910C945509CF93DF93EC01ED8DFE8D98
:1014F00080819CA989238083CE010E94420AED8DC0
:10150000FE8D80819BA9892B8083DF91CF910895E7
:101510008F929F92AF92BF92CF92DF92EF92FF9203
:101520000F931F93CF93DF93EC0189AD9AAD680FB2
:10153000791F8BAD9CAD480F591F21503109260FE3
:10154000371F4901B12CA12CCB01B0E0A0E0DC0198
:1015500099278827882A992AAA2ABB2A680181E024
:10156000C81AD108C40ED51EF12CE12C70E060E041
:10157000BA0155274427C42AD52AE62AF72A6AE25F
:10158000CE010E94730AB501A401CE010E948F0909
:101590006BE2CE010E94730AB701A601CE010E9440
:1015A0008F096CE2CE01DF91CF911F910F91FF90D7
:1015B000EF90DF90CF90BF90AF909F908F900C9462
:1015C000730AFC0185A9811104C091A182A19CBD6F
:1015D0008DBD08951F93CF93DF93EC01162FE88103
:1015E000F9810284F385E02D0995112371F06DAD29
:1015F000CE010E94730AE881F9810688F789E02DFF
:10160000CE01DF91CF911F9109946EADF1CFAF92D2
:10161000BF92CF92DF92EF92FF920F931F93CF93DF
:10162000DF93EC0177FD38C08885998568177907C5
:101630009CF557FD31C08A859B854817590764F58D
:1016400069017A015B01E881F9810284F385E02D6B
:10165000CE010995E881F98102A4F3A5E02D01E00E
:1016600010E021E030E0A701B501CE010995B601F7
:10167000CE010E94010AE881F9810688F789E02DF0
:10168000CE01DF91CF911F910F91FF90EF90DF90EE
:10169000CF90BF90AF900994DF91CF911F910F91A0
:1016A000FF90EF90DF90CF90BF90AF9008958F9212
:1016B0009F92AF92BF92CF92DF92EF92FF920F93E1
:1016C0001F93CF93DF93EC0149015701E881F98122
:1016D00002A4F3A5E02D09959401D8010E94012DE3
:1016E0006B017C01C114D104E104F10409F47DC053
:1016F0008DA9811115C081E0C81AD108E108F1084F
:101700008FEFC816D806E806F80609F46EC0BEBC0E
:101710000DB407FEFDCFAEBC0DB407FEFDCFEBCF81
:10172000813099F581E0C81AD108E108F1088FEFFE
:10173000C816D806E806F80609F457C00B2D18E0BD
:10174000CE0107FF1CC00E948409CE010E946E09D1
:10175000CE010E946309000F115091F70A2D18E085
:10176000CE0107FF0FC00E948409CE010E946E09BE
:10177000CE010E946309000F115091F7D3CF0E9450
:101780007909E3CF0E947909F0CFBA1016C0CC0CCA
:10179000DD1CEE1CFF1CEF8DF8A1B08281E0C81AA1
:1017A000D108E108F1088FEFC816D806E806F80658
:1017B000E1F0CE010E945509F1CF81E0C81AD108AD
:1017C000E108F1088FEFC816D806E806F80669F0B8
:1017D000EF8DF8A1B082CE010E945509EF8DF8A1DE
:1017E000A082CE010E945509E8CFDF91CF911F91D1
:1017F0000F91FF90EF90DF90CF90BF90AF909F90B0
:101800008F9008958F929F92AF92BF92CF92DF9266
:10181000EF92FF920F931F93CF93DF935C014B01E5
:101820006A01E90177FD52C0DC0118968D919C9107
:10183000681779070CF04AC0209709F447C037FFB2
:1018400007C0C9010196C80ED91ED195C195D1090D
:10185000F50182859385C816D906C4F5A6014C0FFB
:101860005D1F9A012150310937FD30C0D7FE03C0FA
:10187000EA01D12CC12C281739071CF0EC01CC1936
:10188000DD09D501ED91FC910284F385E02DC501C0
:10189000099578018E0121E030E0A601B401C5016F
:1018A0000E94570BD501ED91FC910688F789E02D38
:1018B000C501DF91CF911F910F91FF90EF90DF90C5
:1018C000CF90BF90AF909F908F900994DF91CF9170
:1018D0001F910F91FF90EF90DF90CF90BF90AF904E
:1018E0009F908F9008958F929F92AF92BF92CF92C8
:1018F000DF92EF92FF920F931F93CF93DF935C01E0
:101900006B014A01E90157FD52C0DC011A968D9125
:101910009C91481759070CF04AC0209709F447C01A
:1019200037FF07C0C9010196C80ED91ED195C195D0
:10193000D109F50180859185C816D906C4F5A6019F
:101940004C0F5D1F9A012150310937FD30C0D7FE81
:1019500003C0EA01D12CC12C281739071CF0EC0177
:10196000CC19DD09D501ED91FC910284F385E02DC0
:10197000C5010995780101E010E09E01A401B601BE
:10198000C5010E94570BD501ED91FC910688F7899E
:10199000E02DC501DF91CF911F910F91FF90EF9046
:1019A000DF90CF90BF90AF909F908F900994DF9180
:1019B000CF911F910F91FF90EF90DF90CF90BF904C
:1019C000AF909F908F9008958F929F92AF92BF9209
:1019D000CF92DF92EF92FF920F931F93CF93DF93FB
:1019E0004C016B015A01E901209709F46CC0011503
:1019F000110509F468C037FF07C0C9010196C80E78
:101A0000D91ED195C195D109F401A085B185CA1619
:101A1000DB060CF058C017FF07C0C8010196A80EDE
:101A2000B91E119501951109F40182859385A816B7
:101A3000B9060CF048C0F601EC0FFD1FAF01415094
:101A4000510957FD40C0B501600F711F9B01215026
:101A5000310937FD38C0D7FE03C0EF01D12CC12CAE
:101A6000B7FE03C08B01B12CA12C4A175B071CF0F9
:101A7000ED01CC19DD09281739071CF08C010A1972
:101A80001B09D401ED91FC910284F385E02DC40182
:101A900009959E01A501B601C4010E94570BD4010E
:101AA000ED91FC910688F789E02DC401DF91CF917B
:101AB0001F910F91FF90EF90DF90CF90BF90AF906C
:101AC0009F908F900994DF91CF911F910F91FF907C
:101AD000EF90DF90CF90BF90AF909F908F90089540
:101AE000EF92FF920F931F93CF93DF9377FD32C056
:101AF000DC011896ED91FC916E177F075CF52115BE
:101B0000310541F137FF07C0F90131964E0F5F1FD4
:101B1000319521953109DC011A96ED91FC914E1712
:101B20005F07C4F4EA01C20FD31FDE011197B7FDAE
:101B300011C057FF03C09E0150E040E0AE17BF0741
:101B40001CF09F01241B350B7801890121E030E056
:101B50000E94570BDF91CF911F910F91FF90EF9053
:101B60000895EF92FF920F931F93CF93DF9357FD4A
:101B700031C0DC011A96ED91FC914E175F0754F5C8
:101B80002115310539F137FF07C0F90131966E0F84
:101B90007F1F319521953109DC011896ED91FC915B
:101BA0006E177F07BCF4EB01C20FD31FDE01119744
:101BB000B7FD10C077FF03C09E0170E060E0AE1774
:101BC000BF071CF09F01261B370B780101E010E0D6
:101BD0000E94570BDF91CF911F910F91FF90EF90D3
:101BE00008958F929F92AF92BF92CF92DF92EF9221
:101BF000FF920F931F93CF93DF9347012115310578
:101C000009F44BC00115110509F447C037FF07C09F
:101C1000F90131966E0F7F1F319521953109DC0155
:101C20001896AD90BC906A157B05BCF517FF07C0F0
:101C3000F80131964E0F5F1F119501951109DC01D6
:101C40001A96ED91FC914E175F073CF56B01C20EA1
:101C5000D31EE6012197D7FD20C07A01E00EF11EC8
:101C6000D7011197B7FD19C077FF03C0960170E047
:101C700060E057FF03C0870150E040E0CA15DB0574
:101C80001CF09501261B370BAE17BF071CF08F0108
:101C9000041B150B74010E94570BDF91CF911F910C
:101CA0000F91FF90EF90DF90CF90BF90AF909F90FB
:101CB0008F900895EF92FF920F931F93CF93DF932E
:101CC000EC0177FD22C08885998568177907ECF4C7
:101CD00057FD1BC08A859B8548175907B4F47901C5
:101CE000E881F98102A4F3A5E02D01E010E021E0F4
:101CF00030E0CE010995B701CE01DF91CF911F9160
:101D00000F91FF90EF900C94010ADF91CF911F91FA
:101D10000F91FF90EF900895CF93DF93EC010E9415
:101D2000E10A8FA987FD06C0EB8DFC8D80819AA901
:101D300089238083DF91CF9108950895AF92BF9258
:101D4000CF92DF92EF92FF920F931F93CF93DF9387
:101D5000BC016F5F7F4FFC011491115008F47AC0F1
:101D6000FB01D4917B01F2E0EF0EF11CFB013196F7
:101D70000491C02FCF778CE093E00E94E10A80911C
:101D8000430387FD09C0E0912703F0912803808178
:101D900090913E0389238083E0912903F0912A03E7
:101DA000808190914003892380836D2F8CE093E0A4
:101DB0000E94420AE0912903F0912A0380819091C8
:101DC0003F03892B8083F701B12CA12CD0E0AC1606
:101DD000BD06F4F4809141036F01823081F480915B
:101DE0003C03882361F0619171916F018CE093E075
:101DF0000E94010AEFEFAE1ABE0AF601E8CF8FEF9C
:101E0000C81AD80A64918CE093E00E94420AF2CF8B
:101E10008091430387FD09C0E0912703F0912803D7
:101E2000808190913D03892B8083B7016C0F7D1FCA
:101E300007FF93CFEB012196FB01649170E06F3FA8
:101E4000710511F464EF71E090E080E00E94770882
:101E5000BE0183CFDF91CF911F910F91FF90EF9043
:101E6000DF90CF90BF90AF9008950F931F93CF93C3
:101E7000DF93EC018B010E94E10A8FA987FD06C068
:101E8000EB8DFC8D80819AA989238083ED8DFE8D59
:101E900080819CA98923808366E3CE010E94420A47
:101EA000ED8DFE8D80819BA9892B80838DA9F80102
:101EB000823091F06081CE010E94420A8FA987FD95
:101EC00006C0EB8DFC8D808199A9892B8083DF91E1
:101ED000CF911F910F91089588A9882359F36081AC
:101EE0007181CE010E94010AE9CFCF93DF931F9247
:101EF000CDB7DEB7FC0119826370668BDC01AD5B88
:101F0000BF4F2C9130E011968C9190E0623031F00F
:101F10006330C9F0613081F040EC498332AF21AFCA
:101F200094AF83AFBE016F5F7F4FCF010E94350F2B
:101F30000F90DF91CF91089540EA498334AF23AFEA
:101F400092AF81AFEFCF40E6F8CFCF93DF931F92F0
:101F5000CDB7DEB7FC0119826370668BDC01AA5B2A
:101F6000BF4F8C91982F9B7FAF014C5B5F4F91309F
:101F700031F493E0623008F091E0DA019C939F0124
:101F80002D5B3F4F623009F44CC0633009F459C0F7
:101F9000613069F1823021F098EC843009F046C05C
:101FA00090EC99838130D1F480E890E09387828728
:101FB00091878087D9018C9190E092AF81AFDA014F
:101FC0008C9190E094AF83AFBE016F5F7F4FCF01E4
:101FD0000E94350F0F90DF91CF910895843051F515
:101FE00080EA90E09387828780E590E0E1CF8230BD
:101FF00019F098EA843061F590EA9983813091F57F
:1020000080E890E09187808793878287D9018C91BF
:1020100090E094AF83AFDA018C9190E092AF81AF02
:10202000D3CF823039F08430D9F298E0998381306F
:1020300009F4BACF80EA90E09387828780E890E045
:10204000B7CF823019F098E6843011F490E6D5CFFE
:1020500099838130A9F280EA90E09187808780E8B7
:1020600090E0D2CF8430B9F780EA90E09187808702
:1020700080E590E0C9CFFC0187A987FD06C0A38D4C
:10208000B48D9C9181A9892B8C9308950895FC01AE
:102090006370668B8481958126813781613039F048
:1020A000633029F0918780873387228708953187AD
:1020B00020879387828708952F923F924F925F9255
:1020C0006F927F928F929F92AF92BF92CF92DF9248
:1020D000EF92FF920F931F93CF93DF93CDB7DEB7AD
:1020E0006A970FB6F894DEBF0FBECDBF9A8F898F67
:1020F0007A8369834A01D22E18870F833701BC2C5B
:10210000DC0159962D913C915A972115310509F022
:1021100015C118968D919C911997681779070CF045
:10212000D7C11A968D919C91481759070CF0D0C1D0
:102130004C2C512CB6E0CB9E600D711D11247C8778
:102140006B87161617060CF0C3C1EA2DF0E0FA876C
:10215000E98793E0EE0FFF1F9A95E1F7F88BEF8781
:10216000CF01840F951F181619060CF0B1C1A98D67
:10217000BA8D58968C91811104C0BFEABD1508F440
:10218000D394A98DBA8DED91FC9111970284F385BA
:10219000E02DCD010995B5E0DB9EC0011124E98158
:1021A000FA81FC83EB83312C212C9C012759394F78
:1021B000388F2F8B4A2D50E05E8B4D8BEF89F88D39
:1021C000E20DF31D44919E828D82D12CC12C698138
:1021D0007A81620D731D7A8B698B842F90E09C8BC2
:1021E0008B8BE98DFA8DA081B18140FF82C0F1E037
:1021F000BF126FC0AF126DC01C96ED91FC912F8184
:102200003885A4014C0D5D1D69897A89898D9A8D67
:102210000995EB89FC89F595E7954E2F5FEFC51A77
:10222000D50A6D817E818D899E89680F791F7E8395
:102230006D8398E0C916D10481F6AFEF2A1A3A0AE5
:10224000EB81FC81E40DF51DFC83EB83F5E02F169B
:10225000310409F0B3CF2F81388526153705B9F041
:10226000A98DBA8DED91FC91B1E0BB1257C0AB12B4
:1022700055C069817A816B5F7F4F0088F189E02DBD
:10228000830128E030E0A401898D9A8D0995A98DFC
:10229000BA8DED91FC9111970688F789E02DCD015B
:1022A0006A960FB6F894DEBF0FBECDBFDF91CF9117
:1022B0001F910F91FF90EF90DF90CF90BF90AF9064
:1022C0009F908F907F906F905F904F903F902F9056
:1022D00009941E96ED91FC91EF80F88409851A858A
:1022E00092014D815E816B817C81898D9A8D0995EA
:1022F00090CF2F8138852615370509F48ACF31E034
:10230000B31207C0A31205C01C96ED91FC91930176
:1023100078CF1E96ED91FC917301E0CF6B857C85A3
:10232000641975090684F785E02D73010F851889F6
:102330009201A401898D9A8D0995A9CFF90134964E
:102340009491329745915491D91AB7E0DB9E400D94
:10235000511D1124F901259134913C8B2B8BFA01ED
:1023600025903490FA013296749031963491398BDD
:10237000329664903196449041E04C1518F04A151D
:1023800008F07FC0662D062C000C770B7C836B83D6
:10239000842D042C000C990B9E838D83A98DBA8DFE
:1023A000ED91FC9111970284F385E02DCD01099503
:1023B000512CD12CC12CEA2DF0E0FA87E9872B2D86
:1023C00030E03C872B87A401440D511D47FC5A95F2
:1023D000588F4F8B69817A81660D711D67FC7A95E4
:1023E0007E876D877989C71608F051CF2C2D30E094
:1023F0004D815E81420F531FA985BA854A9FC00156
:102400004B9F900D5A9F900D1124FC01E80DF91D72
:10241000F88BEF87852D612C4F89588D420F531F04
:102420005E8B4D8B671408F050C044244394480ED3
:10243000877041F4C1010196EB89FC89E20DF31D1F
:10244000D4901C01D7FE19C0A98DBA8DED91FC91D5
:10245000662D70E0B1E0BB1219C0AB1217C02D851C
:102460003E85620F731F0484F585E02D2F8138852A
:102470004D895E89898D9A8D0995DD0C6394842D33
:10248000D1CF1E821D821C821B8288CF4B815C8132
:10249000640F751FAB85BC856A9FC0016B9F900D53
:1024A0007A9F900D112469817A81680F791F0684C3
:1024B000F785E02DEF80F88409851A859D014F8509
:1024C0005889898D9A8D0995D8CF570CC3948ACF96
:1024D0006A960FB6F894DEBF0FBECDBFDF91CF91E5
:1024E0001F910F91FF90EF90DF90CF90BF90AF9032
:1024F0009F908F907F906F905F904F903F902F9024
:1025000008958F929F92AF92CF92EF92FF920F9386
:102510001F93CF93DF93EC01262F898D9A8D00971F
:1025200009F051C06A30D1F41D861C868D8948E0BF
:10253000849F900111248E859F85820F931F9F8712
:102540008E8781E090E0DF91CF911F910F91FF90F6
:10255000EF90CF90AF909F908F9008956D3089F35A
:10256000CC88AD888F898823C1F08C859D8536E025
:10257000C39E800D911D1124488559854817590720
:1025800064F44E855F851D861C8638E0A39EC001DD
:102590001124840F951F9F878E87EA88FB880889FE
:1025A00019894E855F856C857D85CE010E945C1002
:1025B0002C898C859D8546E0249F800D911D1124DA
:1025C0009D878C87BECF6A3069F41D861C86FC010E
:1025D0003896E4912D898E859F85E29F800D911D0F
:1025E0001124ADCF6D3009F4ACCFFC013496349199
:1025F000631708F4A6CF3296E491E61708F4A1CF4A
:10260000FC01329685909490462F431B342F47E06F
:10261000349F800C911C1124F40132963491319630
:10262000E4913323A9F1EE2399F1CC88F401359696
:10263000E491AD884F89442301F10E2E000CFF0B6D
:10264000E30FF11DCE9EA001CF9E500D11246C858D
:102650007D85460F571F68857985641775076CF46B
:102660004E855F851D861C86FC013896E491AE9EE2
:10267000400D511D11245F874E87EA88FB88088929
:1026800019894E855F856C857D85CE010E945C1021
:10269000F4013496E4912C898C859D85E29F800D10
:1026A000911D11248DCF6F927F928F929F92AF9246
:1026B000BF92CF92DF92EF92FF920F931F93CF932F
:1026C000DF93EC016B015A0139014801E881F9817E
:1026D0000284F385E02D0995E881F9810288F38968
:1026E000E02D87019301A501B601CE010995A50151
:1026F000480D591D41505109E881F9810288F3893B
:10270000E02D9301B601CE010995E881F981008899
:10271000F189E02D9401A501B601CE010995C60C01
:10272000D71CB60161507109E881F9810088F189EF
:10273000E02D9401A501CE010995E881F981068873
:10274000F789E02DCE01DF91CF911F910F91FF907E
:10275000EF90DF90CF90BF90AF909F908F907F9041
:102760006F9009946F927F928F929F92AF92BF92D7
:10277000CF92DF92EF92FF920F931F93CF93DF934D
:102780005C01EB016A01490138018701DC01ED912F
:10279000FC916217730719F5641675062CF0962DD7
:1027A000872D3A01C92ED82E9601261937092F5F99
:1027B0003F4F048CF58DE02DA301BE01C5010995A5
:1027C000DF91CF911F910F91FF90EF90DF90CF900D
:1027D000BF90AF909F908F907F906F900895461517
:1027E000570591F42617370724F0892D4B01C22F86
:1027F000D82F9E01281939092F5F3F4F068CF78D7E
:10280000E02DA601B401DACF0284F385E02D09950D
:10281000D501ED91FC910488F589E02D83019401A7
:10282000A601BE01C5010995D501ED91FC9106886F
:10283000F789E02DC501DF91CF911F910F91FF9096
:10284000EF90DF90CF90BF90AF909F908F907F9050
:102850006F900994EF92FF920F931F93DC011A96E9
:102860000D911C911B9718962D913C911997ED9104
:10287000FC9100A0F1A1E02D7B0150E040E070E070
:1028800060E009951F910F91FF90EF9008954F928E
:102890005F926F927F928F929F92AF92BF92CF92F0
:1028A000DF92EF92FF920F931F93CF93DF936C0110
:1028B0002B015A0139014801DC01ED91FC910284A0
:1028C000F385E02D0995E201640C751CD601ED91AC
:1028D000FC91C615D7055CF40088F189E02D8701CD
:1028E0009401A501BE01C60109952196EFCF068886
:1028F000F789E02DC601DF91CF911F910F91FF90D5
:10290000EF90DF90CF90BF90AF909F908F907F908F
:102910006F905F904F9009948F929F92AF92BF9269
:10292000CF92DF92EF92FF920F931F93CF93DF939B
:10293000EC015B014A016901E881F9810284F385B8
:10294000E02D099595012C0D3D1D21503109E8819F
:10295000F9810488F589E02D78018401A401B5018D
:10296000CE010995E881F9810688F789E02DCE012D
:10297000DF91CF911F910F91FF90EF90DF90CF905B
:10298000BF90AF909F908F9009948F929F92AF923B
:10299000BF92CF92DF92EF92FF920F931F93CF934C
:1029A000DF93EC015B014A0169017801E881F9815B
:1029B0000284F385E02D0995C80CD91C86010150CD
:1029C0001109E881F9810488F589E02D9501A401B8
:1029D000B501CE010995E881F9810688F789E02DD6
:1029E000CE01DF91CF911F910F91FF90EF90DF907B
:1029F000CF90BF90AF909F908F900994EF92FF92ED
:102A00000F931F93DC01ED91FC9100A0F1A1E02D4B
:102A100009951F910F91FF90EF9008950F931F93C9
:102A2000DC01ED91FC91068CF78DE02D09951F914D
:102A30000F9108950F931F93DC01ED91FC91048C8D
:102A4000F58DE02D09951F910F910895DC01ED9111
:102A5000FC910084F185E02D09942F923F924F92D2
:102A60005F926F927F928F929F92AF92BF92CF921E
:102A7000DF92EF92FF920F931F93CF93DF9300D0DB
:102A800000D000D0CDB7DEB73C016A013E832D8374
:102A9000FC82EB825801A41AB50AB7FE03C0B194B8
:102AA000A194B1088D809E80861A970A97FE03C074
:102AB0009194819491088A149B045CF0902F812F4B
:102AC0000D811E819D838E839C2D8D2D6B01692F21
:102AD000782F0C151D055CF09D818E817E836D83A2
:102AE000692F782F902F812F8601C92ED82E16019D
:102AF000201A310A2B012D813E81421A530A57FEBA
:102B000003C0519441945108710137FE03C03FEF57
:102B1000E31AF30AF594E7948D819E81861797074F
:102B20005CF5A1E0B0E0BA83A983C016D1064CF1F0
:102B3000D301ED91FC910484F585E02D2B813C813E
:102B4000A8016D817E818A149B041CF04D815E81F9
:102B5000B801C3010995E418F508F7FE0AC02D81F4
:102B60003E8189819A81280F391F3E832D83E20C93
:102B7000F31C0F5F1F4FD9CF2FEF3FEF3A8329830D
:102B8000D4CF26960FB6F894DEBF0FBECDBFDF912F
:102B9000CF911F910F91FF90EF90DF90CF90BF905A
:102BA000AF909F908F907F906F905F904F903F90ED
:102BB0002F900895089590E080E008950F931F935B
:102BC00081E00E9481079093C3018093C20120910C
:102BD000C0013091C1012130310509F0ACC0892B11
:102BE00079F40E94AA086093BC017093BD018093A0
:102BF000BE019093BF0181E08093BB011092BA01A6
:102C00008091BB01882389F18091BA0181112DC087
:102C10000E94AA080091BC011091BD012091BE0143
:102C20003091BF01601B710B820B930B613D7740AC
:102C300081059105D4F080916C0290916D0201960E
:102C4000853091050CF0B4C090936D0280936C02B6
:102C500080916C0290916D028B7F892B31F470E032
:102C600060E08CE093E00E942A148091C201909170
:102C7000C3019093C1018093C00182E00E9481074B
:102C80009093B9018093B8012091B6013091B701BA
:102C90002130310509F091C0892B79F40E94AA08EE
:102CA0006093B2017093B3018093B4019093B50126
:102CB00081E08093B1011092B0018091B10188232D
:102CC00079F18091B00181112BC00E94AA08009176
:102CD000B2011091B3012091B4013091B501601B94
:102CE000710B820B930B613D774081059105C4F018
:102CF00080916C0290916D02019797FD9DC0909319
:102D00006D0280936C0280916C0290916D0203972A
:102D1000029730F470E060E08CE093E00E942A14A7
:102D20008091B8019091B9019093B7018093B60159
:102D30001F910F910895232B09F062CF019709F09D
:102D40005FCF1092BB010E94AA080091BC011091B4
:102D5000BD012091BE013091BF01601B710B820B40
:102D6000930B683E7340810591054CF480916C0291
:102D700090916D02019690936D0280936C02809108
:102D80006C0290916D02059724F010926D021092E2
:102D90006C0280916C0290916D028B7F892B09F0FF
:102DA00064CF70E060E08CE093E00E942A1428CFAA
:102DB00010926D0210926C024BCF232B09F07DCF45
:102DC000019709F07ACF1092B1010E94AA080091F0
:102DD000B2011091B3012091B4013091B501601B93
:102DE000710B820B930B683E7340810591054CF487
:102DF00080916C0290916D02019790936D02809387
:102E00006C0280916C0290916D0297FF06C084E085
:102E100090E090936D0280936C0280916C0290918F
:102E20006D020397029708F07BCF70E060E08CE0C2
:102E300093E00E942A1441CF84E090E060CFFC012F
:102E400001900020E9F73197AF01481B590BBC01F5
:102E50008CE093E00C944B068F929F92AF92BF92BE
:102E60000F931F93CF93DF93CDB7DEB7A1970FB624
:102E7000F894DEBF0FBECDBF19A2423008F44AE07D
:102E80008E010F5D1F4F842E912CB12CA12CA5011A
:102E900094010E94C02CE62FB901CA01EA30F4F473
:102EA000E05DD801EE938D01232B242B252B79F7A0
:102EB00090E080E0109719F0CD010E941F17A196B5
:102EC0000FB6F894DEBF0FBECDBFDF91CF911F913B
:102ED0000F91BF90AF909F908F900895E95CE1CFE4
:102EE000CF93DF930E941F17EC018DE691E00E94C3
:102EF0001F178C0F9D1FDF91CF910895CF92DF9206
:102F0000EF92FF92CF93DF936C01990FEE08FF08C9
:102F1000F7FE1FC06DE28CE093E00E948112EC018D
:102F200066277727CB016C197D098E099F094AE036
:102F30000E942C17C80FD91F8DE691E00E941F1721
:102F40008C0F9D1FDF91CF91FF90EF90DF90CF907E
:102F500008954AE0C701B6010E942C17EC01ECCF9E
:102F60008F929F92AF92BF92CF92DF92EF92FF9299
:102F70000F931F93CF93DF936B017C01042FAC0160
:102F80009B010E94972C8823C1F080E791E00E946A
:102F90001F17EC018DE691E00E941F178C0F9D1FFB
:102FA000DF91CF911F910F91FF90EF90DF90CF9025
:102FB000BF90AF909F908F90089546015701E8947D
:102FC000B7F82FEF3FEF4FE75FE7C501B4010E946D
:102FD000972C81110DC02FEF3FEF4FE75FE7C50141
:102FE000B4010E94C62A18161CF484E791E0CFCFE2
:102FF0002FEF3FEF4FE75FE4C701B6010E94252C9A
:1030000018161CF488E791E0C2CF2FEF3FEF4FE78F
:103010005FECC701B6010E94C62A87FDF3CF20E00E
:1030200030E0A901C701B6010E94C62AD0E0C0E085
:1030300087FF0AC06DE28CE093E00E948112EC01F0
:10304000F7FAF094F7F8F094102FB12C60E070E0EC
:1030500080E09FE3B01640F420E030E040E251E42D
:103060000E94CB2AB394F6CFA70196010E945A2A58
:103070006B017C010E94442B4B015C014AE00E94E1
:103080002C17C80FD91F002309F484CFC501B40140
:103090000E94732B9B01AC01C701B6010E94592A03
:1030A0006B017C016EE28CE093E00E948112C80FFC
:1030B000D91F115008F46ECF20E030E040E251E417
:1030C000C701B6010E942A2C4B015C010E94442BCF
:1030D0006B01F12CE12C4AE0C701B6010E942C17CC
:1030E000C80FD91FC701B6010E94732B9B01AC0109
:1030F000C501B4010E94592A6B017C01DACFAF925D
:10310000BF92DF92EF92FF920F931F93CF93DF93C3
:10311000CDB7DEB76E970FB6F894DEBF0FBECDBF4A
:1031200000E81BE0F80184918350823030F461E0C4
:1031300070E080E090E00E940709F090000161E0FB
:1031400083E00E940408F1102FC160E083E00E9438
:10315000AA0782E090E0909301018093000161E072
:103160008CE093E00E94A50F8FEF9FEF90931D03DB
:1031700080931C0310921F0310921E03DD24D3942E
:10318000D092230382E08093200380932103109246
:103190002603109225030AE010E010931903009310
:1031A000180310931B0300931A038CE791E00E940D
:1031B000701786E4E82EF12CF0921903E0921803C0
:1031C00010931B0300931A0380E891E00E9470178C
:1031D00094E6A92EB12CB0921903A0921803109373
:1031E0001B0300931A036091580270915902809159
:1031F0005A0290915B028E010F5F1F4F24E042E064
:103200000E94CD27409156025091570241505109DA
:10321000609158027091590280915A0290915B021C
:103220000E94B017F0921903E09218030DE210E02B
:1032300010931B0300931A0383E891E00E94701718
:10324000B0921903A092180310931B0300931A0362
:103250008E01055F1F4F24E042E060E070E080E8EF
:103260009FE30E94CD2781E090E00E947E17F092BC
:103270001903E092180320E5E22EF12CF0921B03D3
:10328000E0921A0386E891E00E947017B092190349
:10329000A0921803F0921B03E0921A03065F1F4FDF
:1032A00024E042E060E070E080E89FE30E94CD27E8
:1032B00081E090E00E947E1787E890E090931903E8
:1032C00080931803F0921B03E0921A0389E891E0BF
:1032D0000E94701730EEE32E37E0F32E05E510E084
:1032E00024E130E045E550E06AE070E08CE093E0F6
:1032F0000E94B2132CE330E045E550E062E370E059
:103300008CE093E00E94B21307E310E024E130E088
:1033100045E550E064E170E08CE093E00E94B21378
:1033200024E130E047E350E064E170E08CE093E0BA
:103330000E94B21305E510E024E130E047E350E0DD
:1033400064E170E08CE093E00E94B21322E330E08D
:1033500045E550E064E170E08CE093E00E94B21338
:10336000D0922003D092210384E990E09093190336
:103370008093180384E390E090931B0380931A03D7
:103380008BE891E00E9470176E960FB6F894DEBF3E
:103390000FBECDBFDF91CF911F910F91FF90EF90A6
:1033A000DF90BF90AF900895FFEFFF1202C061E081
:1033B000CDCEF8010491033049F128F4023091F0A8
:1033C000F7FEC3CEF4CF0430D1F10830C9F78091B5
:1033D000B00080628093B000A091B300B0E004EB35
:1033E00010E007C084B5806284BDA7B5B0E008E4F2
:1033F00010E02F2D30E00E94092D2FEF30E040E04B
:1034000050E00E94C02CF8012083A3CE8091800060
:10341000806880938000A0918600B091870008E8C2
:1034200010E02F2D30E00E94092D2FEF30E040E01A
:1034300050E00E94C02CF801318320838ACE809115
:103440008000806280938000A0918600B091870008
:103450000AE810E0E6CF0E94442D1F93CF93DF933C
:1034600085ED8093BC008091C8019091C901A09125
:10347000CA01B091CB010796A11DB11D23E0B695FD
:10348000A795979587952A95D1F72091BC0024FDA3
:1034900003C01092100252C04091C8015091C9015E
:1034A0006091CA017091CB01452B462B472B69F3E4
:1034B0000097A105B10541F02AE22A95F1F700C075
:1034C0000197A109B109E1CF8091C701C1E0C09383
:1034D000C601882399F1D091B8001091BA0080916B
:1034E000BC008A7B8093BC0060E082E10E94AA0756
:1034F00060E083E10E94AA0710921002C0931202BA
:103500001092110261E082E10E94AA0761E083E16A
:103510000E94AA078091B9008E7F8093B9008091A4
:10352000B9008D7F8093B90088E48093B80085E46A
:103530008093BC001093BA00D093B800DF91CF9174
:103540001F910895CF92DF92EF92FF920F931F93F6
:10355000CF93DF93EC016A017B01C114D104E10434
:10356000F10439F4C12C48E4D42E48EEE42EFF24B3
:10357000F394FE01FF96C082D182E282F38281E25F
:103580008DAF80E28EAF369610818FA987FD07C080
:1035900061E00E94040861E08FA90E94AA0761E02F
:1035A00088AD0E94040861E088AD0E94AA078DA939
:1035B000811182C040E052E16AE770E0C416D5068E
:1035C000E606F70640F476956795579547958F5F21
:1035D0008630A1F787E0212F2C702065982F9695D3
:1035E000922B99A3809581708AA3812F90E0B0E0FF
:1035F000A0E08BA39CA3ADA3BEA31FB7F8948091BA
:10360000C401811127C0E6E3FCE08491E8E1FCE01D
:103610009491E82FF0E0EE0FFF1FE759F44FA591CA
:10362000B491EC91E92321F461E08AE00E94AA07B9
:1036300061E08AE00E9404088CB580618CBD8CB585
:1036400080648CBD61E08DE00E94040861E08BE045
:103650000E9404088091C4018F5F8093C4011FBF42
:103660008EA987FD75C061E00E94040861E08EA903
:103670000E94AA0764E670E080E090E00E9477086C
:1036800060E08EA90E94AA0764E670E080E090E006
:103690000E94770861E08EA90E94AA0768EC70E09A
:1036A00080E090E0DF91CF911F910F91FF90EF901C
:1036B000DF90CF900C9477080CE21CE0F12C813065
:1036C000B9F461E08AA50E94040860E08AA50E941E
:1036D000AA0761E08CA50E94040860E08CA50E9406
:1036E000AA078BA587FDBCCF60E00E940408B8CF75
:1036F000F8018491E82FF0E0EE0FFF1FEE5DF34F2D
:10370000859194912F8D38A12817390741F461E0F4
:103710008F2D0E94040860E08F2D0E94AA07F39469
:103720000F5F1F4FF4E1FF12E3CF61E08EA50E940F
:10373000040861E08EA50E94AA078FA587FD90CF9F
:1037400061E00E94040861E08FA50E94AA0788CF6B
:10375000DF91CF911F910F91FF90EF90DF90CF906D
:1037600008951F920F920FB60F9211242F933F933B
:103770004F935F936F937F938F939F93AF93BF9379
:10378000EF93FF938091440290914502A0914602ED
:10379000B0914702892B8A2B8B2BD1F190913F025C
:1037A000E0914002F09141028081892780838091DD
:1037B000440290914502A0914602B091470218162A
:1037C00019061A061B069CF480914402909145024A
:1037D000A0914602B09147020197A109B1098093D7
:1037E000440290934502A0934602B0934702FF9192
:1037F000EF91BF91AF919F918F917F916F915F9169
:103800004F913F912F910F900FBE0F901F901895E1
:10381000809102010E94D807EACF1F920F920FB643
:103820000F9211242F933F934F935F936F937F9346
:103830008F939F93AF93BF93EF93FF938EE692E0A6
:103840000E94C906FF91EF91BF91AF919F918F9117
:103850007F916F915F914F913F912F910F900FBE8C
:103860000F901F9018951F920F920FB60F92112470
:103870002F938F939F93EF93FF93E0917E02F091AC
:103880007F028081E0918402F091850282FD1BC05D
:103890009081809187028F5F8F73209188028217B9
:1038A00041F0E0918702F0E0E259FD4F958F80935F
:1038B0008702FF91EF919F918F912F910F900FBEF3
:1038C0000F901F9018958081F4CF1F920F920FB622
:1038D0000F9211242F933F938F939F93AF93BF9396
:1038E0008091370290913802A0913902B0913A024A
:1038F0003091360223E0230F2D3758F50196A11D94
:10390000B11D209336028093370290933802A09322
:103910003902B0933A0280913B0290913C02A0910F
:103920003D02B0913E020196A11DB11D80933B0264
:1039300090933C02A0933D02B0933E02BF91AF91A1
:103940009F918F913F912F910F900FBE0F901F90DD
:10395000189526E8230F0296A11DB11DD2CF1F9204
:103960000F920FB60F9211242F933F934F935F93B3
:103970006F937F938F939F93AF93BF93EF93FF9337
:103980008091B900887F803609F44AC0F0F588320A
:1039900009F4A5C018F5803109F499C0B8F488235A
:1039A00009F4F5C0883009F492C0FF91EF91BF91FE
:1039B000AF919F918F917F916F915F914F913F91C7
:1039C0002F910F900FBE0F901F901895883109F41A
:1039D00086C0803251F780930F0214C0803409F4FE
:1039E0009BC040F48033B9F38833F9F680930F021B
:1039F00085ECAEC0803509F483C0883509F494C0E5
:103A0000883499F60E942D1AD0CF883909F48AC0DB
:103A100038F5883729F050F4883611F0803729F6C8
:103A200083E08093100210920E0255C0883809F48A
:103A300079C0803919F0803809F0B7CF80910E0233
:103A4000803208F06FC0E0910E0281E08E0F80930B
:103A50000E028091BB00F0E0E251FE4F80833BC03C
:103A6000803B39F0D0F4803A09F477C0883A09F005
:103A70009CCF84E0809310021092ED011092EC0133
:103A8000F0E0E0E009958091EC0181110FC081E048
:103A90008093EC011092CC0109C0803C09F4A8CFBE
:103AA000883C09F4A5CF883B09F07FCFE091ED0178
:103AB00081E08E0F8093ED01F0E0E453FE4F8081B2
:103AC0008093BB009091ED018091EC0129C0809121
:103AD00035028093BB0085EC8093BC0066CF90914B
:103AE000340280913302981758F5E091340281E056
:103AF0008E0F80933402F0E0ED5EFD4F8081E9CFC0
:103B0000E091340281E08E0F809334028091BB00FB
:103B1000F0E0ED5EFD4F808390913402809133029E
:103B20009817C8F285E8D8CFE091340281E08E0F73
:103B3000809334028091BB00F0E0ED5EFD4F808306
:103B40008091120281115ECF81E08093110284EA9C
:103B50008093BC001092100228CF85EC8093BC00AB
:103B60001092100280910E02803230F4E0910E0229
:103B7000F0E0E251FE4F108260910E0270E08EEE96
:103B800091E0F0E0E0E0099510920E020ECF109265
:103B90000F0238CFEEE6F2E01382128288EE93E055
:103BA000A0E0B0E084839583A683B7838FE291E0A1
:103BB0009183808385EC90E09587848784EC90E006
:103BC0009787868780EC90E0918B808B81EC90E0EA
:103BD000938B828B82EC90E0958B848B86EC90E0CB
:103BE000978B868B118E128E138E148EACE0B3E001
:103BF00013961C921E92129720E830E015963C9383
:103C00002E93149780EA90E017969C938E931697C4
:103C100019963C932E9318971B969C938E931A9704
:103C200056961C9256971D961C921E921C971F9694
:103C30001C921E921E9781E055968C935597549630
:103C40008C9354972FEF3FEF53963C932E935297BC
:103C500051963C932E93509757968C93579758961E
:103C60001C9258975A961C921E925997D5961C9260
:103C7000D59788E0D6968C93D6978AE0D7968C9382
:103C8000D79789E0D8968C93D897DA961C921E9293
:103C9000D997DC961C921E92DB97DD961C92DD97DD
:103CA000DE961C92DE9710924B0310924C031092FA
:103CB0004D0310924E038BE093E090969C938E936D
:103CC0005F97E5E3FCE0E491F0E0EE0FFF1FEE5DAF
:103CD000F34F859194915E969C938E935D97E7E167
:103CE000FCE08491D3968C93D397E6E3FCE0E491D7
:103CF000F0E0EE0FFF1FEE5DF34F259134915C96DF
:103D00003C932E935B97E8E1FCE0E491D196EC9331
:103D1000D197E095D296EC93D297E82FE095D49680
:103D2000EC93D49710924F031092500310925103CA
:103D300081E491E08D939C930895CF93DF93CDB769
:103D4000DEB765970FB6F894DEBF0FBECDBF78948F
:103D500084B5826084BD84B5816084BD85B5826090
:103D600085BD85B5816085BD80916E008160809341
:103D70006E001092810080918100826080938100AA
:103D800080918100816080938100809180008160BA
:103D9000809380008091B10084608093B100809115
:103DA000B00081608093B00080917A00846080933D
:103DB0007A0080917A00826080937A0080917A0004
:103DC000816080937A0080917A00806880937A0085
:103DD0001092C100E0917E02F0917F0282E0808328
:103DE000E0917A02F0917B021082E0917C02F091E6
:103DF0007D028FEC808310928602E0918202F09126
:103E0000830286E08083E0918002F09181028081CC
:103E100080618083E0918002F091810280818860DE
:103E20008083E0918002F0918102808180688083AC
:103E3000E0918002F091810280818F7D808362E039
:103E400081E00E94040862E082E00E94040861E0D0
:103E500084E00E94040889E091E0998B888BA3E0BC
:103E6000B1E0BB8BAA8B04E0E889F989619171917B
:103E7000F98BE88B88EE93E00E94AC2C7D8B6C8BE9
:103E8000CB01092E000CAA0BBB0B8B879C87AD873F
:103E9000BE87AA89BB892D903D90BB8BAA8B809150
:103EA0000201843009F067C2E1E9FBE0149117FFD9
:103EB00094C26B857C858D859E850E94752B26E638
:103EC00036E646EA5FE30E942A2C0E943D2B072E2D
:103ED000000C880B990B0E94770884E00E94D80799
:103EE000A889B989AF50B14009F0BECF40E050E099
:103EF000BA018CE093E00E94A21A8AEC9BE00E9437
:103F00009E0E8DEB9BE00E949E0E82E99BE00E943C
:103F10009E0E80EC8983BE016F5F7F4F8CE093E043
:103F20000E94350F82E08093520360E08CE093E0C2
:103F30000E94A50F70E060E08CE093E00E942A14DC
:103F400061E080E00E94040860E080E00E94AA072F
:103F500061E083E00E940408809180008C7F809360
:103F6000800080918100877E80618093810064EF72
:103F700071E080E090E00E9407098091B0008C7FA2
:103F800081608093B0008091B10088608093B1001F
:103F900010E08EE390E0812C64E2962E64EFA62E72
:103FA000B12C1F5FE12FF0E0EE0FFF1FE15FFE4F2E
:103FB000E080F180E816F906A0F39701A8EEB3E0DF
:103FC0000E94092D9B01AC01C501B4010E94C02CC7
:103FD000C7012F3F310509F020F72093B3008091EE
:103FE000B100887F1770182B1093B100DD24D39493
:103FF00022242A94322C8091250390912603892B28
:1040000049F480911A0390911B03069690931B0329
:1040100080931A0385E09CE0909326038093250308
:10402000D092230330921D0320921C0310921F0391
:1040300010921E0361E08CE093E00E94A50F85E0E2
:1040400090E090931903809318038BE790E090938E
:104050001B0380931A03D0922003D09221038EE891
:1040600091E00E941F178091250390912603892BD0
:1040700049F080911A0390911B03069790931B03BC
:1040800080931A03109226031092250305E010E096
:10409000812C912C540183E10E944008BC01990FAE
:1040A000880B990B0E94752B20E030E44CE955E415
:1040B0000E942A2C20E030EC4FE754E40E94CB2AE7
:1040C00020E030E040E251E40E94CB2A9B01AC01A9
:1040D000C501B4010E945A2A4B015C01015011092B
:1040E000D1F620E030E040EA50E40E94CB2A4B01B8
:1040F0005C0120E030E046E952E40E94252C87FD77
:1041000041C361E080E00E94AA0780E090E0A8E758
:10411000B7E48B879C87AD87BE872DE73FEF47ECE1
:1041200052E4C501B4010E94252C412C512C612C74
:1041300033E4732E181634F0412C512C26E0622EF5
:1041400023E4722E20E030E040E251E4C501B401E6
:104150000E94C62A87FF1FC386E890E09093190348
:1041600080931803A5E7B0E0B0931B03A0931A0354
:104170008EE991E00E941F1730921D0320921C03CC
:104180006B857C858D859E850E94442B70931F03D3
:1041900060931E03D0922003D0922103C301B20189
:1041A0000E943D2B709319036093180385E790E0FC
:1041B00090931B0380931A0350E040E0C501B401C3
:1041C0000E94B01781E990E090931903809318033F
:1041D000A5E7B0E0B0931B03A0931A0380EA91E037
:1041E0000E94701783E790E090931903809318035F
:1041F000E5E7F0E0F0931B03E0931A0380916C0273
:1042000090916D020E947E176AE070E080E090E07D
:104210000E94770880916C0290916D02049709F4D6
:10422000B7C60E94DE1504EF11E0812C912C5401D9
:104230008EE00E944008BC01990F880B990B0E94E8
:10424000752B2AE038E240EA5BE30E942A2C209199
:1042500068023091690240916A0250916B020E949B
:10426000592A209164023091650240916602509172
:1042700067020E94CB2A9B01AC01C501B4010E94D8
:104280005A2A4B015C010150110991F620E030E0FF
:104290004AEF53E40E94CB2A2B013C0120E030E09E
:1042A000A9010E94C62A87FF03C0412C512C32016C
:1042B0008091250390912603892B49F080911A0360
:1042C00090911B03069790931B0380931A031092FF
:1042D00026031092250380916C0290916D02009745
:1042E00009F070C286EB93EFA5E2B0E48093680218
:1042F00090936902A0936A02B0936B0288E791EDF4
:10430000A7E9BDE38093640290936502A0936602DF
:10431000B093670260E085E00E94AA0760E086E053
:104320000E94AA0760E087E00E94AA0780906002CE
:1043300090906102A0906202B09063022DE73FEF7F
:1043400047EC52E4C501B4010E94252C18160CF468
:1043500094C227EE3BEF4FE151E4C501B4010E9446
:10436000252C92E0E92EF12C18160CF489C203E0FA
:10437000E02EF12C85C28F3F09F09BCD0093020106
:10438000E1E9FBE014911F3F09F493CD113009F4EA
:10439000E8C050F0123009F403C117FD8ACD61E086
:1043A00084E00E9404081FC014BC15BC84B5826060
:1043B00084BD85B5816085BDE0E3FCE08491E82F94
:1043C000F0E0EE0FFF1FEE5DF34F85919491E2E177
:1043D000FCE084918093430210E061E084E00E945D
:1043E00004081123A1F0B12CA12C60E072E18AE74E
:1043F00090E0A50191010E94E22C69017A01F1E0AF
:10440000CF1AD108E108F108123009F061C1410169
:10441000B12CA12C60E072E18AE790E0A501910146
:104420000E94E22C29013A017A01690121E0C21AB5
:10443000D108E108F1088FEFC816D104E104F104B6
:1044400009F00CF419C160E472E48FE090E0A5017A
:1044500091010E94E22C69017A0191E0C91AD10808
:10446000E108F108123009F0BEC082E0AFEFCA16D1
:10447000D104E104F10409F00CF46CC060E970EDC2
:1044800083E090E0A50191010E94E22C69017A018C
:10449000B1E0CB1AD108E108F10883E0EFEFCE16C6
:1044A000D104E104F10409F00CF454C068E478EE9E
:1044B00081E090E0A50191010E94E22C69017A015E
:1044C00081E0C81AD108E108F10884E09FEFC9161D
:1044D000D104E104F104F1F1ECF164E274EF80E065
:1044E00090E0A50194010E94E22C69017A0191E01B
:1044F000C91AD108E108F10885E09FEFC916D10477
:10450000E104F10439F130F162E17AE780E090E012
:10451000A50194010E94E22C69017A01A1E0CA1A66
:10452000D108E108F10886E0BFEFCB16D104E10421
:10453000F10481F078F0730162019AE0F594E79458
:10454000D794C7949A95D1F7F1E0CF1AD108E10832
:10455000F10887E09091B100987F892B8093B1009A
:1045600092C010928000109281008091810088603A
:104570008093810080918100816080938100E0E3DD
:10458000FCE08491E82FF0E0EE0FFF1FEE5DF34FAB
:1045900085919491E2E1FCE08491809342021DCFE9
:1045A0001092B0001092B1008091B00082608093B0
:1045B000B0008091B10081608093B100E0E3FCE045
:1045C0008491E82FF0E0EE0FFF1FEE5DF34F859131
:1045D00094919093410280934002E2E1FCE0849147
:1045E00080933F02FACEFFEFCF16D104E104F1042D
:1045F00009F00CF46BC068E478EE81E090E0A5016E
:1046000091010E94E22C69017A0181E0C81AD10867
:10461000E108F10884E0111170CF83E02FEFC2169A
:10462000D104E104F10459F154F162E17AE780E048
:1046300090E0A50194010E94E22C69017A01E1E079
:10464000CE1AD108E108F10884E0FFEFCF16D104BB
:10465000E104F104A1F098F0730162018AE0F5949D
:10466000E794D794C7948A95D1F721E0C21AD1086C
:10467000E108F10885E003C081E011116BCF95B529
:10468000987F892B85BD8B859C85AD85BE852FEF59
:104690003FEFA901892B8A2B8B2B09F043C01130E6
:1046A00009F44EC0123009F45DC0111102CCC7BC30
:1046B00020934C0230934D0240934E0250934F0290
:1046C00080916E00826080936E00F3CB82E0D5CF44
:1046D00091E0C114D104A1E0EA06F10484F068E499
:1046E00078EE81E090E0A50191010E94E22C690141
:1046F0007A01B1E0CB1AD108E108F10893E011305A
:1047000011F680918100887F892B809381008B85B1
:104710009C85AD85BE852FEF3FEFA901892B8A2BA4
:104720008B2B71F09101220F331FAC89BD890E9440
:10473000182D28EE33E040E050E00E94C02CAFCFAF
:10474000D0928900C0928800209348023093490299
:1047500040934A0250934B0280916F008260809395
:104760006F00A7CBC092B300209344023093450260
:10477000409346025093470280917000826080937C
:10478000700097CB60E080E00E94AA071B861C8621
:104790001D861E86C2CC20E030E048EC52E4C50104
:1047A000B4010E94C62A87FFE7CC80E890E090938E
:1047B000190380931803E5E7F0E0F0931B03E093FF
:1047C0001A03D6CC81309105D1F482EA95E4A6E2B1
:1047D000B0E48093680290936902A0936A02B09358
:1047E0006B0288E791EDA7E9BDE3809364029093A3
:1047F0006502A0936602B093670261E08CCD8230BF
:104800009105F1F484E593EEA5E2B0E480936802AB
:1048100090936902A0936A02B0936B0288E791EDCE
:10482000A7E9BDE38093640290936502A0936602BA
:10483000B093670260E085E00E94AA0761E06FCD57
:10484000039709F073CD87E197EBA5E2B0E480937D
:10485000680290936902A0936A02B0936B0288E7A2
:1048600091EDA7E9BDE38093640290936502A09364
:104870006602B093670261E0DECFEE24E394F12C90
:1048800020E030E040E051E4C501B4010E94252C55
:1048900000E018EF87FF02C010E000E061E08CE06C
:1048A00093E00E94A50FD092230330921D03209223
:1048B0001C0310931F0300931E0382E080932003C8
:1048C00080932103409260025092610260926202E2
:1048D0007092630288E290E090931903809318032A
:1048E0001DE2A12EB12CB0921B03A0921A038E01DF
:1048F0000F5F1F4F24E042E0C301B2010E94CD27A9
:1049000060916002709161028091620290916302F5
:10491000A7010E94B0178AE090E09093190380935A
:104920001803B0921B03A0921A0383EA91E00E943D
:1049300070178091250390912603892B49F080916F
:104940001A0390911B03069790931B0380931A03FD
:10495000109226031092250380916C0290916D02B3
:10496000009709F0A1C280915C0290915D02A09134
:104970005E02B0915F028093580290935902A09317
:104980005A02B0935B029FE09F87B4E1FB2E10E0D8
:1049900000E08F850E944008080F191FFA94F1105B
:1049A000F8CFB801110F880B990B0E94752B20E0EE
:1049B00030E040EA51E40E94CB2A20E030E040EAB7
:1049C00050E40E942A2C20E030EC4FE754E40E948F
:1049D000CB2A60935C0270935D0280935E02909399
:1049E0005F028090580290905902A0905A02B090B5
:1049F0005B022DE73FEF47EC52E4C501B4010E9492
:104A0000252C18160CF0A5C281E090E09093570277
:104A10008093560220E030E048EC51E4C501B40137
:104A20000E94252C00E018EF87FF02C010E000E094
:104A300061E08CE093E00E94A50FD09223033092B6
:104A40001D0320921C0310931F0300931E0382E09A
:104A5000809320038093210388E290E090931903D0
:104A600080931803AAE0EA2EF12CF0921B03E09247
:104A70001A038E010F5F1F4F24E042E0C501B4010D
:104A80000E94CD27409156025091570260915802E2
:104A90007091590280915A0290915B020E94B01766
:104AA000F0921903E0921803F0921B03E0921A03AC
:104AB00080E891E00E947017809125039091260371
:104AC000892B49F080911A0390911B0306979093CC
:104AD0001B0380931A031092260310922503209142
:104AE00060023091610240916202509163026091D4
:104AF00058027091590280915A0290915B020E9473
:104B00002A2C2B013C014092520250925302609297
:104B10005402709255022DE73FEF47EC52E40E9499
:104B2000252CEE24E394F12C181684F027EE3BEFAD
:104B30004FE151E4C301B2010E94252CF2E0EF2EB7
:104B4000F12C18161CF073E0E72EF12C20E030E079
:104B500048EC52E4C301B2010E94252C00E018EF9A
:104B600087FF02C010E000E061E08CE093E00E946B
:104B7000A50FD092230330921D0320921C031093A3
:104B80001F0300931E0382E0809320038093210380
:104B900088E290E0909319038093180360E5A62EB5
:104BA000B12CB0921B03A0921A038E010F5F1F4F0E
:104BB00024E043E0C301B2010E94CD27609152027C
:104BC000709153028091540290915502A7010E9466
:104BD000B0178AE090E09093190380931803B09285
:104BE0001B03A0921A0386EA91E00E94701761E00D
:104BF0008CE093E00E94A50F27ED33EA40E350E4F8
:104C0000609158027091590280915A0290915B0212
:104C10000E942A2C0E943D2B20915002309151027B
:104C20002B3531050CF4A5C121E030E03093510261
:104C30002093500200271127061B170BE12C58EF79
:104C4000F52E27E030E04CE550E06BE670E08CE0BC
:104C500093E00E94E40C0091500210915102F12C5B
:104C6000E12C27E030E04AE050E06BE670E08CE0B9
:104C700093E00E94E40C61E08CE093E00E94A50FB9
:104C80002DEC3CEC44E051E46091600270916102D3
:104C900080916202909163020E942A2C0E943D2B17
:104CA00020915002309151022B3531050CF466C130
:104CB00021E030E030935102209350020027112769
:104CC000061B170BE12C48EFF42E27E030E04CE5F3
:104CD00050E06EE770E08CE093E00E94E40C0091FD
:104CE000500210915102F12CE12C27E030E04AE013
:104CF00050E06EE770E08CE093E00E94E40C61E02D
:104D00008CE093E00E94A50F27EE3BEF49EA5EE3BB
:104D10006091520270915302809154029091550219
:104D20000E942A2C0E943D2B20915002309151026A
:104D30002B3531050CF427C121E030E030935102CE
:104D40002093500200271127061B170BE12C28EF98
:104D5000F22E27E030E04CE550E061E970E08CE0B5
:104D600093E00E94E40C0091500210915102F12C4A
:104D7000E12C27E030E04AE050E061E970E08CE0AF
:104D800093E00E94E40C61E08CE093E00E94A50FA8
:104D900030921D0320921C0310921F0310921E03D9
:104DA000EE24EA94FE2C05E510E029E030E049E02D
:104DB00050E06AE670E08CE093E00E94531329E033
:104DC00030E049E050E06DE770E08CE093E00E9455
:104DD000531329E030E049E050E060E970E08CE0F6
:104DE00093E00E94531310922603109225038CE641
:104DF00090E0909319038093180303E610E010935A
:104E00001B0300931A0330921D0320921C0310927F
:104E10001F0310921E03D0922003D092210389EA2F
:104E200091E00E9470178FE790E0909319038093B0
:104E3000180310931B0300931A0330921D03209252
:104E40001C0310921F0310921E03D0922003D092D5
:104E500021038BEA91E00E94701782E990E0909321
:104E600019038093180310931B0300931A033092C5
:104E70001D0320921C0310921F0310921E03D09258
:104E80002003D09221038DEA91E00E94701780E008
:104E900090E0892B09F4AFC80E94B506882309F475
:104EA000A5C80E940000A2C881309105C9F420E87D
:104EB00038E44FE55FE360915C0270915D028091A0
:104EC0005E0290915F020E94CB2A60935802709319
:104ED000590280935A0290935B02A0E1AF8755CDAF
:104EE00082309105C9F428EF33E543EA5EE360912F
:104EF0005C0270915D0280915E0290915F020E945F
:104F0000CB2A609358027093590280935A0290936F
:104F10005B02B1E1BF8739CD0397029708F035CD29
:104F200026ED3FEF49EB5DE360915C0270915D021D
:104F300080915E0290915F020E94CB2A609358029A
:104F40007093590280935A0290935B02E2E1EF87DB
:104F50001CCD27EE3BEF4FE151E4C501B4010E94A7
:104F6000252C18161CF482E090E050CD83E090E0F0
:104F70004DCD23E530E0261B370B58CE23E530E03E
:104F8000261B370B97CE23E530E0261B370BD6CEFA
:104F90000E947F180E94DE157ACFEF920F931F9325
:104FA000CF93DF93E80134E047FD34E1042E000C99
:104FB000550B57FF03C0519541955109E32E022F20
:104FC000242FAE010E94EB27CE01DF91CF911F91DC
:104FD0000F91EF900895A9E0B0E0E1EFF7E20C94B3
:104FE000282A6A01F22EB02E102FFBE3AF2EA01656
:104FF00008F41BE31F5F012F27E0AE014F5F5F4FF7
:105000000E944A29BC018981982F9970913009F436
:105010003FC09BE2E1FC04C09E2D9170E0FC3AC0D1
:105020005E2D5071E82FE87083FF46C084E0911137
:1050300001C083E0EF2DE81B8F1508F0E0E0D601FA
:105040008E2F20E2552351F1992329F0D6019C930C
:10505000C60101966C0196012D5F3F4FE2FE24C010
:105060008EE4D6018C9391E411969C93119712963D
:105070008C93D9018E2F90E281111BC0E20FF32F88
:10508000F11D10828EEF9FEF2996ECE00C94442ADC
:105090009DE2C6CF90E2C4CF2D9381508111FCCF09
:1050A000CE0ED11CE0E0D0CF8EE6D6018C9391E6F7
:1050B000DBCF9D938150E0CF482F447082FF3DC0ED
:1050C00084E0911101C083E08F1510F4EF2DE81BEF
:1050D000D6018E2F20E2552309F1992329F0D6011C
:1050E0009C93C60101966C0196012D5F3F4FE2FE35
:1050F0001BC089E4D6018C938EE411968C93119792
:1051000086E412968C93D9018E2F90E2882309F4BD
:10511000B5CF9D938150FACF2D9381508111FCCF53
:10512000CE0ED11CE0E0D9CF89E6D6018C938EE675
:1051300011968C93119786E6E4CF9B0177FF02C00E
:1051400030E020E0A1E0B0E0911102C0B0E0A0E0CA
:10515000F9013196AE0FBF1F8B2C912CBB2009F4A7
:1051600061C05401EFEFAE1ABE0AAA0DBB1DFA16BC
:105170001B0619F014F04F2D4A1B511188C0E3FC97
:1051800059C07601A42FB0E2A1114FC0C40ED11CAA
:10519000992309F45BC040E0D6011196F601908393
:1051A0006D01552309F448C0012F060F9A81582F2D
:1051B000507184FF03C0913309F4015010160CF0B4
:1051C00047C0093008F008E0EEE2FE2E5B01A01AAD
:1051D000B10885019194819491082F3F320729F4F9
:1051E000D601FC92F60131966F016217730794F1B4
:1051F000021713077CF5DB01A21BB30BAA24A394AF
:10520000B12CAC0EBD1EAA0DBB1D11968C91215068
:105210003109D601119628153905F4F0F60180837D
:105220006D01DBCFB12CA12CA0CFF701B1937F0191
:10523000A150AACF9111B0CFD601942F50E302C054
:105240005D9391509111FCCFC40ED11C40E0ACCFC6
:1052500001E0BACF80E3DBCF6217730731F49633F6
:1052600088F4953311F4552369F0F6018083FD012C
:10527000842F90E2811108C0A40FB11D1C9290E010
:1052800080E002CF81E3F1CF91938150F3CF911170
:1052900083CF8ACF283008F027E03327DA01990F2F
:1052A000311D87FD916000966105710539F432600A
:1052B0002E5F3D9330E32A95E1F708959F3F30F04C
:1052C00080387105610509F03C5F3C5F3D9391308A
:1052D00008F08068911DDF93CF931F930F93FF9287
:1052E000EF92192F987F9695E92F96959695E90F4D
:1052F000FF27EE53FF4F99273327EE24FF24A70102
:10530000E70105900894079428F4360FE71EF81E6D
:10531000491F511D660F771F881F991F0694A1F71B
:105320000590079428F4E70EF81E491F561FC11D6B
:10533000770F881F991F661F0694A1F705900794A1
:1053400028F4F80E491F561FC71FD11D880F991F3B
:10535000661F771F0694A1F70590079420F4490F64
:10536000561FC71FD81F990F661F771F881F0694E7
:10537000A9F784911095177041F0D695C795579568
:105380004795F794E7941A95C1F7E8E6F0E068943A
:105390001590159135916591959105907FE27395E2
:1053A000E118F10A430B560BC90BD009C0F7E10C09
:1053B000F11E431F561FC91FD01D7EF4703311F418
:1053C0008A95E6CFE894015030F0080F0AF40027E0
:1053D000021708F4202F2395022F7A3328F079E35F
:1053E0007D932A95E9F710C07D932A9589F6069456
:1053F00097956795379517951794E118F10A430B20
:10540000560BC90BD00998F023957E9173957A338A
:1054100008F070E37C932013B8F77E9170617D9360
:1054200030F0839571E37D9370E32A95E1F71124C1
:10543000EF90FF900F911F91CF91DF91992787FDFA
:10544000909508952F923F924F925F926F927F9224
:105450008F929F92AF92BF92CF92DF92EF92FF9284
:105460000F931F93CF93DF93CDB7DEB7CA1BDB0B30
:105470000FB6F894DEBF0FBECDBF09942A883988D5
:1054800048885F846E847D848C849B84AA84B984DC
:10549000C884DF80EE80FD800C811B81AA81B981E8
:1054A000CE0FD11D0FB6F894DEBF0FBECDBFED01FC
:1054B00008955058BB27AA270E94712A0C94EB2B01
:1054C0000E94DD2B38F00E94E42B20F039F49F3F3E
:1054D00019F426F40C94DA2B0EF4E095E7FB0C9407
:1054E000D42BE92F0E94FC2B58F3BA1762077307DD
:1054F0008407950720F079F4A6F50C941E2C0EF481
:10550000E0950B2EBA2FA02D0B01B90190010C01D3
:10551000CA01A0011124FF27591B99F0593F50F4EB
:10552000503E68F11A16F040A22F232F342F442743
:10553000585FF3CF469537952795A795F04053953B
:10554000C9F77EF41F16BA0B620B730B840BBAF00B
:105550009150A1F0FF0FBB1F661F771F881FC2F776
:105560000EC0BA0F621F731F841F48F4879577958A
:105570006795B795F7959E3F08F0B0CF9395880F44
:1055800008F09927EE0F9795879508950E94B02B04
:1055900008F481E008950E94DF2A0C94EB2B0E940E
:1055A000E42B58F00E94DD2B40F029F45F3F29F0F6
:1055B0000C94D42B51110C941F2C0C94DA2B0E94B8
:1055C000FC2B68F39923B1F3552391F3951B550BED
:1055D000BB27AA2762177307840738F09F5F5F4FC6
:1055E000220F331F441FAA1FA9F335D00E2E3AF005
:1055F000E0E832D091505040E695001CCAF72BD01D
:10560000FE2F29D0660F771F881FBB1F261737076D
:105610004807AB07B0E809F0BB0B802DBF01FF279F
:1056200093585F4F3AF09E3F510578F00C94D42B7D
:105630000C941F2C5F3FE4F3983ED4F38695779546
:105640006795B795F7959F5FC9F7880F911D969558
:10565000879597F90895E1E0660F771F881FBB1FB4
:10566000621773078407BA0720F0621B730B840B61
:10567000BA0BEE1F88F7E09508950E94442B6894BA
:10568000B1110C941F2C08950E94042C88F09F5790
:1056900098F0B92F9927B751B0F0E1F0660F771F56
:1056A000881F991F1AF0BA95C9F714C0B13091F04C
:1056B0000E941E2CB1E008950C941E2C672F782FA9
:1056C0008827B85F39F0B93FCCF386957795679511
:1056D000B395D9F73EF490958095709561957F4F7D
:1056E0008F4F9F4F0895E89409C097FB3EF4909523
:1056F0008095709561957F4F8F4F9F4F9923A9F0AB
:10570000F92F96E9BB279395F69587957795679539
:10571000B795F111F8CFFAF4BB0F11F460FF1BC07D
:105720006F5F7F4F8F4F9F4F16C0882311F096E910
:1057300011C0772321F09EE8872F762F05C06623BE
:1057400071F096E8862F70E060E02AF09A95660F77
:10575000771F881FDAF7880F9695879597F9089530
:10576000990F0008550FAA0BE0E8FEEF1616170672
:10577000E807F907C0F012161306E407F50798F0DA
:10578000621B730B840B950B39F40A2661F0232BF3
:10579000242B252B21F408950A2609F4A140A6956F
:1057A0008FEF811D811D089597F99F6780E870E054
:1057B00060E008959FEF80EC089500240A94161687
:1057C000170618060906089500240A9412161306EF
:1057D000140605060895092E0394000C11F488237D
:1057E00052F0BB0F40F4BF2B11F460FF04C06F5F99
:1057F0007F4F8F4F9F4F089557FD9058440F551F6F
:1058000059F05F3F71F04795880F97FB991F61F042
:105810009F3F79F087950895121613061406551FB9
:10582000F2CF4695F1DF08C0161617061806991F25
:10583000F1CF86957105610508940895E894BB271A
:1058400066277727CB0197F908950E94B02B08F4BB
:105850008FEF08950E943D2C0C94EB2B0E94DD2BC2
:1058600038F00E94E42B20F0952311F00C94D42BF7
:105870000C94DA2B11240C941F2C0E94FC2B70F337
:10588000959FC1F3950F50E0551F629FF001729FE5
:10589000BB27F00DB11D639FAA27F00DB11DAA1FF4
:1058A000649F6627B00DA11D661F829F2227B00D41
:1058B000A11D621F739FB00DA11D621F839FA00DCC
:1058C000611D221F749F3327A00D611D231F849F1C
:1058D000600D211D822F762F6A2F11249F57504073
:1058E0009AF0F1F088234AF0EE0FFF1FBB1F661FEE
:1058F000771F881F91505040A9F79E3F510580F0B7
:105900000C94D42B0C941F2C5F3FE4F3983ED4F3FB
:10591000869577956795B795F795E7959F5FC1F75A
:10592000FE2B880F911D9695879597F908950E94F3
:10593000B02B880B990B0895DB018F939F930E94E6
:105940001F2DBF91AF91A29F800D911DA39F900D20
:10595000B29F900D1124089597FB072E16F4009422
:1059600007D077FD09D00E942A2D07FC05D03EF410
:10597000909581959F4F0895709561957F4F0895FB
:10598000A1E21A2EAA1BBB1BFD010DC0AA1FBB1F43
:10599000EE1FFF1FA217B307E407F50720F0A21BB5
:1059A000B30BE40BF50B661F771F881F991F1A9422
:1059B00069F760957095809590959B01AC01BD014C
:1059C000CF010895052E97FB1EF400940E94F92C38
:1059D00057FD07D00E94C02C07FC03D04EF40C9456
:1059E000F92C50954095309521953F4F4F4F5F4F83
:1059F000089590958095709561957F4F8F4F9F4F3B
:105A000008950E94092D332312F48A1B9B0B0C94DA
:105A10001A2DA29FB001B39FC001A39F700D811DDD
:105A20001124911DB29F700D811D1124911D0895A7
:105A30000E94092DB7FF0895821B930B08950E94C1
:105A4000092DA59F900DB49F900DA49F800D911DD1
:105A500011240895AA1BBB1B51E107C0AA1FBB1F3D
:105A6000A617B70710F0A61BB70B881F991F5A95EA
:105A7000A9F780959095BC01CD010895EE0FFF1F09
:105A80000590F491E02D099481E090E0F8940C9455
:065A9000492DF894FFCF40
:105A96000100FF270575052D0814001400140000E9
:105AA6000001000800200040008000000100040002
:105AB600000100080040000001000400000000EBA7
:105AC600064B0678063807A90687069B06000000DF
:105AD6000081124B06DB15DA15070B8C0E5A0EF1F8
