:100000000C9421060C9449060C9449060C9449065C
:100010000C9449060C9449060C9449060C948A1CCD
:100020000C9449060C9449060C9449060C94490614
:100030000C9449060C9449060C9449060C94490604
:100040000C943E1D0C9449060C940C1D0C94E61C5B
:100050000C9449060C9449060C9449060C944906E4
:100060000C94881D0C94490600407A10F35A00A0A5
:10007000724E18090010A5D4E80000E87648170071
:1000800000E40B54020000CA9A3B000000E1F505B1
:10009000000080969800000040420F000000A086FB
:1000A00001000000102700000000E803000000002D
:1000B0006400000000000A000000000001000000D1
:1000C00000002C76D888DC674F0823DFC1DFAE59EB
:1000D000E1B1B796E5E3E453C63AE651997696E87E
:1000E000E6C28426EB898C9B62ED407C6FFCEFBC02
:1000F0009C9F40F2BAA56FA5F490055A2AF75C932D
:100100006B6CF9676DC11BFCE0E40D47FEF520E662
:10011000B500D0ED902E0300943577050080841E45
:10012000080000204E0A000000C80C333333330FA0
:10013000986E12831141EF8D2114893BE65516CF3D
:10014000FEE6DB18D1844B381BF77C1D901DA4BB49
:10015000E424203284725E228100C9F124ECA1E5FE
:100160003D2700000101040000010005090300F81B
:10017000070007030702F80A0007080701F8110043
:1001800007090600F8190008090901F82200070903
:100190000700F82A0003030402F82C00060C0400F0
:1001A000F63500050C0400F63D0006050803F6418F
:1001B0000005060601F9450003030400FF4700049B
:1001C000010501FC48000201030000490007090580
:1001D00000F8510007090600F8590004090401F865
:1001E0005E0007090600F8660007090600F86E00C1
:1001F00006090601F8750007090600F87D000709E1
:100200000600F8850007090500F88D0007090600BB
:10021000F8950007090600F89D0003050300FC9F00
:100220000004060400FCA20006050601FAA600056B
:10023000040501FAA90005050601FAAD0006090644
:1002400001F8B40007090600F8BC0007090600F829
:10025000C40007090600F8CC0007090600F8D4001E
:1002600007090600F8DC0007090500F8E4000709A3
:100270000500F8EC0007090600F8F400070906007D
:10028000F8FC0005090300F8020105090400F8085C
:100290000107090600F8100105090500F816010913
:1002A000090700F8210108090700F82A01070906D3
:1002B00000F8320107090600F83A01070A0600F8BB
:1002C000430107090600F84B0107090600F853012E
:1002D00006090601F85A0107090600F86201060935
:1002E0000601F869010A090900F875010709060005
:1002F000F87D0106090601F8840107090500F88C5C
:1003000001060C0400F6950103090502F89901069F
:100310000C0400F6A20104020603F5A3010601077E
:10032000FF02A40104020503F5A50107080600F970
:10033000AC0107080600F9B30107080600F9BA0185
:1003400007080600F9C10106080500F9C7010608FB
:100350000500F9CD0107080600F9D40107080600D9
:10036000F9DB0104080300F9DF0105080400F9E4E2
:100370000107080600F9EB0104080500F9EF010880
:10038000080700F9F70108080700F9FF0107080648
:1003900000F9060207080600F90D0207090600F930
:1003A000150207080600F91C0207080600F92302D7
:1003B00006080601F9290207080600F930020608B6
:1003C0000601F936020A080900F94002070806008A
:1003D000F9470206080601F94D0206080500F9531F
:1003E00002060C0500F65C02050C0300F66402052B
:1003F0000C0500F66C0205030603F400318C66312F
:1004000080C06C9A403679FB66DFB66C0C7CD9876D
:10041000C19E7C703E6E7C7CFF1B3B3A7E1E6CF95D
:10042000E3ED9E6CF86A0018C30C318618630C303B
:1004300018C63318C663198019FFDE78318DF6307F
:100440006F00F0C00C1860C3061830C01E6CF9E6CF
:10045000CD9E7CF8737666CCC03E6C3861C71C704C
:10046000F81E6C3061819E7CF86DB7FEDBE30C30CA
:100470003E60C3E0C19E7CF81E6CC1E6CD9E7CF858
:100480003C1870C3061830C01E6CF1E38D9E6CF8EA
:100490003E6CFB67C39E6CF8600C30006C19CE1884
:1004A000307801E07186EE003DB186798C00C01E87
:1004B0006CF1E6CF9870F81E6CF9E7CD9E6CD83ED3
:1004C0006CF1E78D9E6CF81E6CC1860C187CF83EB2
:1004D0006CF9E6CD9E7CF83C60C1878C1860F03CDE
:1004E00060C1878C1860C01E6CC186CD9E7CF836BA
:1004F0006CD9E7CD9E6CD8318C663198C018CE632C
:10050000198CE0366CD9E78D9E6CD8318C66319CA5
:10051000F03B1F8FC7E6E3319998CC003B3E3E3E4F
:100520007E7C7CDCDC1E6CF9E6CD9E7CF83E6CF1BA
:10053000E7CC1860C01E6CF1E6CD9E7CF0C03E6C2E
:10054000F1E78D9E6CD81E6CC187C19E7CF87CC380
:100550000C318618C0366CD9E6CD9E7CF86DB7DEBE
:10056000DB6F38E036CDE378F66D9BC7B3ECFE0069
:10057000366CD9E38D9E6CD86DB7DEF98618E03CF9
:100580001870C3061870F018C30C318618630C304D
:10059000DB6DB6C018618630C30C6186307FFC63AA
:1005A0003C79B3E7CF366C3E79B3C78F36783E7966
:1005B000B3060F3E7C3C79B366CF3E7C3CC61E61E1
:1005C0008C3C3CC61E618C303E79B367CF3E7C3696
:1005D00079B3E7CF366C336666CC198C63319C36C1
:1005E00079B3C78F366C337666EF33377F7E7E768E
:1005F000CCCC3636767E7C7CDCDC3C79B366CF3E78
:100600007C3E79B3E60C30603E79B366CF3E7860CD
:100610003E79B3C78F366C3E7983E1CF367C7CC39D
:100620001C6186303679F366CF3E7C6DEDB6F3CE35
:1006300038378F67D9B66F1ECFB3F83679B1C78F09
:10064000366C6DE7B6F186303C318C318C3C0C61F8
:100650008630C60C618638198C63318C66318018FF
:10066000C63318666319801FF000000000003E5B6F
:100670004F5B3E3E6B4F6B3E1C3E7C3E1C183C7EEF
:100680003C181C577D571C1C5E7F5E1C00183C18D4
:1006900000FFE7C3E7FF0018241800FFE7DBE7FFD0
:1006A00030483A060E2629792926407F050507405D
:1006B0007F05253F5A3CE73C5A7F3E1C1C08081C1E
:1006C0001C3E7F14227F22145F5F005F5F06097F5C
:1006D000017F006689956A606060606094A2FFA2F5
:1006E0009408047E040810207E201008082A1C08A4
:1006F000081C2A08081E101010100C1E0C1E0C30AE
:10070000383E3830060E3E0E0600000000000000A5
:100710005F00000007000700147F147F14242A7F65
:100720002A12231308646236495620500008070332
:1007300000001C2241000041221C002A1C7F1C2AB0
:1007400008083E0808008070300008080808080003
:100750000060600020100804023E5149453E0042FE
:100760007F400072494949462141494D33181412CE
:100770007F1027454545393C4A49493141211109F6
:10078000073649494936464949291E0000140000E8
:100790000040340000000814224114141414140002
:1007A0004122140802015909063E415D594E7C124E
:1007B00011127C7F494949363E414141227F4141E6
:1007C000413E7F494949417F090909013E41415163
:1007D000737F0808087F00417F41002040413F01AE
:1007E0007F081422417F404040407F021C027F7FEF
:1007F0000408107F3E4141413E7F090909063E4100
:1008000051215E7F09192946264949493203017F52
:1008100001033F4040403F1F2040201F3F403840E1
:100820003F631408146303047804036159494D437A
:10083000007F4141410204081020004141417F04F2
:1008400002010204404040404000030708002054D9
:100850005478407F28444438384444442838444439
:10086000287F385454541800087E090218A4A49C08
:10087000787F0804047800447D40002040403D001B
:100880007F1028440000417F40007C047804787C7D
:10089000080404783844444438FC182424181824E4
:1008A0002418FC7C08040408485454542404043FCD
:1008B00044243C4040207C1C2040201C3C403040D4
:1008C0003C44281028444C9090907C4464544C4400
:1008D00000083641000000770000004136080002A1
:1008E000010204023C2623263C1EA1A161123A40CB
:1008F00040207A3854545559215555794122545441
:100900007842215554784020545579400C1E52723B
:100910001239555555593954545459395554545818
:100920000000457C410002457D420001457C407D40
:100930001211127DF0282528F07C545545002054D2
:10094000547C547C0A097F4932494949323A44442B
:10095000443A324A4848303A4141217A3A424020AA
:1009600078009DA0A07D3D4242423D3D4040403D3B
:100970003C24FF2424487E4943662B2FFC2F2BFF69
:100980000929F620C0887E090320545479410000CB
:10099000447D413048484A32384040227A007A0A41
:1009A0000A727D0D19317D2629292F28262929290A
:1009B0002630484D4020380808080808080808383C
:1009C0002F10C8ACBA2F102834FA00007B000008A2
:1009D000142A142222142A14085500550055AA5529
:1009E000AA55AAFF55FF55FF000000FF0010101088
:1009F000FF00141414FF001010FF00FF1010F0107F
:100A0000F0141414FC001414F700FF0000FF00FFA2
:100A10001414F404FC141417101F10101F101F14CA
:100A200014141F00101010F0000000001F10101010
:100A3000101F10101010F010000000FF1010101008
:100A40001010101010FF10000000FF140000FF0035
:100A5000FF00001F10170000FC04F41414171017F7
:100A60001414F404F40000FF00F714141414141404
:100A700014F700F7141414171410101F101F141477
:100A800014F4141010F010F000001F101F000000EC
:100A90001F14000000FC140000F010F01010FF10F4
:100AA000FF141414FF141010101F00000000F010A9
:100AB000FFFFFFFFFFF0F0F0F0F0FFFFFF0000008E
:100AC0000000FFFF0F0F0F0F0F3844443844FC4A5B
:100AD0004A4A347E02020606027E027E02635549BD
:100AE00041633844443C04407E201E2006027E02BE
:100AF0000299A5E7A5991C2A492A1C4C7201724C3F
:100B0000304A4D4D303048784830BC625A463D3E00
:100B1000494949007E0101017E2A2A2A2A2A4444A1
:100B20005F444440514A444040444A51400000FF21
:100B30000103E080FF000008086B6B0836123624C2
:100B400036060F090F0600001818000000101000EC
:100B50003040FF0101001F01011E00191D17120086
:100B60003C3C3C3C0000000000000000002400274A
:100B7000002A000000000023002600290004E010E5
:100B8000021C07123732292D29252B3900010310A9
:100B9000E110031D07062E2C292D2E2E373F0000B5
:100BA000021013800A298064022A040000007F2BAF
:100BB000040000009F0F0180961180FFB103012CFB
:100BC0002DB203012C2DB306012C2D012C2DB401C7
:100BD00007C003A20284C101C5C2020A00C3028A7F
:100BE0002AC4028AEEC5010E20003601C83A01056A
:100BF000FB03620120007E001000000008000201DB
:100C000000000304070000000000000000020102D1
:100C1000040810204080010204081020010204088A
:100C2000102000000000250028002B00040404040C
:100C30000404040402020202020203030303030386
:100C4000A31E11241FBECFEFD8E0DEBFCDBF11E041
:100C5000A0E0B1E0EAE3F5E602C005900D92AC3CFD
:100C6000B107D9F723E0ACECB1E001C01D92AD377C
:100C7000B207E1F716E0C1E2D6E004C02197FE0119
:100C80000E949032C032D107C9F70E94761F0C949F
:100C90009B320C940000AF92BF92CF92DF92EF9202
:100CA000FF920F931F93CF93DF936C017B018B0116
:100CB000040F151FEB015E01AE18BF08C017D10766
:100CC00059F06991D601ED91FC910190F081E02DF0
:100CD000C6010995892B79F7C501DF91CF911F9145
:100CE0000F91FF90EF90DF90CF90BF90AF9008955D
:100CF000FC01538D448D252F30E0842F90E0821B22
:100D0000930B541710F0CF96089501970895FC01A6
:100D1000918D828D981761F0A28DAE0FBF2FB11DFE
:100D20005D968C91928D9F5F9F73928F90E0089556
:100D30008FEF9FEF0895FC01918D828D981731F010
:100D4000828DE80FF11D858D90E008958FEF9FEF64
:100D50000895FC01918D228D892F90E0805C9F4F3A
:100D6000821B91098F739927089588E992E00E9468
:100D7000A90621E0892B09F420E0822F089580E064
:100D800090E0892B29F00E94B50681110C94000097
:100D90000895FC01A48DA80FB92FB11DA35ABF4F10
:100DA0002C91848D90E001968F739927848FA6896A
:100DB000B7892C93A089B1898C91837080648C93BE
:100DC000938D848D981306C00288F389E02D80816D
:100DD0008F7D80830895EF92FF920F931F93CF939F
:100DE000DF93EC0181E0888F9B8D8C8D98131AC066
:100DF000E889F989808185FF15C09FB7F894EE894D
:100E0000FF896083E889F9898081837080648083A9
:100E10009FBF81E090E0DF91CF911F910F91FF90F4
:100E2000EF900895F62E0B8D10E00F5F1F4F0F739C
:100E30001127E02E8C8D8E110CC00FB607FCFACF57
:100E4000E889F989808185FFF5CFCE010E94C90626
:100E5000F1CFEB8DEC0FFD2FF11DE35AFF4FF08228
:100E60009FB7F8940B8FEA89FB8980818062CFCF8E
:100E7000CF93DF93EC01888D8823B9F0AA89BB89D1
:100E8000E889F9898C9185FD03C0808186FD0DC0BC
:100E90000FB607FCF7CF8C9185FFF2CF808185FFDD
:100EA000EDCFCE010E94C906E9CFDF91CF91089521
:100EB000833081F028F4813099F08230A9F00895D0
:100EC0008730A9F08830C9F08430B1F48091800077
:100ED0008F7D03C0809180008F778093800008957C
:100EE00084B58F7784BD089584B58F7DFBCF8091C5
:100EF000B0008F778093B00008958091B0008F7D0F
:100F0000F9CFCF93DF93282F30E0F901E750F44F6A
:100F10008491F901E25FF34FD491F901E45DF34F5D
:100F2000C491CC23A1F081110E945807EC2FF0E06E
:100F3000EE0FFF1FED58F44FA591B491EC91ED2306
:100F400081E090E009F480E0DF91CF91089580E0A6
:100F500090E0FACF1F93CF93DF93282F30E0F90171
:100F6000E750F44F8491F901E25FF34FD491F90116
:100F7000E45DF34FC491CC23A9F0162F81110E9498
:100F80005807EC2FF0E0EE0FFF1FEE5DF34FA59139
:100F9000B4918FB7F894EC91111108C0D095DE236D
:100FA000DC938FBFDF91CF911F910895DE2BF8CF97
:100FB0009091010189130BC0EDE0FCE0E4919FEFFB
:100FC00090930101E13049F028F0E23061F060E0F7
:100FD0000C94AA0710926E00FACF90916F009D7F3B
:100FE00090936F00F4CF909170009D7F909370006C
:100FF00091E09093B0009091B100987F94609093AD
:10100000B1001092B300E3CFCF93DF9390E0FC01E7
:10101000E25FF34F2491845D934FFC018491882318
:10102000C9F090E0880F991FFC01E759F44FA59192
:10103000B491FC01EE5DF34FC591D49161110DC0E7
:101040009FB7F8948C91209582238C9388812823D4
:1010500028839FBFDF91CF910895623051F49FB7ED
:10106000F8943C91822F809583238C93E8812E2BDA
:10107000EFCF8FB7F894EC912E2B2C938FBFEACF44
:101080004F925F926F927F928F929F92AF92BF9298
:10109000CF92DF92EF92FF920F931F93CF93DF9344
:1010A00000D000D01F92CDB7DEB78C012A013B01E2
:1010B000809101018430C9F08F3F09F47FC00F9007
:1010C0000F900F900F900F90DF91CF911F910F9184
:1010D000FF90EF90DF90CF90BF90AF909F908F9058
:1010E0007F906F905F904F900895EDE0FCE08491C9
:1010F0008D8387FDE4CF61E084E00E9404088D8148
:10110000882321F09D81923009F05CC14801B12C07
:10111000A12C60E072E18AE790E0A50198010E94AD
:10112000343229833A834B835C8369017A0181E0FD
:10113000C81AD108E108F1089FEFC916D104E104EB
:10114000F10409F00CF413C160E472E48FE090E064
:10115000A50198010E94343269017A0181E0C81A20
:10116000D108E108F1089D81923009F098C08FEF15
:10117000C816D104E104F10409F00CF4DDC160E902
:1011800070ED83E090E0A50198010E94343269017E
:101190007A0191E0C91AD108E108F1088FEFC81669
:1011A000D104E104F10411F00CF0A3C183E09091AB
:1011B000B100987F892B8093B100E1C084E08093D7
:1011C0000101EDE0FCE094919D839F3F09F477CF0E
:1011D000913029F158F0923009F43FC08D8187FD9C
:1011E0006ECF61E084E00E9404088CCF14BC15BC73
:1011F00084B5826084BD85B5816085BDE0E3FCE097
:10120000E491F0E0EE0FFF1FEE5DF34F85919491B6
:10121000E2E1FCE0E491E0938B021D826CCF10923E
:10122000800010928100809181008860809381000D
:1012300080918100816080938100E0E3FCE0E49193
:10124000F0E0EE0FFF1FEE5DF34F85919491E2E128
:10125000FCE0E491E0938A024ECF1092B00010922D
:10126000B1008091B00082608093B0008091B100A5
:1012700081608093B100E0E3FCE0E491F0E0EE0FE8
:10128000FF1FEE5DF34F85919491909389028093B7
:101290008802E2E1FCE0E491E09387022CCF9FEF2B
:1012A000C916D104E104F10409F00CF489C068E422
:1012B00078EE81E090E0A50198010E943432690146
:1012C0007A0181E0C81AD108E108F1089D819923CB
:1012D00009F428C19FEFC916D104E104F10409F013
:1012E0000CF41EC162E17AE780E090E0A501940170
:1012F0000E94343269017A0181E0C81AD108E108FC
:10130000F1089D81992309F4EBC08FEFC816D10431
:10131000E104F10411F008F0BFC086E048CF64E2B8
:1013200074EF80E090E0A50194010E9434326901DD
:101330007A0181E0C81AD108E108F10885E09FEF41
:10134000C916D104E104F10409F008F430CF62E1D8
:101350007AE780E090E0A50194010E9434326901AF
:101360007A0191E0C91AD108E108F108CECF81E0F5
:101370009D8191111CCF95B5987F892B85BD2FEF4D
:101380003FEFA901411451046104710409F043C005
:101390009D81913009F45EC0923009F46DC09111C5
:1013A0008ECEC7BC20939402309395024093960250
:1013B0005093970280916E00826080936E007FCE82
:1013C00082E0D6CFB12CA12C60E072E18AE790E0F8
:1013D000A50198010E94343269017A0181E0C81A9E
:1013E000D108E108F108C114D10491E0E906F10443
:1013F00004F591E08D81813011F680918100887F24
:10140000892B809381002FEF3FEFA90141145104F4
:1014100061047104F9F0D801AA0FBB1FA301920166
:101420000E94713228EE33E040E050E00E94123218
:10143000AFCF68E478EE81E090E0A50198010E94CA
:10144000343269017A0181E0C81AD108E108F10853
:1014500093E0D0CFD0928900C09288002093900270
:1014600030939102409392025093930280916F00C7
:10147000826080936F0023CEC092B30020938C02D1
:1014800030938D0240938E0250938F0280917000B2
:1014900082608093700013CEC980DA80EB80FC807C
:1014A0009AE0F594E794D794C7949A95D1F791E090
:1014B000C91AD108E108F10887E079CEC980DA803D
:1014C000EB80FC808AE0F594E794D794C7948A95E2
:1014D000D1F791E0C91AD108E108F10885E04BCFB6
:1014E0008FEFC816D104E104F10409F038F784E065
:1014F00042CF68E478EE81E090E0A50198010E9477
:10150000343269017A0191E0C91AD108E108F10881
:101510008FEFC816D104E104F10411F00CF0FFCEF6
:1015200084E045CE8FEFC816D104E104F10411F038
:101530000CF0D8CE83E01FCF82E039CE8E5080648D
:1015400080937C0080917A00806480937A008091FF
:101550007A0086FDFCCF8091780090917900089503
:101560003FB7F8948091430290914402A0914502C4
:10157000B091460226B5A89B05C02F3F19F00196F1
:10158000A11DB11D3FBFBA2FA92F982F8827BC01DD
:10159000CD01620F711D811D911D42E0660F771F05
:1015A000881F991F4A95D1F708958F929F92AF9205
:1015B000BF92CF92DF92EF92FF926B017C010E946B
:1015C000B00A4B015C01C114D104E104F104B9F08B
:1015D0000E94B00A681979098A099B09683E73401C
:1015E0008105910580F321E0C21AD108E108F108D4
:1015F00088EE880E83E0981EA11CB11CE4CFFF90FA
:10160000EF90DF90CF90BF90AF909F908F90089514
:101610002FB7F89460913F0270914002809141028F
:10162000909142022FBF08952091F401260F332795
:10163000331F21323105ECF420911802FC0190E0B7
:1016400080E0243069F082E00895A091F4012191B6
:10165000AC014C525E4FA40FB52FB11D2C930196D7
:10166000861798F38091F401680F6093F40180E08D
:10167000089581E0089508958FEF9FEF08958FEF0B
:101680009FEF08958091CD0190E09195819591090A
:101690000895CF93DF93CB01EA01642F0E94140BCE
:1016A000CE01DF91CF910895CF93DF931F92CDB7F5
:1016B000DEB7698361E0CE0101960E94140B81E0E0
:1016C00090E00F90DF91CF910895CF92DF92EF924B
:1016D000FF92CF936B017C01AC019B016EEF7FEF1A
:1016E00081E090E00E94EE319B01AC0160E074E289
:1016F00084EF90E00E941232C0E0EC2FF0E0EE0F99
:10170000FF1FE25EFE4F80819181CF5F82179307BA
:10171000A0F3A7019601220F331F441F551FEC2F82
:10172000F0E0EE0FFF1FE25EFE4FA081B1810E944C
:1017300071329B01AC0160E074E284EF90E00E94A2
:101740001232309387002093860080918100887F39
:10175000C770C82BC093810081E0CF91FF90EF90BC
:10176000DF90CF900895FC01A5A1B6A18C9192A520
:1017700089238C93A5A1B6A18C9191A5892B8C93DB
:101780000895DC019396ED91FC9194979081989641
:101790008C91892380830895DC019396ED91FC91CF
:1017A0009497908197968C91892B80830895DC0182
:1017B0009196ED91FC919297908196968C918923C8
:1017C00080830895DC019196ED91FC919297908130
:1017D00095968C91892B80830895CF92DF92EF921A
:1017E000FF921F93CF93DF93EC016A017B018DA9D8
:1017F000811123C08F2D9927AA27BB278EBD0DB439
:1018000007FEFDCFC701AA27BB278EBD0DB407FE7B
:10181000FDCFBB27AF2D9E2D8D2D8EBD0DB407FEA8
:10182000FDCFCEBC0DB407FEFDCFDF91CF911F9150
:10183000FF90EF90DF90CF9008958130B1F410E2E7
:10184000CE01F7FE0FC00E94E20BCE010E94CC0B2E
:10185000CE010E94C10BCC0CDD1CEE1CFF1C1150F4
:1018600079F7E3CF0E94D70BF0CFEF8DF8A18F2D42
:101870009927AA27BB278083CE010E94B30BEF8D47
:10188000F8A1C701AA27BB278083CE010E94B30B12
:10189000EF8DF8A1BB27AF2D9E2D8D2D8083CE011E
:1018A0000E94B30BEF8DF8A1C082CE01DF91CF91E2
:1018B0001F91FF90EF90DF90CF900C94B30BFF92AD
:1018C0000F931F93CF93DF93EC018B018DA98111AF
:1018D0000EC01EBD0DB407FEFDCF0EBD0DB407FE3C
:1018E000FDCFDF91CF911F910F91FF90089581302F
:1018F000B1F490E1F92ECE0117FF0EC00E94E20B69
:10190000CE010E94CC0BCE010E94C10B000F111F13
:10191000FA94F110F0CFE5CF0E94D70BF1CFEF8D05
:10192000F8A11083CE010E94B30BEF8DF8A10083C4
:10193000CE01DF91CF911F910F91FF900C94B30BCB
:101940000F931F93CF93DF93EC01162F8DA9811175
:1019500009C06EBD0DB407FEFDCFDF91CF911F9181
:101960000F910895813099F408E0CE0117FF0CC063
:101970000E94E20BCE010E94CC0B110FCE010E94FF
:10198000C10B015091F7E9CF0E94D70BF3CFEF8D38
:10199000F8A16083CE01DF91CF911F910F910C943C
:1019A000B30BCF93DF93EC01ED8DFE8D80819CA96D
:1019B00089238083CE010E94A00CED8DFE8D808155
:1019C0009BA9892B8083DF91CF9108958F929F925D
:1019D000AF92BF92CF92DF92EF92FF920F931F933D
:1019E000CF93DF93EC0189AD9AAD680F791F8BAD72
:1019F0009CAD480F591F21503109260F371F49014F
:101A0000B12CA12CCB01B0E0A0E0DC019927882704
:101A1000882A992AAA2ABB2A680181E0C81AD10813
:101A2000C40ED51EF12CE12C70E060E0BA01552700
:101A30004427C42AD52AE62AF72A6AE2CE010E9460
:101A4000D10CB501A401CE010E94ED0B6BE2CE01D9
:101A50000E94D10CB701A601CE010E94ED0B6CE2F1
:101A6000CE01DF91CF911F910F91FF90EF90DF900A
:101A7000CF90BF90AF909F908F900C94D10CFC01B1
:101A800085A9811104C091A182A19CBD8DBD08953D
:101A90001F93CF93DF93EC01162FE881F981028425
:101AA000F385E02D0995112371F06DADCE010E94F3
:101AB000D10CE881F9810688F789E02DCE01DF910C
:101AC000CF911F9109946EADF1CFAF92BF92CF929B
:101AD000DF92EF92FF920F931F93CF93DF93EC016E
:101AE00077FD38C088859985681779079CF557FD7B
:101AF00031C08A859B854817590764F569017A01C9
:101B00005B01E881F9810284F385E02DCE0109951E
:101B1000E881F98102A4F3A5E02D01E010E021E0C5
:101B200030E0A701B501CE010995B601CE010E94B2
:101B30005F0CE881F9810688F789E02DCE01DF91FD
:101B4000CF911F910F91FF90EF90DF90CF90BF90BA
:101B5000AF900994DF91CF911F910F91FF90EF907B
:101B6000DF90CF90BF90AF9008958F929F92AF92E9
:101B7000BF92CF92DF92EF92FF920F931F93CF937A
:101B8000DF93EC0149015701E881F98102A4F3A533
:101B9000E02D09959401D8010E9453326B017C011C
:101BA000C114D104E104F10409F47DC08DA98111AF
:101BB00015C081E0C81AD108E108F1088FEFC816F6
:101BC000D806E806F80609F46EC0BEBC0DB407FEE0
:101BD000FDCFAEBC0DB407FEFDCFEBCF813099F544
:101BE00081E0C81AD108E108F1088FEFC816D806BD
:101BF000E806F80609F457C00B2D18E0CE0107FFE0
:101C00001CC00E94E20BCE010E94CC0BCE010E94B0
:101C1000C10B000F115091F70A2D18E0CE0107FFFC
:101C20000FC00E94E20BCE010E94CC0BCE010E949D
:101C3000C10B000F115091F7D3CF0E94D70BE3CF08
:101C40000E94D70BF0CFBA1016C0CC0CDD1CEE1CD6
:101C5000FF1CEF8DF8A1B08281E0C81AD108E1081D
:101C6000F1088FEFC816D806E806F806E1F0CE01B5
:101C70000E94B30BF1CF81E0C81AD108E108F10846
:101C80008FEFC816D806E806F80669F0EF8DF8A1C0
:101C9000B082CE010E94B30BEF8DF8A1A082CE01DD
:101CA0000E94B30BE8CFDF91CF911F910F91FF906E
:101CB000EF90DF90CF90BF90AF909F908F9008955E
:101CC0008F929F92AF92BF92CF92DF92EF92FF924C
:101CD0000F931F93CF93DF935C014B016A01E901DE
:101CE00077FD52C0DC0118968D919C916817790799
:101CF0000CF04AC0209709F447C037FF07C0C9015C
:101D00000196C80ED91ED195C195D109F5018285DC
:101D10009385C816D906C4F5A6014C0F5D1F9A011C
:101D20002150310937FD30C0D7FE03C0EA01D12C64
:101D3000C12C281739071CF0EC01CC19DD09D5019D
:101D4000ED91FC910284F385E02DC50109957801A0
:101D50008E0121E030E0A601B401C5010E94B50D5D
:101D6000D501ED91FC910688F789E02DC501DF9141
:101D7000CF911F910F91FF90EF90DF90CF90BF9088
:101D8000AF909F908F900994DF91CF911F910F9109
:101D9000FF90EF90DF90CF90BF90AF909F908F908B
:101DA00008958F929F92AF92BF92CF92DF92EF925F
:101DB000FF920F931F93CF93DF935C016B014A0156
:101DC000E90157FD52C0DC011A968D919C9148178C
:101DD00059070CF04AC0209709F447C037FF07C0E5
:101DE000C9010196C80ED91ED195C195D109F50139
:101DF00080859185C816D906C4F5A6014C0F5D1FD4
:101E00009A012150310937FD30C0D7FE03C0EA01E5
:101E1000D12CC12C281739071CF0EC01CC19DD0995
:101E2000D501ED91FC910284F385E02DC501099562
:101E3000780101E010E09E01A401B601C5010E94F5
:101E4000B50DD501ED91FC910688F789E02DC5010E
:101E5000DF91CF911F910F91FF90EF90DF90CF9086
:101E6000BF90AF909F908F900994DF91CF911F9179
:101E70000F91FF90EF90DF90CF90BF90AF909F9029
:101E80008F9008958F929F92AF92BF92CF92DF92E0
:101E9000EF92FF920F931F93CF93DF934C016B014F
:101EA0005A01E901209709F46CC00115110509F4E4
:101EB00068C037FF07C0C9010196C80ED91ED19569
:101EC000C195D109F401A085B185CA16DB060CF0D5
:101ED00058C017FF07C0C8010196A80EB91E11957A
:101EE00001951109F40182859385A816B9060CF0B5
:101EF00048C0F601EC0FFD1FAF014150510957FDDD
:101F000040C0B501600F711F9B012150310937FDA1
:101F100038C0D7FE03C0EF01D12CC12CB7FE03C0DF
:101F20008B01B12CA12C4A175B071CF0ED01CC19D9
:101F3000DD09281739071CF08C010A191B09D40187
:101F4000ED91FC910284F385E02DC40109959E0179
:101F5000A501B601C4010E94B50DD401ED91FC911B
:101F60000688F789E02DC401DF91CF911F910F9171
:101F7000FF90EF90DF90CF90BF90AF909F908F90A9
:101F80000994DF91CF911F910F91FF90EF90DF9017
:101F9000CF90BF90AF909F908F900895EF92FF9257
:101FA0000F931F93CF93DF9377FD32C0DC01189618
:101FB000ED91FC916E177F075CF52115310541F11C
:101FC00037FF07C0F90131964E0F5F1F31952195FC
:101FD0003109DC011A96ED91FC914E175F07C4F4AC
:101FE000EA01C20FD31FDE011197B7FD11C057FFE1
:101FF00003C09E0150E040E0AE17BF071CF09F01F8
:10200000241B350B7801890121E030E00E94B50DD9
:10201000DF91CF911F910F91FF90EF900895EF9274
:10202000FF920F931F93CF93DF9357FD31C0DC01D5
:102030001A96ED91FC914E175F0754F52115310565
:1020400039F137FF07C0F90131966E0F7F1F3195C7
:1020500021953109DC011896ED91FC916E177F07EF
:10206000BCF4EB01C20FD31FDE011197B7FD10C006
:1020700077FF03C09E0170E060E0AE17BF071CF061
:102080009F01261B370B780101E010E00E94B50D7F
:10209000DF91CF911F910F91FF90EF9008958F9254
:1020A0009F92AF92BF92CF92DF92EF92FF920F93E7
:1020B0001F93CF93DF9347012115310509F44BC0DE
:1020C0000115110509F447C037FF07C0F901319622
:1020D0006E0F7F1F319521953109DC011896AD9067
:1020E000BC906A157B05BCF517FF07C0F801319657
:1020F0004E0F5F1F119501951109DC011A96ED91A4
:10210000FC914E175F073CF56B01C20ED31EE60132
:102110002197D7FD20C07A01E00EF11ED70111975B
:10212000B7FD19C077FF03C0960170E060E057FF6C
:1021300003C0870150E040E0CA15DB051CF09501A3
:10214000261B370BAE17BF071CF08F01041B150BA6
:1021500074010E94B50DDF91CF911F910F91FF90F7
:10216000EF90DF90CF90BF90AF909F908F900895A9
:10217000EF92FF920F931F93CF93DF93EC0177FDC4
:1021800022C08885998568177907ECF457FD1BC034
:102190008A859B8548175907B4F47901E881F9814C
:1021A00002A4F3A5E02D01E010E021E030E0CE0133
:1021B0000995B701CE01DF91CF911F910F91FF904B
:1021C000EF900C945F0CDF91CF911F910F91FF90D6
:1021D000EF9008952F923F924F925F926F927F926D
:1021E0008F929F92AF92BF92CF92DF92EF92FF9227
:1021F0000F931F93CF93DF937C016B01EA0181E082
:1022000090E05C01A41AB50A66247724641A750A62
:10221000660C771C10E000E088248394912C822FB8
:102220008470582E822F8270482E822F8870382E0C
:102230002170222E0C171D070CF079C0B7FC06C0C8
:10224000219782E0680E711CA60CB71C0F5F1F4F10
:1022500082E0880E911CA80CB91C5520C1F02FEF0C
:102260003FEFAE014C0D5D1DB701600F711F86E39E
:1022700093E00E94B8102FEF3FEFA601400F511FCF
:10228000BE016E0D7F1D86E393E00E94B8104420CE
:10229000C1F02FEF3FEFA6014C1B5D0BB701600FA4
:1022A000711F86E393E00E94B8102FEF3FEFA60165
:1022B000401B510BBE016E0D7F1D86E393E00E9413
:1022C000B8103320C1F02FEF3FEFA601400F511F90
:1022D000B7016C1B7D0B86E393E00E94B8102FEFD3
:1022E0003FEFAE014C0D5D1DB701601B710B86E326
:1022F00093E00E94B810222009F49CCF2FEF3FEF0B
:10230000A601401B510BB7016C1B7D0B86E393E0CC
:102310000E94B8102FEF3FEFA6014C1B5D0BB701D9
:10232000601B710B86E393E00E94B81083CFDF91AE
:10233000CF911F910F91FF90EF90DF90CF90BF90C2
:10234000AF909F908F907F906F905F904F903F9055
:102350002F900895CF93DF93EC010E943F0D8FA93A
:1023600087FD06C0EB8DFC8D80819AA9892380832F
:10237000DF91CF9108950895AF92BF92CF92DF92EF
:10238000EF92FF920F931F93CF93DF93BC016F5F88
:102390007F4FFC011491115008F47AC0FB01D491D5
:1023A0007B01F2E0EF0EF11CFB0131960491C02F8E
:1023B000CF7786E393E00E943F0D80916D0387FD08
:1023C00009C0E0915103F09152038081909168031C
:1023D00089238083E0915303F0915403808190918D
:1023E0006A03892380836D2F86E393E00E94A00C0B
:1023F000E0915303F0915403808190916903892BFC
:102400008083F701B12CA12CD0E0AC16BD06F4F40A
:1024100080916B036F01823081F480916603882381
:1024200061F0619171916F0186E393E00E945F0C0E
:10243000EFEFAE1ABE0AF601E8CF8FEFC81AD80A3E
:10244000649186E393E00E94A00CF2CF80916D032B
:1024500087FD09C0E0915103F09152038081909172
:102460006703892B8083B7016C0F7D1F07FF93CF14
:10247000EB012196FB01649170E06F3F710511F44F
:1024800064EF71E090E080E00E94D50ABE0183CF46
:10249000DF91CF911F910F91FF90EF90DF90CF9040
:1024A000BF90AF9008950F931F93CF93DF93EC01EC
:1024B0008B010E943F0D8FA987FD06C0EB8DFC8D1F
:1024C00080819AA989238083ED8DFE8D80819CA9CE
:1024D0008923808366E3CE010E94A00CED8DFE8DE2
:1024E00080819BA9892B80838DA9F801823091F08E
:1024F0006081CE010E94A00C8FA987FD06C0EB8DE4
:10250000FC8D808199A9892B8083DF91CF911F91C8
:102510000F91089588A9882359F360817181CE01B4
:102520000E945F0CE9CFCF93DF931F92CDB7DEB748
:10253000FC0119826370668BDC01AD5BBF4F2C918F
:1025400030E011968C9190E0623031F06330C9F048
:10255000613081F040EC498332AF21AF94AF83AF5B
:10256000BE016F5F7F4FCF010E9453120F90DF912A
:10257000CF91089540EA498334AF23AF92AF81AF42
:10258000EFCF40E6F8CFCF93DF931F92CDB7DEB702
:10259000FC0119826370668BDC01AA5BBF4F8C91D2
:1025A000982F9B7FAF014C5B5F4F913031F493E0EC
:1025B000623008F091E0DA019C939F012D5B3F4F60
:1025C000623009F44CC0633009F459C0613069F1DC
:1025D000823021F098EC843009F046C090EC998369
:1025E0008130D1F480E890E093878287918780875B
:1025F000D9018C9190E092AF81AFDA018C9190E09B
:1026000094AF83AFBE016F5F7F4FCF010E94531223
:102610000F90DF91CF910895843051F580EA90E0DA
:102620009387828780E590E0E1CF823019F098EAC5
:10263000843061F590EA9983813091F580E890E0EB
:102640009187808793878287D9018C9190E094AF9E
:1026500083AFDA018C9190E092AF81AFD3CF82301B
:1026600039F08430D9F298E09983813009F4BACFF7
:1026700080EA90E09387828780E890E0B7CF82304D
:1026800019F098E6843011F490E6D5CF9983813023
:10269000A9F280EA90E09187808780E890E0D2CF2D
:1026A0008430B9F780EA90E09187808780E590E0F8
:1026B000C9CFFC0187A987FD06C0A38DB48D9C916D
:1026C00081A9892B8C9308958F929F92AF92BF928C
:1026D000CF92DF92EF92FF920F931F93CF93DF93EE
:1026E0004C017B01EA0186E393E00E94AA115E019E
:1026F0008AE0A81AB108640185E0C80ED11C0FEF6A
:102700001FEF9501A701B60186E393E00E940F1029
:10271000A701495E5F4F9501B60186E393E00E94F1
:102720000F10570185E0A80EB11C2EE030E0A50186
:10273000B40186E393E00E94CE0FC80DD91DBE01FF
:10274000615071092EE030E0A50186E393E00E941C
:10275000CE0F21E045E050E0B501C6010E94EA102D
:10276000269722E045E050E0B501CE010E94EA1034
:1027700082E1E80EF11C24E045E050E0B701CE0113
:102780000E94EA1028E045E050E0B701C6010E942F
:10279000EA1086E393E0DF91CF911F910F91FF90B4
:1027A000EF90DF90CF90BF90AF909F908F900C9460
:1027B00059130895FC016370668B8481958126818D
:1027C0003781613039F0633029F091878087338712
:1027D00022870895318720879387828708952F92D3
:1027E0003F924F925F926F927F928F929F92AF92A1
:1027F000BF92CF92DF92EF92FF920F931F93CF93EE
:10280000DF93CDB7DEB76A970FB6F894DEBF0FBE81
:10281000CDBF9A8F898F7A8369834A01D22E188718
:102820000F833701BC2CDC0159962D913C915A97AE
:102830002115310509F015C118968D919C911997B4
:10284000681779070CF0D7C11A968D919C9148179B
:1028500059070CF0D0C14C2C512CB6E0CB9E600D2A
:10286000711D11247C876B87161617060CF0C3C1E7
:10287000EA2DF0E0FA87E98793E0EE0FFF1F9A95C3
:10288000E1F7F88BEF87CF01840F951F1816190613
:102890000CF0B1C1A98DBA8D58968C91811104C0EC
:1028A000BFEABD1508F4D394A98DBA8DED91FC91C2
:1028B00011970284F385E02DCD010995B5E0DB9EEB
:1028C000C0011124E981FA81FC83EB83312C212C96
:1028D0009C012759394F388F2F8B4A2D50E05E8B42
:1028E0004D8BEF89F88DE20DF31D44919E828D8210
:1028F000D12CC12C69817A81620D731D7A8B698B11
:10290000842F90E09C8B8B8BE98DFA8DA081B18117
:1029100040FF82C0F1E0BF126FC0AF126DC01C96C5
:10292000ED91FC912F813885A4014C0D5D1D6989C5
:102930007A89898D9A8D0995EB89FC89F595E795BA
:102940004E2F5FEFC51AD50A6D817E818D899E89D4
:10295000680F791F7E836D8398E0C916D10481F6D4
:10296000AFEF2A1A3A0AEB81FC81E40DF51DFC83D6
:10297000EB83F5E02F16310409F0B3CF2F813885B2
:1029800026153705B9F0A98DBA8DED91FC91B1E00E
:10299000BB1257C0AB1255C069817A816B5F7F4F04
:1029A0000088F189E02D830128E030E0A401898DC1
:1029B0009A8D0995A98DBA8DED91FC911197068894
:1029C000F789E02DCD016A960FB6F894DEBF0FBEF1
:1029D000CDBFDF91CF911F910F91FF90EF90DF90CE
:1029E000CF90BF90AF909F908F907F906F905F90AF
:1029F0004F903F902F9009941E96ED91FC91EF809F
:102A0000F88409851A8592014D815E816B817C81F4
:102A1000898D9A8D099590CF2F8138852615370598
:102A200009F48ACF31E0B31207C0A31205C01C9687
:102A3000ED91FC91930178CF1E96ED91FC9173017D
:102A4000E0CF6B857C85641975090684F785E02DD8
:102A500073010F8518899201A401898D9A8D0995BA
:102A6000A9CFF90134969491329745915491D91A8E
:102A7000B7E0DB9E400D511D1124F90125913491E1
:102A80003C8B2B8BFA0125903490FA01329674908E
:102A900031963491398B329664903196449041E06E
:102AA0004C1518F04A1508F07FC0662D062C000C56
:102AB000770B7C836B83842D042C000C990B9E83F5
:102AC0008D83A98DBA8DED91FC9111970284F385C8
:102AD000E02DCD010995512CD12CC12CEA2DF0E02F
:102AE000FA87E9872B2D30E03C872B87A401440D22
:102AF000511D47FC5A95588F4F8B69817A81660D1D
:102B0000711D67FC7A957E876D877989C71608F0F5
:102B100051CF2C2D30E04D815E81420F531FA9858E
:102B2000BA854A9FC0014B9F900D5A9F900D11246A
:102B3000FC01E80DF91DF88BEF87852D612C4F897D
:102B4000588D420F531F5E8B4D8B671408F050C099
:102B500044244394480E877041F4C1010196EB89E7
:102B6000FC89E20DF31DD4901C01D7FE19C0A98D7C
:102B7000BA8DED91FC91662D70E0B1E0BB1219C0E9
:102B8000AB1217C02D853E85620F731F0484F58537
:102B9000E02D2F8138854D895E89898D9A8D099523
:102BA000DD0C6394842DD1CF1E821D821C821B827A
:102BB00088CF4B815C81640F751FAB85BC856A9F94
:102BC000C0016B9F900D7A9F900D112469817A81CD
:102BD000680F791F0684F785E02DEF80F88409855A
:102BE0001A859D014F855889898D9A8D0995D8CF71
:102BF000570CC3948ACF6A960FB6F894DEBF0FBE07
:102C0000CDBFDF91CF911F910F91FF90EF90DF909B
:102C1000CF90BF90AF909F908F907F906F905F907C
:102C20004F903F902F9008958F929F92AF92CF92A6
:102C3000EF92FF920F931F93CF93DF93EC01262F18
:102C4000898D9A8D009709F051C06A30D1F41D86A4
:102C50001C868D8948E0849F900111248E859F8574
:102C6000820F931F9F878E8781E090E0DF91CF9145
:102C70001F910F91FF90EF90CF90AF909F908F900A
:102C800008956D3089F3CC88AD888F898823C1F091
:102C90008C859D8536E0C39E800D911D112448854D
:102CA00059854817590764F44E855F851D861C8633
:102CB00038E0A39EC0011124840F951F9F878E8743
:102CC000EA88FB88088919894E855F856C857D8532
:102CD000CE010E94EF132C898C859D8546E0249FB0
:102CE000800D911D11249D878C87BECF6A3069F4B9
:102CF0001D861C86FC013896E4912D898E859F8562
:102D0000E29F800D911D1124ADCF6D3009F4ACCF41
:102D1000FC0134963491631708F4A6CF3296E491FF
:102D2000E61708F4A1CFFC01329685909490462FC7
:102D3000431B342F47E0349F800C911C1124F40175
:102D4000329634913196E4913323A9F1EE2399F12F
:102D5000CC88F4013596E491AD884F89442301F184
:102D60000E2E000CFF0BE30FF11DCE9EA001CF9E97
:102D7000500D11246C857D85460F571F6885798518
:102D8000641775076CF44E855F851D861C86FC01F3
:102D90003896E491AE9E400D511D11245F874E87F9
:102DA000EA88FB88088919894E855F856C857D8551
:102DB000CE010E94EF13F4013496E4912C898C85A6
:102DC0009D85E29F800D911D11248DCF6F927F9282
:102DD0008F929F92AF92BF92CF92DF92EF92FF922B
:102DE0000F931F93CF93DF93EC016B015A013901CD
:102DF0004801E881F9810284F385E02D0995E88195
:102E0000F9810288F389E02D87019301A501B601BC
:102E1000CE010995A501480D591D41505109E88180
:102E2000F9810288F389E02D9301B601CE0109955D
:102E3000E881F9810088F189E02D9401A501B601AE
:102E4000CE010995C60CD71CB60161507109E88105
:102E5000F9810088F189E02D9401A501CE01099541
:102E6000E881F9810688F789E02DCE01DF91CF91C5
:102E70001F910F91FF90EF90DF90CF90BF90AF9098
:102E80009F908F907F906F9009946F927F928F9216
:102E90009F92AF92BF92CF92DF92EF92FF920F93E9
:102EA0001F93CF93DF935C01EB016A014901380165
:102EB0008701DC01ED91FC916217730719F5641627
:102EC00075062CF0962D872D3A01C92ED82E960125
:102ED000261937092F5F3F4F048CF58DE02DA30194
:102EE000BE01C5010995DF91CF911F910F91FF9010
:102EF000EF90DF90CF90BF90AF909F908F907F909A
:102F00006F9008954615570591F42617370724F05A
:102F1000892D4B01C22FD82F9E01281939092F5F07
:102F20003F4F068CF78DE02DA601B401DACF028465
:102F3000F385E02D0995D501ED91FC910488F58983
:102F4000E02D83019401A601BE01C5010995D501BB
:102F5000ED91FC910688F789E02DC501DF91CF91B5
:102F60001F910F91FF90EF90DF90CF90BF90AF90A7
:102F70009F908F907F906F900994EF92FF920F93A4
:102F80001F93DC011A960D911C911B9718962D9199
:102F90003C911997ED91FC9100A0F1A1E02D7B01EE
:102FA00050E040E070E060E009951F910F91FF90C4
:102FB000EF9008954F925F926F927F928F929F92BF
:102FC000AF92BF92CF92DF92EF92FF920F931F9337
:102FD000CF93DF936C012B015A0139014801DC01C9
:102FE000ED91FC910284F385E02D0995E201640CDA
:102FF000751CD601ED91FC91C615D7055CF40088CF
:10300000F189E02D87019401A501BE01C601099552
:103010002196EFCF0688F789E02DC601DF91CF9189
:103020001F910F91FF90EF90DF90CF90BF90AF90E6
:103030009F908F907F906F905F904F9009948F92A8
:103040009F92AF92BF92CF92DF92EF92FF920F9337
:103050001F93CF93DF93EC015B014A016901E88183
:10306000F9810284F385E02D099595012C0D3D1D14
:1030700021503109E881F9810488F589E02D780132
:103080008401A401B501CE010995E881F981068882
:10309000F789E02DCE01DF91CF911F910F91FF9025
:1030A000EF90DF90CF90BF90AF909F908F9009945A
:1030B0008F929F92AF92BF92CF92DF92EF92FF9248
:1030C0000F931F93CF93DF93EC015B014A016901DA
:1030D0007801E881F9810284F385E02D0995C80C17
:1030E000D91C860101501109E881F9810488F5890C
:1030F000E02D9501A401B501CE010995E881F98182
:103100000688F789E02DCE01DF91CF911F910F91B5
:10311000FF90EF90DF90CF90BF90AF909F908F90F7
:103120000994EF92FF920F931F93DC01ED91FC91B4
:1031300000A0F1A1E02D09951F910F91FF90EF9054
:1031400008950F931F93DC01ED91FC91068CF78D90
:10315000E02D09951F910F9108950F931F93DC01A6
:10316000ED91FC91048CF58DE02D09951F910F9147
:103170000895DC01ED91FC910084F185E02D099426
:103180002F923F924F925F926F927F928F929F9277
:10319000AF92BF92CF92DF92EF92FF920F931F9365
:1031A000CF93DF9300D000D000D0CDB7DEB73C0185
:1031B0006A013E832D83FC82EB825801A41AB50A72
:1031C000B7FE03C0B194A194B1088D809E80861A89
:1031D000970A97FE03C09194819491088A149B04E6
:1031E0005CF0902F812F0D811E819D838E839C2DFD
:1031F0008D2D6B01692F782F0C151D055CF09D81BD
:103200008E817E836D83692F782F902F812F860189
:10321000C92ED82E1601201A310A2B012D813E818C
:10322000421A530A57FE03C0519441945108710148
:1032300037FE03C03FEFE31AF30AF594E7948D815C
:103240009E81861797075CF5A1E0B0E0BA83A98359
:10325000C016D1064CF1D301ED91FC910484F585A3
:10326000E02D2B813C81A8016D817E818A149B0415
:103270001CF04D815E81B801C3010995E418F50881
:10328000F7FE0AC02D813E8189819A81280F391F5E
:103290003E832D83E20CF31C0F5F1F4FD9CF2FEF1E
:1032A0003FEF3A832983D4CF26960FB6F894DEBF3A
:1032B0000FBECDBFDF91CF911F910F91FF90EF9087
:1032C000DF90CF90BF90AF909F908F907F906F9046
:1032D0005F904F903F902F900895089590E080E088
:1032E000089542E350E060E070E08DE298E00E94D3
:1032F000400861E470E080E090E00E94D50A84E03C
:103300000C94D807AF92BF92CF92DF92EF92FF92C8
:103310000F931F93CF93DF93C8E0D1E002E011E059
:1033200088EEA82E83E0B82E69917991C5010E949C
:10333000FE316B01770FEE08FF08B701A601F80117
:10334000819191918F010E944008C701B6010E94AE
:10335000C73026E636E646EA5FE30E947C310E94EB
:103360008F30072E000C880B990B0E94D50A84E041
:103370000E94D807F1E0CE30DF07B1F6DF91CF91A0
:103380001F910F91FF90EF90DF90CF90BF90AF9083
:1033900008950E949632FB0101900020E9F73197D1
:1033A000AF01461B570BDC01ED91FC910280F381CC
:1033B000E02D09948F929F92AF92BF920F931F932B
:1033C000CF93DF93CDB7DEB7A1970FB6F894DEBFEA
:1033D0000FBECDBF19A2423008F44AE08E010F5D46
:1033E0001F4F842E912CB12CA12CA50194010E9479
:1033F0001232E62FB901CA01EA3004F5E05DD801C6
:10340000EE938D01232B242B252B79F790E080E080
:10341000109729F0BD0186E393E00E94CB19A19695
:103420000FB6F894DEBF0FBECDBFDF91CF911F91D5
:103430000F91BF90AF909F908F900895E95CDFCF80
:103440008F929F92AF92BF92CF92DF92EF92FF92B4
:103450000F931F93CF93DF936B017C01042FAC017B
:103460009B010E94E9316CE671E081111AC04601AE
:103470005701E894B7F82FEF3FEF4FE75FE7C5013B
:10348000B4010E94E931811126C02FEF3FEF4FE7D1
:103490005FE7C501B4010E9418301816E4F460E734
:1034A00071E086E393E00E94CB19EC0168E771E0DC
:1034B00086E393E00E94CB198C0F9D1FDF91CF9183
:1034C0001F910F91FF90EF90DF90CF90BF90AF9042
:1034D0009F908F9008952FEF3FEF4FE75FE4C70174
:1034E000B6010E94773118161CF464E771E0D9CF59
:1034F0002FEF3FEF4FE75FECC701B6010E94183096
:1035000087FDF3CF20E030E0A901C701B6010E949A
:103510001830D0E0C0E087FF0AC06DE286E393E098
:103520000E941416EC01F7FAF094F7F8F094102FBB
:10353000B12C60E070E080E09FE3B01640F420E042
:1035400030E040E251E40E941D30B394F6CFA70171
:1035500096010E94AC2F6B017C010E9496304B01BA
:103560005C014AE00E94DA19C80FD91F002309F450
:103570009DCFC501B4010E94C5309B01AC01C701BC
:10358000B6010E94AB2F6B017C016EE286E393E0F3
:103590000E941416C80FD91F115008F487CF20E0DD
:1035A00030E040E251E4C701B6010E947C314B019A
:1035B0005C010E9496306B01F12CE12C4AE0C701BE
:1035C000B6010E94DA19C80FD91FC701B6010E94BF
:1035D000C5309B01AC01C501B4010E94AB2F6B014A
:1035E0007C01DACF0F931F93CF93DF93EC010E94FE
:1035F000CB198C0168E771E0CE010E94CB19800FD6
:10360000911FDF91CF911F910F9108951F93CF9339
:10361000DF9385ED8093BC008091D0019091D10122
:10362000A091D201B091D3010796A11DB11D23E055
:10363000B695A795979587952A95D1F72091BC00C7
:1036400024FD03C01092180252C04091D001509145
:10365000D1016091D2017091D301452B462B472BAC
:1036600069F30097A105B10541F02AE22A95F1F727
:1036700000C00197A109B109E1CF8091CF01C1E05C
:10368000C093CE01882399F1D091B8001091BA006F
:103690008091BC008A7B8093BC0060E082E10E9444
:1036A000AA0760E083E10E94AA0710921802C09363
:1036B0001A021092190261E082E10E94AA0761E0F9
:1036C00083E10E94AA078091B9008E7F8093B900A0
:1036D0008091B9008D7F8093B90088E48093B80011
:1036E00085E48093BC001093BA00D093B800DF91BA
:1036F000CF911F910895CF92DF92EF92FF920F9397
:103700001F93CF93DF93EC016A017B01C114D104B5
:10371000E104F10439F4C12C48E4D42E48EEE42E3F
:10372000FF24F394FE01FF96C082D182E282F382ED
:1037300081E28DAF80E28EAF369610818FA987FD32
:1037400007C061E00E94040861E08FA90E94AA07F7
:1037500061E088AD0E94040861E088AD0E94AA077C
:103760008DA9811182C040E052E16AE770E0C41681
:10377000D506E606F70640F4769567955795479582
:103780008F5F8630A1F787E0212F2C702065982F5E
:103790009695922B99A3809581708AA3812F90E0B2
:1037A000B0E0A0E08BA39CA3ADA3BEA31FB7F89489
:1037B0008091CC01811127C0E6E3FCE08491E8E12F
:1037C000FCE09491E82FF0E0EE0FFF1FE759F44F73
:1037D000A591B491EC91E92321F461E08AE00E9483
:1037E000AA0761E08AE00E9404088CB580618CBD64
:1037F0008CB580648CBD61E08DE00E94040861E0BE
:103800008BE00E9404088091CC018F5F8093CC01F3
:103810001FBF8EA987FD75C061E00E94040861E0AA
:103820008EA90E94AA0764E670E080E090E00E9402
:10383000D50A60E08EA90E94AA0764E670E080E0E5
:1038400090E00E94D50A61E08EA90E94AA0768EC68
:1038500070E080E090E0DF91CF911F910F91FF9099
:10386000EF90DF90CF900C94D50A0CE21CE0F12C85
:103870008130B9F461E08AA50E94040860E08AA55D
:103880000E94AA0761E08CA50E94040860E08CA554
:103890000E94AA078BA587FDBCCF60E00E940408A8
:1038A000B8CFF8018491E82FF0E0EE0FFF1FEE5D36
:1038B000F34F859194912F8D38A12817390741F442
:1038C00061E08F2D0E94040860E08F2D0E94AA07FE
:1038D000F3940F5F1F4FF4E1FF12E3CF61E08EA579
:1038E0000E94040861E08EA50E94AA078FA587FDAB
:1038F00090CF61E00E94040861E08FA50E94AA07B2
:1039000088CFDF91CF911F910F91FF90EF90DF90C3
:10391000CF9008951F920F920FB60F9211242F93FC
:103920003F934F935F936F937F938F939F93AF9347
:10393000BF93EF93FF9380918C0290918D02A091A1
:103940008E02B0918F02892B8A2B8B2BD1F1909113
:103950008702E0918802F091890280818927808323
:1039600080918C0290918D02A0918E02B0918F0275
:10397000181619061A061B069CF480918C02909169
:103980008D02A0918E02B0918F020197A109B10919
:1039900080938C0290938D02A0938E02B0938F023D
:1039A000FF91EF91BF91AF919F918F917F916F9117
:1039B0005F914F913F912F910F900FBE0F901F90ED
:1039C0001895809101010E94D807EACF1F920F92AB
:1039D0000FB60F9211242F933F934F935F936F93E2
:1039E0007F938F939F93AF93BF93EF93FF9388E958
:1039F00092E00E94C906FF91EF91BF91AF919F9114
:103A00008F917F916F915F914F913F912F910F9087
:103A10000FBE0F901F9018951F920F920FB60F9226
:103A200011242F938F939F93EF93FF93E091A8021C
:103A3000F091A9028081E091AE02F091AF0282FD87
:103A40001BC090818091B1028F5F8F732091B20271
:103A5000821741F0E091B102F0E0E856FD4F958FFA
:103A60008093B102FF91EF919F918F912F910F90D1
:103A70000FBE0F901F9018958081F4CF1F920F9268
:103A80000FB60F9211242F933F938F939F93AF9371
:103A9000BF9380913F0290914002A0914102B0916A
:103AA000420230913E0223E0230F2D3758F5019654
:103AB000A11DB11D20933E0280933F0290934002CE
:103AC000A0934102B093420280914302909144023C
:103AD000A0914502B09146020196A11DB11D8093AF
:103AE000430290934402A0934502B0934602BF91D3
:103AF000AF919F918F913F912F910F900FBE0F909B
:103B00001F90189526E8230F0296A11DB11DD2CF54
:103B10001F920F920FB60F9211242F933F934F9342
:103B20005F936F937F938F939F93AF93BF93EF9325
:103B3000FF938091B900887F803609F44AC0F0F580
:103B4000883209F4A5C018F5803109F499C0B8F499
:103B5000882309F4F5C0883009F492C0FF91EF91F1
:103B6000BF91AF919F918F917F916F915F914F9195
:103B70003F912F910F900FBE0F901F901895883195
:103B800009F486C0803251F78093170214C0803444
:103B900009F49BC040F48033B9F38833F9F680937D
:103BA000170285ECAEC0803509F483C0883509F46E
:103BB00094C0883499F60E94061BD0CF883909F446
:103BC0008AC038F5883729F050F4883611F08037EC
:103BD00029F683E0809318021092160255C08838A7
:103BE00009F479C0803919F0803809F0B7CF809195
:103BF0001602803208F06FC0E091160281E08E0F4D
:103C0000809316028091BB00F0E0EA50FE4F808363
:103C10003BC0803B39F0D0F4803A09F477C0883A51
:103C200009F09CCF84E0809318021092F501109265
:103C3000F401F0E0E0E009958091F40181110FC0FA
:103C400081E08093F4011092D40109C0803C09F412
:103C5000A8CF883C09F4A5CF883B09F07FCFE0913D
:103C6000F50181E08E0F8093F501F0E0EC52FE4FFC
:103C700080818093BB009091F5018091F40129C06F
:103C800080913D028093BB0085EC8093BC0066CFA1
:103C900090913C0280913B02981758F5E0913C02CC
:103CA00081E08E0F80933C02F0E0E55EFD4F808165
:103CB000E9CFE0913C0281E08E0F80933C0280913D
:103CC000BB00F0E0E55EFD4F808390913C02809167
:103CD0003B029817C8F285E8D8CFE0913C0281E01A
:103CE0008E0F80933C028091BB00F0E0E55EFD4FBB
:103CF000808380911A0281115ECF81E08093190246
:103D000084EA8093BC001092180228CF85EC80933F
:103D1000BC001092180280911602803230F4E091BB
:103D20001602F0E0EA50FE4F10826091160270E039
:103D300086EF91E0F0E0E0E00995109216020ECFD8
:103D40001092170238CFE8E9F2E01382128288EE6F
:103D500093E0A0E0B0E084839583A683B7838EE2EE
:103D600091E09183808385EC90E09587848784EC53
:103D700090E09787868780EC90E0918B808B81EC38
:103D800090E0938B828B82EC90E0958B848B86EC19
:103D900090E0978B868B118E128E138E148EA6E375
:103DA000B3E013961C921E92129720E830E015960D
:103DB0003C932E93149780EA90E017969C938E93F1
:103DC000169719963C932E9318971B969C938E9357
:103DD0001A9756961C9256971D961C921E921C97E7
:103DE0001F961C921E921E9781E055968C935597B4
:103DF00054968C9354972FEF3FEF53963C932E930A
:103E0000529751963C932E93509757968C93579771
:103E100058961C9258975A961C921E925997D5966E
:103E20001C92D59788E0D6968C93D6978AE0D79641
:103E30008C93D79789E0D8968C93D897DA961C9272
:103E40001E92D997DC961C921E92DB97DD961C92EF
:103E5000DD97DE961C92DE97109275031092760322
:103E6000109277031092780385E393E090969C93E9
:103E70008E935F97E5E3FCE0E491F0E0EE0FFF1F27
:103E8000EE5DF34F859194915E969C938E935D9732
:103E9000E7E1FCE08491D3968C93D397E6E3FCE0D2
:103EA000E491F0E0EE0FFF1FEE5DF34F25913491AA
:103EB0005C963C932E935B97E8E1FCE0E491D1960D
:103EC000EC93D197E095D296EC93D297E82FE095BA
:103ED000D496EC93D4971092790310927A031092AF
:103EE0007B0380E491E08D939C930895CF93DF93BF
:103EF000CDB7DEB7A7970FB6F894DEBF0FBECDBF24
:103F0000789484B5826084BD84B5816084BD85B5B4
:103F1000826085BD85B5816085BD80916E008160C0
:103F200080936E0010928100809181008260809366
:103F30008100809181008160809381008091800068
:103F40008160809380008091B10084608093B10093
:103F50008091B00081608093B00080917A0084608D
:103F600080937A0080917A00826080937A008091B9
:103F70007A00816080937A0080917A0080688093D3
:103F80007A001092C100E091A802F091A90212E01B
:103F90001083E091A402F091A5021082E091A602A4
:103FA000F091A7028FEC80831092B002E091AC02F6
:103FB000F091AD0286E08083E091AA02F091AB021D
:103FC000808180618083E091AA02F091AB028081C0
:103FD00088608083E091AA02F091AB0280818068C2
:103FE0008083E091AA02F091AB0280818F7D808373
:103FF00062E081E00E94040862E082E00E9404081E
:1040000061E084E00E9404080E94821940E050E0D0
:10401000BA0186E393E00E947B1B85EB9BE00E9444
:10402000BC1188EA9BE00E94BC118DE79BE00E94D6
:10403000BC1180EC8983BE016F5F7F4F86E393E004
:104040000E94531210937C0360E086E393E00E9489
:10405000C31270E060E086E393E00E94BD1761E068
:1040600080E00E94040860E080E00E94AA0761E00E
:1040700083E00E940408809180008C7F8093800000
:1040800080918100877E80618093810064EF71E080
:1040900080E090E00E94650B8091B0008C7F816091
:1040A0008093B0008091B10088608093B10010E0EF
:1040B0008EE390E0812C74E2972E74EFA72EB12C42
:1040C0001F5FE12FF0E0EE0FFF1FE25FFE4FE08089
:1040D000F180E816F906A0F39701A8EEB3E00E947C
:1040E0005B329B01AC01C501B4010E941232C701D1
:1040F0002F3F310509F020F72093B3008091B100E4
:10410000887F1770182B1093B100DD24D394AA2454
:10411000AA94BA2C80914F0390915003892B49F4B3
:1041200080914403909145030696909345038093B4
:10413000440380EF9BE09093500380934F03D09211
:104140004D03B0924703A092460310924903109288
:10415000480361E086E393E00E94C31285E090E0AB
:1041600090934303809342038DE790E0909345033F
:1041700080934403D0924A03D0924B036BE771E0E3
:1041800086E393E00E94CB1980914F0390915003F6
:10419000892B49F0809144039091450306979093B1
:1041A0004503809344031092500310924F0305E09F
:1041B00010E0412C512C320183E10E949E0ABC0187
:1041C000990F880B990B0E94C73020E030E44CE92E
:1041D00055E40E947C3120E030EC4FE754E40E942B
:1041E0001D3020E030E040E251E40E941D309B0190
:1041F000AC01C301B2010E94AC2F2B013C01015064
:104200001109D1F620E030E040EA50E40E941D3070
:104210002B013C0120E030E046E952E40E94773176
:1042200087FD12C561E080E00E94AA0780E090E06F
:10423000A8E7B7E488A399A3AAA3BBA32DE73FEF00
:1042400047EC52E4C301B2010E94773118160CF01A
:1042500004C580E090E0A0E0B3E48CA39DA3AEA3EE
:10426000BFA320E030E040E251E4C301B2010E946C
:10427000183087FFF7C486E890E09093430380935B
:104280004203A7E7B0E0B0934503A09344036CEA70
:1042900071E086E393E00E94CB19B0924703A092AD
:1042A000460368A179A18AA19BA10E9496307093D0
:1042B000490360934803D0924A03D0924B036CA108
:1042C0007DA18EA19FA10E948F30709343036093C4
:1042D000420387E790E0909345038093440350E0C6
:1042E00040E0C301B2010E94201A81E990E090935E
:1042F000430380934203A7E7B0E0B0934503A09344
:1043000044036BE871E086E393E00E94F21A81E0D7
:104310000E94810790935C0280935B022091590276
:1043200030915A022130310509F0B3C4892B71F460
:104330000E94080B609355027093560280935702B7
:1043400090935802D09254021092530280915402DA
:10435000882341F180915302811124C00E94080BEF
:104360000091550210915602209157023091580247
:10437000601B710B820B930B693E734081059105A5
:104380008CF08091850290918602049759F40E94E6
:104390008219D0920001809151028D2580935102A3
:1043A000D092530280915B0290915C0290935A02EA
:1043B0008093590282E00E9481079093500280937B
:1043C0004F0220914D0230914E022130310509F00B
:1043D00038C5892B71F40E94080B609349027093D1
:1043E0004A0280934B0290934C02D0924802109262
:1043F000470200918502109186028091480288232D
:1044000039F180914702811123C00E94080B40902E
:10441000490250904A0260904B0270904C0264191D
:10442000750986099709693E73408105910584F0F5
:104430000430110511F00C94152D0E948219D092B0
:104440000001809152028D2580935202D092470242
:1044500080914F029091500290934E0280934D02B2
:104460000430110509F496C644EFE42EFF24F394BA
:10447000412C512C32018EE00E949E0ABC01990F02
:10448000880B990B0E94C7302AE038E240EA5BE3D0
:104490000E947C3120916B0230916C0240916D0240
:1044A00050916E020E94AB2F2091670230916802FA
:1044B0004091690250916A020E941D309B01AC013B
:1044C000C301B2010E94AC2F2B013C0181E0E81A2C
:1044D000F10889F620E030E04AEF53E4C301B2016D
:1044E0000E941D301B012C0120E030E0A9010E9438
:1044F000183087FF03C0212C312C210180914F03FC
:1045000090915003892B49F0809144039091450389
:1045100006979093450380934403109250031092A2
:104520004F030115110509F065C586EB93EFA5E270
:10453000B0E480936B0290936C02A0936D02B093F1
:104540006E0288E791EDA7E9BDE38093670290933F
:104550006802A0936902B0936A0260E085E00E945D
:10456000AA0760E086E00E94AA0760E087E00E9458
:10457000AA07609063027090640280906502909038
:1045800066022DE73FEF47EC52E4C401B3010E94FD
:104590007731EE24E394F12C181684F027EE3BEFEC
:1045A0004FE151E4C401B3010E94773132E0E32EC0
:1045B000F12C18161CF093E0E92EF12C20E030E0ED
:1045C00040E051E4C401B3010E94773100E018EFEC
:1045D00087FF02C010E000E061E086E393E00E9404
:1045E000C312D0924D03B0924703A092460310939A
:1045F00049030093480382E080934A0380934B036E
:1046000042E650E068E270E085E090E00E946413CA
:1046100020926302309264024092650250926602D8
:1046200088E290E090934303809342038DE2682EEA
:10463000712C70924503609244038E010F5F1F4FEF
:1046400024E042E0C201B1010E941F2D609163028B
:10465000709164028091650290916602A7010E94A8
:10466000201A8AE090E09093430380934203709273
:104670004503609244036EEA71E086E393E00E9492
:10468000F21A80914F0390915003892B49F0809149
:104690004403909145030697909345038093440308
:1046A0001092500310924F038091850290918602E0
:1046B000009709F0FBC48091750290917602A09159
:1046C0007702B09178028093710290937202A09366
:1046D0007302B09374029FE09F8F04E1F02E10E00C
:1046E00000E08F8D0E949E0A080F191FFA94F110A6
:1046F000F8CFB801110F880B990B0E94C73020E04A
:1047000030E040EA51E40E941D3020E030E040EA11
:1047100050E40E947C3120E030EC4FE754E40E94EA
:104720001D306093750270937602809377029093A8
:104730007802409071025090720260907302709003
:1047400074022DE73FEF47EC52E4C301B2010E942F
:10475000773118160CF0FFC481E090E0909370025E
:1047600080936F0220E030E048EC51E4C301B201D5
:104770000E94773100E018EF87FF02C010E000E0F0
:1047800061E086E393E00E94C312D0924D03B092A1
:104790004703A0924603109349030093480382E025
:1047A00080934A0380934B0342E650E06AE070E056
:1047B00085E090E00E94641388E290E090934303C8
:1047C000809342031FE0E12EF12CF0924503E0922A
:1047D0004403609171027091720280917302909112
:1047E00074028E010F5F1F4F24E042E00E941F2DD4
:1047F00040916F025091700260917102709172024B
:1048000080917302909174020E94201A8AE090E0D5
:104810009093430380934203F0924503E092440354
:1048200061EB71E086E393E00E94F21A80914F03FE
:1048300090915003892B49F0809144039091450356
:10484000069790934503809344031092500310926F
:104850004F032091630230916402409165025091B0
:104860006602609171027091720280917302909160
:1048700074020E947C312B013C0140925F025092F5
:10488000600260926102709262022DE73FEF47EC96
:1048900052E40E947731EE24E394F12C181684F050
:1048A00027EE3BEF4FE151E4C301B2010E947731A3
:1048B000B2E0EB2EF12C18161CF0F3E0EF2EF12CE9
:1048C00020E030E048EC52E4C301B2010E947731AD
:1048D00000E018EF87FF02C010E000E061E086E32F
:1048E00093E00E94C312D0924D03B0924703A0926E
:1048F0004603109349030093480382E080934A03E0
:1049000080934B0342E650E066E470E085E090E07F
:104910000E94641388E290E09093430380934203E3
:10492000EBE48E2E912C909245038092440360918B
:104930005F027091600280916102909162028E012B
:104940000F5F1F4F24E043E00E941F2D60915F0224
:10495000709160028091610290916202A7010E94B1
:10496000201A8AE090E09093430380934203909250
:1049700045038092440364EB71E086E393E00E9478
:10498000F21A61E086E393E00E94C31227ED33EA56
:1049900040E350E460917102709172028091730261
:1049A000909174020E947C310E948F3020915D02B0
:1049B00030915E022B3531050CF4DDC321E030E08F
:1049C00030935E0220935D0200271127061B170B10
:1049D000E12C78EFF72E27E030E04CE550E06DE673
:1049E00070E086E393E00E94420F00915D02109117
:1049F0005E02F12CE12C27E030E04AE050E06DE669
:104A000070E086E393E00E94420F61E086E393E06A
:104A10000E94C3122DEC3CEC44E051E4609163022F
:104A20007091640280916502909166020E947C31CF
:104A30000E948F3020915D0230915E022B3531054E
:104A40000CF49EC321E030E030935E0220935D02BF
:104A500000271127061B170BE12C68EFF62E27E025
:104A600030E04CE550E060E870E086E393E00E94BF
:104A7000420F00915D0210915E02F12CE12C27E0C3
:104A800030E04AE050E060E870E086E393E00E94A6
:104A9000420F61E086E393E00E94C31227EE3BEFF2
:104AA00049EA5EE360915F02709160028091610269
:104AB000909162020E947C310E948F3020915D02B1
:104AC00030915E022B3531050CF45FC321E030E0FC
:104AD00030935E0220935D0200271127061B170BFF
:104AE000E12C48EFF42E27E030E04CE550E063E99C
:104AF00070E086E393E00E94420F00915D02109106
:104B00005E02F12CE12C27E030E04AE050E063E95E
:104B100070E086E393E00E94420F61E086E393E059
:104B20000E94C312B0924703A09246031092490319
:104B300010924803EE24EA94FE2C05E510E029E0EB
:104B400030E049E050E06CE670E086E393E00E94DC
:104B5000E61629E030E049E050E06FE770E086E3D8
:104B600093E00E94E61629E030E049E050E062E977
:104B700070E086E393E00E94E616109250031092D4
:104B80004F038EE690E0909343038093420303E645
:104B900010E01093450300934403B0924703A092A2
:104BA00046031092490310924803D0924A03D092D0
:104BB0004B0367EB71E086E393E00E94F21A81E811
:104BC00090E0909343038093420310934503009336
:104BD0004403B0924703A0924603109249031092F7
:104BE0004803D0924A03D0924B0369EB71E086E30D
:104BF00093E00E94F21A84E990E09093430380933B
:104C000042031093450300934403B0924703A092DC
:104C100046031092490310924803D0924A03D0925F
:104C20004B036BEB71E086E393E00E94F21A80E0A5
:104C300090E0892B09F46ECA0E94B506882309F416
:104C400064CA0E94000061CA60E080E00E94AA0776
:104C500018A219A21AA21BA2F1CA80E090E0A6E055
:104C6000B3E4FBCA20E030E048EC52E4C301B201F7
:104C70000E94183087FF11CB80E890E090934303A7
:104C800080934203E7E7F0E0F0934503E0934403A9
:104C9000FECA232B09F05ACB019709F057CB10928B
:104CA00054020E94080B0091550210915602209167
:104CB000570230915802601B710B820B930B683EB8
:104CC00073408105910534F46EE871E088E992E063
:104CD0000E94F21AD09200010E9471194090810244
:104CE00050908202609083027090840220E030E055
:104CF00040E251E4C301B2010E941830882351F010
:104D000020E030E048EC52E4C301B2010E941830C8
:104D1000811117C082E080934A0380934B0389E698
:104D200090E090934303809342038DE290E0909350
:104D300045038093440369EA71E086E393E00E94AF
:104D4000F21A4090790250907A0260907B02709043
:104D50007C0220E030E040E251E4C301B2010E9455
:104D60001830882351F020E030E048EC52E4C301D1
:104D7000B2010E941830811117C082E080934A036B
:104D800080934B0389E690E0909343038093420322
:104D90008BE490E0909345038093440368EA71E0CC
:104DA00086E393E00E94F21A80915202882371F107
:104DB0008091510220E030E040E85FE3882399F0E1
:104DC0006091790270917A0280917B0290917C02CD
:104DD0000E94AC2F6093790270937A0280937B02D9
:104DE00090937C02B3CA609181027091820280919B
:104DF0008302909184020E94AC2F60938102709391
:104E000082028093830290938402A0CA80918502DB
:104E1000909186020196909386028093850270E0BD
:104E200060E086E393E00E94BD1780918502909137
:104E3000860205970CF48ACA1092860210928502A7
:104E400085CA232B09F0D5CA019709F0D2CA10925E
:104E500048020E94080B0091490210914A022091D9
:104E60004B0230914C02601B710B820B930B683E1E
:104E700073408105910534F46EE871E088E992E0B1
:104E80000E94F21AD09200010E9471194090810292
:104E900050908202609083027090840220E030E0A3
:104EA00040E251E4C301B2010E941830882351F05E
:104EB00020E030E048EC52E4C301B2010E94183017
:104EC000811117C082E080934A0380934B0389E6E7
:104ED00090E090934303809342038DE290E090939F
:104EE00045038093440369EA71E086E393E00E94FE
:104EF000F21A4090790250907A0260907B02709092
:104F00007C0220E030E040E251E4C301B2010E94A3
:104F10001830882351F020E030E048EC52E4C3011F
:104F2000B2010E941830811117C082E080934A03B9
:104F300080934B0389E690E0909343038093420370
:104F40008BE490E0909345038093440368EA71E01A
:104F500086E393E00E94F21A80915202882371F155
:104F60008091510220E030E040E85FE3882399F02F
:104F70006091790270917A0280917B0290917C021B
:104F80000E94AB2F6093790270937A0280937B0228
:104F900090937C022ECA609181027091820280916E
:104FA0008302909184020E94AB2F609381027093E0
:104FB000820280938302909384021BCA80918502AF
:104FC000909186020197909386028093850270E00B
:104FD00060E086E393E00E94BD1780918502909186
:104FE000860297FF06CA84E090E090938602809341
:104FF0008502FFC901301105D1F482EA95E4A6E2E9
:10500000B0E480936B0290936C02A0936D02B09316
:105010006E0288E791EDA7E9BDE380936702909364
:105020006802A0936902B0936A0261E097CA0230F5
:105030001105F1F484E593EEA5E2B0E480936B02F0
:1050400090936C02A0936D02B0936E0288E791ED8D
:10505000A7E9BDE38093670290936802A093690279
:10506000B0936A0260E085E00E94AA0761E07ACA14
:105070000330110509F07DCA87E197EBA5E2B0E4A2
:1050800080936B0290936C02A0936D02B0936E02BA
:1050900088E791EDA7E9BDE38093670290936802EA
:1050A000A0936902B0936A0261E0DDCF813091057F
:1050B000C9F420E838E44FE55FE360917502709130
:1050C000760280917702909178020E941D30609361
:1050D0007102709372028093730290937402A0E144
:1050E000AF8FFBCA82309105C9F428EF33E543EA5C
:1050F0005EE36091750270917602809177029091E3
:1051000078020E941D306093710270937202809346
:10511000730290937402B1E1BF8FDFCA03970297C5
:1051200008F0DBCA26ED3FEF49EB5DE360917502C5
:105130007091760280917702909178020E941D30E2
:105140006093710270937202809373029093740261
:10515000E2E1EF8FC2CA27EE3BEF4FE151E4C3011A
:10516000B2010E94773118161CF482E090E0F6CA72
:1051700083E090E0F3CA23E530E0261B370B20CC18
:1051800023E530E0261B370B5FCC23E530E0261B00
:10519000370B9ECC609181027091820280918302D4
:1051A000909184020E9496302B013C010CEF1BE091
:1051B000F8018491823009F013C3D301C2014F97E3
:1051C000A109B10982369448AE41B105D0F5AEEFE0
:1051D000B1E0A30192010E9471329B01AC0160E039
:1051E00074E284EF90E00E941232C901440C551C15
:1051F000661C771CC12CC394EC2DF0E0EE0FFF1F52
:10520000E25EFE4FE080F180E816F906A0F3D701D8
:10521000A30192010E9471329B01AC0160E074E233
:1052200084EF90E00E941232C7012F3F310509F050
:1052300010F727BD95B5987F2C2D2770C22EC92A4F
:10524000C5BC60917D0270917E0280917F02909139
:1052500080020E949630F62E61E083E00E940408EE
:10526000F1101EC360E083E00E94AA07409079021B
:1052700050907A0260907B0270907C0223E333E3CB
:1052800043E250E4C301B2010E947C3160937D028D
:1052900070937E0280937F029093800220E030E042
:1052A00048EC52E460918102709182028091830205
:1052B000909184020E947731181644F41092810272
:1052C00010928202109283021092840220E030E059
:1052D000A901609181027091820280918302909174
:1052E00084020E94183087FF0CC080E090E0A8EC98
:1052F000B2E48093810290938202A0938302B093E0
:10530000840220E030E048EC52E4C301B2010E9484
:105310007731181644F41092790210927A021092A2
:105320007B0210927C0220E030E0A90160917902BA
:1053300070917A0280917B0290917C020E941830D9
:1053400087FF0CC080E090E0A8ECB2E48093790283
:1053500090937A02A0937B02B0937C0280918502A5
:10536000909186020497B1F426ED3FEF49EB5DE39F
:105370006091750270917602809177029091780227
:105380000E941D30609371027093720280937302C9
:1053900090937402E4E1FE2E10E000E082E10E94AE
:1053A0009E0A080F191FFA94F110F8CFB801110FD7
:1053B000880B990B0E94C73020E030E040EA51E4AE
:1053C0000E941D3020E030E040EA50E40E947C3131
:1053D00020E030EC4FE754E40E941D3060937502EA
:1053E00070937602809377029093780240907102D6
:1053F0005090720260907302709074022DE73FEF3C
:1054000047EC52E4C301B2010E94773118160CF048
:105410009FC21092700210926F0261E086E393E0E7
:105420000E94C312B0924703A09246031092490310
:1054300010924803D0924D0382E080934A038093F8
:105440004B0380914F0390915003892B49F0809139
:10545000440390914503069790934503809344033A
:105460001092500310924F034CE250E06AE070E05B
:105470008AE090E00E9464130FE010E01093430371
:105480000093420310934503009344036DEB71E0D6
:1054900086E393E00E94F21A45E550E06AE070E08E
:1054A00086E490E00E9464135BE4E52EF12CF09218
:1054B0004303E0924203109345030093440361EBDE
:1054C00071E086E393E00E94F21A69E6462E512CC1
:1054D00050924303409242031093450300934403C8
:1054E00060917102709172028091730290917402C6
:1054F0008E010B5E1F4F24E042E00E941F2D409161
:105500006F025091700260917102709172028091ED
:105510007302909174020E94201A45E550E068E2FF
:1055200070E086E490E00E946413F0924303E092FE
:1055300042037DE2672E712C709245036092440312
:1055400061EC71E086E393E00E94F21A509243030B
:10555000409242037092450360924403609181023D
:105560007091820280918302909184020A50110905
:1055700024E042E00E941F2D60918102709182021E
:10558000809183029091840250E040E00E94201AB2
:1055900045E550E066E470E086E490E00E94641324
:1055A000F0924303E0924203F0924503E0924403F9
:1055B00064EC71E086E393E00E94F21A5092430398
:1055C00040924203F0924503E092440360917902D5
:1055D00070917A0280917B0290917C020A501109AD
:1055E00024E042E00E941F2D6091790270917A02BE
:1055F00080917B0290917C0250E040E00E94201A52
:105600008CE890E09093430380934203F09245032B
:10561000E092440367EC71E086E393E00E94F21AA3
:10562000D0924A03D0924B038DE890E090934303CD
:105630008093420384E390E0909345038093440376
:1056400069EC71E086E393E00E94F21A8091000118
:10565000882309F4A3C082E080934A0380934B031C
:1056600005E010E01093430300934203709245035A
:105670006092440368EA71E086E393E00E94F21AC4
:10568000109343030093420382E390E09093450319
:105690008093440368EA71E086E393E00E94F21A83
:1056A00010934303009342038CE390E090934503EF
:1056B0008093440368EA71E086E393E00E94F21A63
:1056C000109343030093420386E490E090934503D4
:1056D0008093440368EA71E086E393E00E94F21A43
:1056E000109343030093420380E590E090934503B9
:1056F0008093440368EA71E086E393E00E94F21A23
:1057000010934303009342038AE590E0909345038E
:105710008093440368EA71E086E393E00E94F21A02
:105720004AE0642E712CE12C38EFF32E0BE010E0F0
:105730002BE030E04BE250E0B30186E393E00E94BF
:10574000E6162BE030E045E350E0B30186E393E05A
:105750000E94E6162BE030E04FE350E0B30186E311
:1057600093E00E94E6162BE030E049E450E0B301FC
:1057700086E393E00E94E6162BE030E043E550E03C
:10578000B30186E393E00E94E616FAE06F0E711C07
:105790002CE36216710439F61092000140907902F0
:1057A00050907A0260907B0270907C0220E030E0A2
:1057B000A901C301B2010E9418308111DDC020EEA1
:1057C000E22E27E0F22E03E510E022E330E043E58D
:1057D00050E064E170E086E393E00E94451727CA39
:1057E0009DEF980F923080F4D301C2010197A10977
:1057F000B10980389448AE41B10508F022CDC3010B
:10580000B2010E94650B1DCD883009F01ACDD3017D
:10581000C2014F97A109B10982369448AE41B10542
:1058200008F00FCDAEEFB1E0A30192010E947132FA
:105830009B01AC0160E074E284EF90E00E941232C0
:10584000C901440C551C661C771CC12CC394EC2D5B
:10585000F0E0EE0FFF1FE25FFE4FE080F180E81600
:10586000F906A0F3D701A30192010E9471329B01B6
:10587000AC0160E074E284EF90E00E941232C70154
:105880002F3F310509F010F72093B3009091B1003C
:10589000987F2C2D2770C22EC92AC092B100D1CC7E
:1058A0008FEFF81202C061E0DECCF8010491033002
:1058B00049F128F4023091F0F7FED4CCF4CF043053
:1058C000D9F10830C9F78091B00080628093B000B0
:1058D000A091B300B0E004EB10E007C084B5806293
:1058E00084BDA7B5B0E008E410E02F2D30E00E94A1
:1058F0005B322FEF30E040E050E00E941232F801BE
:105900002083B4CC80918000806880938000A09137
:105910008600B091870008E810E02F2D30E00E944B
:105920005B322FEF30E040E050E00E941232D801AD
:1059300011963C932E939ACC809180008062809344
:105940008000A0918600B09187000AE810E0E5CFC2
:1059500027EE3BEF4FE151E4C301B2010E947731E2
:1059600018163CF481E090E09093700280936F02EF
:1059700054CD82E090E0F8CF20E030E048EC52E4F3
:10598000C301B2010E94183081110BC090EEE92EC4
:1059900097E0F92E05E310E022E330E045E350E024
:1059A00018CF2AE939E949E95EE3C301B2010E944F
:1059B0007C3120E030E040EA51E40E94AC2F0E94AC
:1059C0008F302B0180EEE82E87E0F82E05E310E003
:1059D00024E130E043E550E064E170E086E393E0E9
:1059E0000E94451722E330E043E550E062E370E0B7
:1059F00086E393E00E944517920145E350E064E19D
:105A000070E086E393E00E94451703E510E0920101
:105A100045E350E0B20186E393E00E94451722E39C
:105A200030E043E550E0B201D6CE80914F02909134
:105A3000500290934E0280934D020C943422EF92C8
:105A40000F931F93CF93DF93E80134E047FD34E1D8
:105A5000042E000C550B57FF03C051954195510979
:105A6000E32E022F242FAE010E943D2DCE01DF91A7
:105A7000CF911F910F91EF900895A9E0B0E0E3E47A
:105A8000FDE20C947A2F6A01F22EB02E102FFBE368
:105A9000AF2EA01608F41BE31F5F012F27E0AE0115
:105AA0004F5F5F4F0E949C2EBC018981982F997097
:105AB000913009F43FC09BE2E1FC04C09E2D91703F
:105AC000E0FC3AC05E2D5071E82FE87083FF46C0BD
:105AD00084E0911101C083E0EF2DE81B8F1508F0E1
